:020000040800F2
:100000000050002021020008F9100008FB10000831
:10001000FD100008FF10000801110008000000009A
:1000200000000000000000000000000003110008B4
:100030000511000800000000071100080911000860
:10004000310F0008310F0008310F0008310F000890
:10005000310F0008310F0008310F0008310F000880
:10006000310F0008310F0008310F0008310F000870
:10007000310F0008310F0008310F0008310F000860
:10008000310F0008310F0008310F0008310F000850
:10009000310F0008310F0008310F0008310F000840
:1000A000310F0008310F0008310F0008310F000830
:1000B000310F0008310F0008310F0008310F000820
:1000C000310F0008310F0008310F0008310F000810
:1000D000310F0008310F0008310F0008310F000800
:1000E000310F0008310F0008310F00080000000038
:1000F0000000000000000000000000000000000000
:1001000000000000000000005FF808F100B583B0B7
:1001100000F074FE304B314A1360314A1360314BAA
:10012000314A03E052F8041B43F8041B2F498B4269
:10013000F8D32A4B1A682E4B9A4200D0FEE7284B80
:100140001A682C4B9A42F9D1234B2B4A13602B4A45
:1001500013602B4B02E0002243F8042B294A934200
:10016000F9D3254B1B6813B9244B1B6803B1FEE779
:1001700000F050FE694601A800F0EAFD224C234B36
:10018000E41AA410002504E0204B53F825309847CA
:100190000135AC42F8DC1E4C1E4BE41AA4100025BD
:1001A00004E01C4B53F8253098470135AC42F8DC8D
:1001B0000099019800F050FF0546174C174BE41AC0
:1001C000A41004E0013C154B53F824309847002C50
:1001D000F8DC284600F098FDBABADECA000000201C
:1001E000EC01002000000020485C0008F001002025
:1001F0007856341232547698F0010020980200208C
:10020000F00100209C020020740300087403000821
:1002100074030008740300087403000874030008E2
:1002200008B5FFF773FF00BEFEE71EF0040F0CBF1A
:10023000EFF30880EFF309807146414A10472DE93A
:10024000F04182B004460D46124B5F6BD3F8388004
:100250009E6A1B6B13F0020F03D00E4BDB6A002B60
:100260000BDB0D4800F07CFD009543463A463146D5
:10027000204600F0D3FD00BEFEE74BF6AB6100F078
:1002800047FE0028EDD0034B4FF00042DA6202B087
:10029000BDE8F08100ED00E03C59000800BEFEE73B
:1002A0001EF0040F0CBFEFF30880EFF309807146D6
:1002B000244A10472DE9F04182B004460D46084B10
:1002C0005F6BD3F838809E6A064800F049FD0095C0
:1002D00043463A463146204600F0A0FD00BEFEE708
:1002E00000ED00E04C5900081EF0040F0CBFEFF3C6
:1002F0000880EFF309807146134A10472DE9F04159
:1003000082B004460D46084B5F6BD3F838809E6A76
:10031000064800F025FD009543463A463146204602
:1003200000F07CFD00BEFEE700ED00E0585900083B
:1003300000BEFEE700BEFEE700BEFEE7704700001D
:0C0340003F020008B5020008FD020008A2
:10034C00485C000800000020F0010020485C000818
:10035C000000000000000000F00100209C020020C2
:08036C00000000000000000089
:1003780010B504460E4B18784FF47A73B3FBF0F3BC
:100388000C4A1068B0FBF3F000F07CF868B90F2C49
:1003980001D901200AE0002221464FF0FF3000F089
:1003A8003DF8054B1C60002000E0012010BD00BF97
:1003B80004000020140000200800002008B50320D5
:1003C80000F01AF80020FFF7D3FF00F079FE0020B4
:1003D80008BD0000034A1168034B1B780B441360E7
:1003E800704700BF8402002004000020014B1868F9
:1003F800704700BF84020020074AD36823F4E063F3
:100408001B041B0C000200F4E060034343F0BF63CD
:1004180043F40033D360704700ED00E030B4174B6D
:10042800DB68C3F30223C3F10704042C28BF0424A8
:100438001D1D062D18D9033B4FF0FF3505FA04F4AE
:1004480021EA0401994005FA03F322EA0303194358
:1004580000280BDB0901C9B200F1604000F56140DA
:1004680080F8001330BC70470023E5E700F00F0068
:100478000901C9B2024B1954F4E700BF00ED00E0CE
:1004880014ED00E00138B0F1807F0AD2064B5860C5
:10049800064AF02182F823100020986007221A608B
:1004A80070470120704700BF10E000E000ED00E059
:1004B800F0B482B000252C46A3E07F4FBB4210D099
:1004C80007D97E4FBB420CD007F58037BB4208D016
:1004D80013E0A7F58017BB4203D007F57027BB428E
:1004E80007D18B68002B58D0012B51D042610825C9
:1004F80003E0A7F58017BB42F3D0FF2E4FD8844600
:10050800FF2E4FD8A200DCF800300F27974023EACF
:10051800070305FA02F21343CCF800304B6813F0D6
:10052800805F6DD0664B9A6942F001029A619B69BF
:1005380003F001030193019BA208971C614B53F838
:10054800273004F00307BF004FF00F0C0CFA07FC2C
:1005580023EA0C0C5C4B98422AD003F5806398423E
:1005680000F08A8003F58063984200F0878003F5E5
:10057800806398421AD004231BE0CD68BDE7CD689C
:100588000435BAE7CD680835B7E7CD680C35B4E768
:1005980002610825B1E70025AFE70425ADE700F1C2
:1005A800040CADE7A4F108029200ACE7032300E0D5
:1005B8000023BB4043EA0C030232424F47F8223083
:1005C8004B6813F4803F5BD0404A13683343136091
:1005D8004B6813F4003F59D03C4A53683343536087
:1005E8004B6813F4801F57D0384A9368334393609D
:1005F8004B6813F4001F55D0344AD3681E43D660A5
:1006080001340F2C54D80122A2400B6803EA0206D9
:1006180032EA0303F4D14B68122B3FF64EAF122B8C
:100628003FF66BAF01A757F823F000BFEB040008B3
:10063800830500088D0500089F05000803050008CC
:100648000305000803050008030500080305000862
:100658000305000803050008030500080305000852
:100668000305000803050008030500080305000842
:10067800870500089305000801239AE7022398E7F5
:10068800124A136823EA06031360A1E70F4A536866
:1006980023EA06035360A3E70C4A936823EA060398
:1006A8009360A5E7094AD36823EA0606D660A7E758
:1006B80002B0F0BC704700BF0000221000003110EB
:1006C8000010024000000140000801400004014001
:1006D8008368194201D001207047002070470AB191
:1006E80001617047090401617047000082B0084B3E
:1006F8001B68084AA2FB03235B0A00FB03F3019370
:1007080000BF019B5A1E0192002BF9D102B070471D
:1007180014000020D34D621070B582B004460368FF
:1007280013F0010F2CD0AB4B5B6803F00C03042BC8
:100738001DD0A84B5B6803F00C03082B12D063682C
:10074800B3F5803F41D0002B55D103F1804303F529
:1007580004331A6822F480321A601A6822F480225C
:100768001A6037E09B4B5B6813F4803FE7D0994BE6
:100778001B6813F4003F03D06368002B00F0AE81C0
:10078800236813F0020F75D0924B5B6813F00C0FBF
:100798005FD0904B5B6803F00C03082B54D023699F
:1007A800002B00F089808C4B01221A60FFF71EFE97
:1007B8000546884B1B6813F0020F74D1FFF716FE2D
:1007C800401B0228F5D903208DE1824A136843F4BF
:1007D80080331360636843B3FFF708FE05467D4B1B
:1007E8001B6813F4003FCBD1FFF700FE401B6428C1
:1007F800F5D9032077E1B3F5A02F09D0754B1A6816
:1008080022F480321A601A6822F480221A60E1E722
:1008180003F18043A3F53C331A6842F480221A603E
:100828001A6842F480321A60D4E7FFF7DFFD054604
:10083800684B1B6813F4003FA2D0FFF7D7FD401B9D
:100848006428F5D903204EE1624B5B6813F4803FBE
:10085800A5D1604B1B6813F0020F03D02369012B4D
:1008680040F03E815B4A136823F0F803616943EA6C
:10087800C1031360236813F0080F32D0A369002B5B
:1008880045D0564B01221A60FFF7B0FD0546514B83
:100898005B6A13F0020F21D1FFF7A8FD401B022865
:1008A800F5D903201FE14B4A136823F0F803616967
:1008B80043EAC1031360DDE7474B00221A60FFF7E4
:1008C80095FD0546434B1B6813F0020FD2D0FFF786
:1008D8008DFD401B0228F5D9032004E10120FFF714
:1008E80005FF236813F0040F00F09880394BDB698B
:1008F80013F0805F1DD1374BDA6942F08052DA611C
:10090800DB6903F080530193019B012512E0334B0F
:1009180000221A60FFF76AFD05462E4B5B6A13F04A
:10092800020FDED0FFF762FD401B0228F5D9032035
:10093800D9E000252A4B1B6813F4807F11D0E368A7
:10094800012B22D0002B38D103F1804303F5043367
:100958001A6A22F001021A621A6A22F004021A6262
:1009680018E01F4A136843F480731360FFF73EFDD5
:1009780006461B4B1B6813F4807FE0D1FFF736FD5A
:10098800801B6428F5D90320ADE0124A136A43F0AE
:1009980001031362E3687BB3FFF728FD06460D4B9E
:1009A8001B6A13F0020F38D1FFF720FD801B41F2BC
:1009B80088339842F3D9032095E0052B12D0054BD4
:1009C8001A6A22F001021A621A6A22F004021A62F2
:1009D800E0E700BF001002400000424280044242AB
:1009E80000700040424B1A6A42F004021A621A6A06
:1009F80042F001021A62CDE7FFF7F8FC06463C4BCD
:100A08001B6A13F0020F08D0FFF7F0FC801B41F2BD
:100A180088339842F3D9032065E0E5B9E369002BF0
:100A280060D0334A526802F00C02082A5DD0022BCB
:100A380017D0304B00221A60FFF7D8FC04462C4B25
:100A48001B6813F0007F47D0FFF7D0FC001B02287B
:100A5800F5D9032047E0264AD36923F08053D361B0
:100A6800DCE7244B00221A60FFF7C0FC0546204B48
:100A78001B6813F0007F06D0FFF7B8FC401B022864
:100A8800F5D903202FE0236AB3F5803F1AD018491F
:100A98004B6823F47413226A606A024313434B6061
:100AA800144B01221A60FFF7A1FC0446104B1B6887
:100AB80013F0007F0ED1FFF799FC001B0228F5D92F
:100AC800032010E00A4A536823F40033A1680B435B
:100AD8005360DCE7002006E0002004E0012002E08B
:100AE800012000E0002002B070BD0120FBE700BF3C
:100AF800001002406000424286B0164B0FCB0DF149
:100B0800180C0CE90F0040F20123ADF80430124B29
:100B18005B6803F00C02082A02D0104806B0704740
:100B2800C3F38342624412F8102C13F4803F0CD0B4
:100B3800094B5B68C3F34043634413F8143C07480C
:100B480000FB02F0B0FBF3F0E8E7054800FB02F019
:100B5800E4E700BF0C5800080010024000127A00B9
:100B680000093D0070B504460D46614B1B6803F053
:100B780007038B420BD25E4A136823F007030B432B
:100B88001360136803F007038B4240F0AB802368BF
:100B980013F0020F17D013F0040F04D0554A53680E
:100BA80043F4E0635360236813F0080F04D0514AFC
:100BB800536843F4605353604E4A536823F0F0037C
:100BC800A1680B435360236813F0010F52D0636888
:100BD800012B23D0022B28D0464A126812F0020FAC
:100BE80000F0828043494A6822F0030213434B60B5
:100BF800FFF7FCFB06466368012B1DD0022B2AD0A9
:100C08003C4B5B6813F00C0F34D0FFF7EFFB831BF2
:100C180041F288329342F3D9032062E0354A1268E0
:100C280012F4003FDED101205BE0324A126812F074
:100C3800007FD7D1012054E02E4B5B6803F00C03F2
:100C4800042B17D0FFF7D2FB831B41F28832934263
:100C5800F2D9032045E0274B5B6803F00C03082B0F
:100C680008D0FFF7C3FB801B41F288339842F2D9C2
:100C7800032036E01E4B1B6803F00703AB420AD97A
:100C88001B4A136823F007032B431360136803F010
:100C98000703AB422AD1236813F0040F06D0154A84
:100CA800536823F4E063E1680B435360236813F04F
:100CB800080F07D00F4A536823F46053216943EAA9
:100CC800C1035360FFF718FF0A4B5B68C3F30313B4
:100CD800094AD35CD840094B18600020FFF748FB4D
:100CE800002070BD0120FCE70120FAE70120F8E7A9
:100CF800002002400010024068590008140000203B
:100D0800FEE7000008B503460C4A12685AB10B4AC0
:100D18001068033323F003030344094A934206D8B7
:100D2800064A136008BD054A06491160EFE700F05E
:100D380069FE0C2303604FF0FF30F3E7F401002055
:100D4800004C00209C02002001230360014B0B6033
:100D5800704700BF0C0000200FB400B583B004AB8F
:100D680053F8042B01938021074802F0C7FB0028A1
:100D780004DC03B05DF804EB04B070470146024898
:100D880000F034F8F5E700BFFC0100202DE9F0433E
:100D980085B004460F46435633BB042528462146F2
:100DA800ABBE0446384605B0BDE8F08314F9010B24
:100DB80004AA1A4402F8100C0133AB42F6D304AA71
:100DC8001344002203F8102C4FF00408E94640466B
:100DD8004946ABBE8046761B002EE3D03546102E22
:100DE80028BF10250023E8E70E46F5E708B5FFF70A
:100DF800CDFF08BD08B500F099F8024A024B9A6089
:100E080008BD00BF0000000800ED00E008B500F0D4
:100E1800B3F808BDF8B504460D4617461E462748E0
:100E2800FFF79AFF21682648FFF796FF6168254873
:100E3800FFF792FFA1682448FFF78EFFE168234877
:100E4800FFF78AFF21692248FFF786FF6169214879
:100E5800FFF782FFA1692048FFF77EFFE1691F487D
:100E6800FFF77AFF1E48FFF777FF29461D48FFF76F
:100E780073FF1D4CE16A1D48FFF76EFF216B1C488C
:100E8800FFF76AFFE16B1B48FFF766FF15F0800F5D
:100E98000AD115F4004F0CD11748FFF75DFF0699EA
:100EA8001648FFF759FFF8BD39461548FFF754FFB4
:100EB800EFE731461348FFF74FFFEDE720580008EA
:100EC800305800084058000850580008605800087A
:100ED800705800088058000890580008A05800086A
:100EE800B0580008BC58000800ED00E0CC580008D5
:100EF800DC580008EC5800081C5900082459000860
:100F0800FC5800080C59000883691A888A4201D0E5
:100F1800002070470268033A012A01D9002070476F
:100F28000233836101207047FEE700000F4B1A6807
:100F380042F001021A6059680D4A0A405A601A685C
:100F480022F0847222F480321A601A6822F4802215
:100F58001A605A6822F4FE025A604FF41F029A601F
:100F6800044B4FF000629A60704700BF00100240C7
:100F78000000FFF800ED00E01F4B5B6803F00C0376
:100F8800042B14D0082B16D01BB11C4B1C4A1A601A
:100F980002E01A4B1A4A1A60174B5B68C3F3031333
:100FA800184AD15C154A1368CB4013607047134B3D
:100FB800134A1A60F0E7104A53685268C3F3834330
:100FC800023312F4803F05D10F4A02FB03F30B4AA8
:100FD8001360E1E7084A526812F4003F05D00A4A54
:100FE80002FB03F3054A1360D6E7054A02FB03F345
:100FF800024A1360D0E700BF00100240140000202E
:1010080000127A006859000800093D0010B590B038
:101018002422002107A800F009FD0024019402946D
:101028000394049405940223069301230A9310233E
:101038000B9306A8FFF770FB0F2301930294039408
:1010480004940594214601A8FFF78CFD10B010BD4B
:1010580030B585B0FFF7B2F9FFF7D8FFC02300938A
:101068000124019403940294134D69462846FFF71E
:101078001FFA224640212846FFF731FB22468021ED
:101088002846FFF72CFB2023009300240194032318
:1010980003930223029369462846FFF709FA2021A1
:1010A8000548FFF715FB0246651C21460348FFF774
:1010B80053FE2C46F3E700BF000C014078590008A6
:1010C80082B00A4B9A6942F001029A619A6902F069
:1010D80001020092009ADA6942F08052DA61DB6913
:1010E80003F080530193019B02B070470010024047
:1010F8007047FEE7FEE7FEE7FEE770477047704778
:1011080008B5FFF767F908BD81F0004102E000BFAC
:1011180083F0004330B54FEA41044FEA430594EAAF
:10112800050F08BF90EA020F1FBF54EA000C55EAEA
:10113800020C7FEA645C7FEA655C00F0E2804FEABB
:101148005454D4EB5555B8BF6D420CDD2C4480EA9D
:10115800020281EA030382EA000083EA010180EACD
:10116800020281EA0303362D88BF30BD11F0004F1B
:101178004FEA01314FF4801C4CEA113102D0404251
:1011880061EB410113F0004F4FEA03334CEA13338C
:1011980002D0524263EB430394EA050F00F0A780A4
:1011A800A4F10104D5F1200E0DDB02FA0EFC22FA9F
:1011B80005F2801841F1000103FA0EF2801843FA93
:1011C80005F359410EE0A5F120050EF1200E012A84
:1011D80003FA0EFC28BF4CF0020C43FA05F3C018C2
:1011E80051EBE37101F0004507D54FF0000EDCF13B
:1011F800000C7EEB00006EEB0101B1F5801F1BD3E4
:10120800B1F5001F0CD349085FEA30004FEA3C0CE7
:1012180004F101044FEA445212F5800F80F09A80DD
:10122800BCF1004F08BF5FEA500C50F1000041EBE1
:10123800045141EA050130BD5FEA4C0C404141EBE5
:101248000101013C28BFB1F5801FE9D291F0000FE0
:1012580004BF01460020B1FA81F308BF2033A3F18F
:101268000B03B3F120020CDA0C3208DD02F1140C86
:10127800C2F10C0201FA0CF021FA02F10CE002F1C1
:101288001402D8BFC2F1200C01FA02F120FA0CFCBA
:10129800DCBF41EA0C019040E41AA2BF01EB045103
:1012A800294330BD6FEA04041F3C1CDA0C340EDC01
:1012B80004F11404C4F1200220FA04F001FA02F344
:1012C80040EA030021FA04F345EA030130BDC4F102
:1012D8000C04C4F1200220FA02F001FA04F340EAF7
:1012E8000300294630BD21FA04F0294630BD94F0A8
:1012F800000F83F4801306BF81F480110134013D8F
:101308004EE77FEA645C18BF7FEA655C29D094EAFF
:10131800050F08BF90EA020F05D054EA000C04BF7D
:101328001946104630BD91EA030F1EBF0021002068
:1013380030BD5FEA545C05D14000494128BF41F007
:10134800004130BD14F580043CBF01F5801130BD6B
:1013580001F0004545F0FE4141F470014FF00000F6
:1013680030BD7FEA645C1ABF194610467FEA655CA7
:101378001CBF0B46024650EA013406BF52EA033549
:1013880091EA030F41F4002130BD00BF90F0000F37
:1013980004BF0021704730B54FF4806404F1320473
:1013A8004FF000054FF0000150E700BF90F0000F2C
:1013B80004BF0021704730B54FF4806404F1320453
:1013C80010F0004548BF40424FF000013EE700BF23
:1013D80042004FEAE2014FEA31014FEA02701FBFB3
:1013E80012F07F4393F07F4F81F06051704732F0E5
:1013F8007F4208BF704793F07F4F04BF41F400213C
:10140800704730B54FF4607401F0004521F0004199
:101418001CE700BF50EA010208BF704730B54FF023
:1014280000050AE050EA010208BF704730B511F024
:10143800004502D5404261EB41014FF4806404F15C
:1014480032045FEA915C3FF4D8AE4FF003025FEAE2
:10145800DC0C18BF03325FEADC0C18BF033202EB66
:10146800DC02C2F1200300FA03FC20FA02F001FAC0
:1014780003FE40EA0E0021FA02F11444BDE600BF63
:1014880070B54FF0FF0C4CF4E06C1CEA11541DBF12
:101498001CEA135594EA0C0F95EA0C0F00F0DEF8DD
:1014A8002C4481EA030621EA4C5123EA4C5350EAC2
:1014B800013518BF52EA033541F4801143F4801313
:1014C80038D0A0FB02CE4FF00005E1FB02E506F0A4
:1014D8000042E0FB03E54FF00006E1FB03569CF0F9
:1014E800000F18BF4EF0010EA4F1FF04B6F5007FFF
:1014F80064F5407404D25FEA4E0E6D4146EB060671
:1015080042EAC62141EA55514FEAC52040EA5E50F9
:101518004FEACE2EB4F1FD0C88BFBCF5E06F1ED8A3
:10152800BEF1004F08BF5FEA500E50F1000041EBDA
:10153800045170BD06F0004646EA010140EA020087
:1015480081EA0301B4EB5C04C2BFD4EB0C0541EAA9
:10155800045170BD41F480114FF0000E013C00F3BE
:10156800AB8014F1360FDEBF002001F0004170BDE2
:10157800C4F10004203C35DA0C341BDC04F11404FB
:10158800C4F1200500FA05F320FA04F001FA05F287
:1015980040EA020001F0004221F0004110EBD37054
:1015A80021FA04F642EB06015EEA430E08BF20EA80
:1015B800D37070BDC4F10C04C4F1200500FA04F323
:1015C80020FA05F001FA04F240EA020001F00041B5
:1015D80010EBD37041F100015EEA430E08BF20EA28
:1015E800D37070BDC4F1200500FA05F24EEA020E70
:1015F80020FA04F301FA05F243EA020321FA04F09F
:1016080001F0004121FA04F220EA020000EBD37055
:101618005EEA430E08BF20EAD37070BD94F0000F55
:101628000FD101F00046400041EB010111F4801F89
:1016380008BF013CF7D041EA060195F0000F18BF3A
:10164800704703F00046520043EB030313F4801F76
:1016580008BF013DF7D043EA0603704794EA0C0F30
:101668000CEA135518BF95EA0C0F0CD050EA410646
:1016780018BF52EA4306D1D181EA030101F00041C3
:101688004FF0000070BD50EA410606BF10461946EB
:1016980052EA430619D094EA0C0F02D150EA0136F7
:1016A80013D195EA0C0F05D152EA03361CBF104638
:1016B80019460AD181EA030101F0004141F0FE41D7
:1016C80041F470014FF0000070BD41F0FE4141F45B
:1016D800780170BD70B54FF0FF0C4CF4E06C1CEA5B
:1016E80011541DBF1CEA135594EA0C0F95EA0C0F10
:1016F80000F0A7F8A4EB050481EA030E52EA0335CB
:101708004FEA013100F088804FEA03334FF08055EB
:1017180045EA131343EA12634FEA022245EA111518
:1017280045EA10654FEA00260EF000419D4208BFC9
:10173800964244F1FD0404F5407402D25B084FEA76
:101748003202B61A65EB03055B084FEA32024FF422
:1017580080104FF4002CB6EB020E75EB030E22BF7F
:10176800B61A754640EA0C005B084FEA3202B6EB3F
:10177800020E75EB030E22BFB61A754640EA5C00EE
:101788005B084FEA3202B6EB020E75EB030E22BF7E
:10179800B61A754640EA9C005B084FEA3202B6EB7F
:1017A800020E75EB030E22BFB61A754640EADC003E
:1017B80055EA060E18D04FEA051545EA16754FEAA0
:1017C80006164FEAC30343EA52734FEAC2025FEABE
:1017D8001C1CC0D111F4801F0BD141EA00014FF04D
:1017E80000004FF0004CB6E711F4801F04BF01431E
:1017F8000020B4F1FD0C88BFBCF5E06F3FF6AFAE3A
:10180800B5EB030C04BFB6EB020C5FEA500C50F1C9
:10181800000041EB045170BD0EF0004E4EEA11314C
:1018280014EB5C04C2BFD4EB0C0541EA045170BD53
:1018380041F480114FF0000E013C90E645EA060E97
:101848008DE60CEA135594EA0C0F08BF95EA0C0FC5
:101858003FF43BAF94EA0C0F0AD150EA01347FF40D
:1018680034AF95EA0C0F7FF425AF104619462CE7E4
:1018780095EA0C0F06D152EA03353FF4FDAE104647
:10188800194622E750EA410618BF52EA43067FF498
:10189800C5AE50EA41047FF40DAF52EA43057FF428
:1018A800EBAE12E74FF0FF3C06E000BF4FF0010C33
:1018B80002E000BF4FF0010C4DF804CD4FEA410C97
:1018C8007FEA6C5C4FEA430C18BF7FEA6C5C1BD064
:1018D80001B050EA410C0CBF52EA430C91EA030FE5
:1018E80002BF90EA020F0020704710F1000F91EA42
:1018F800030F58BF994208BF90422CBFD8176FEA10
:10190800E37040F0010070474FEA410C7FEA6C5CDD
:1019180002D150EA013C07D14FEA430C7FEA6C5CE4
:10192800D6D152EA033CD3D05DF8040B704700BF10
:101938008446104662468C461946634600E000BF5E
:1019480001B5FFF7B7FF002848BF10F1000F01BD30
:101958004DF808EDFFF7F4FF0CBF012000205DF8FB
:1019680008FB00BF4DF808EDFFF7EAFF34BF012080
:1019780000205DF808FB00BF4DF808EDFFF7E0FF19
:1019880094BF012000205DF808FB00BF4DF808ED6A
:10199800FFF7CEFF94BF012000205DF808FB00BFD1
:1019A8004DF808EDFFF7C4FF34BF012000205DF8B3
:1019B80008FB00BF4FEA410212F5001215D211D5FB
:1019C8006FF47873B3EB625212D94FEAC12343F034
:1019D800004343EA505311F0004F23FA02F018BFB6
:1019E800404270474FF00000704750EA013005D17F
:1019F80011F0004008BF6FF0004070474FF0000042
:101A0800704700BF014B1868704700BF18000020DE
:101A18000A44914200F1FF3300D1704710B511F824
:101A2800014B914203F8014FF9D110BD034602441E
:101A3800934200D1704703F8011BF9E7002B2DE909
:101A4800F0471F46BBBF03F100431F4600232D2369
:101A580088B01446129A109D1370149BDDF84CA0A0
:101A680023F02008B8F1460F05D0B8F1450F00D192
:101A78000135022300E0032307AA049206AACDE950
:101A880002A2CDE9003522463B4601F0D5FDB8F16A
:101A9800470F064602D1119BDB0722D5B8F1460F46
:101AA80006EB050910D13378302B0AD10022002328
:101AB80020463946FFF74CFF18B9C5F10105CAF8A9
:101AC8000050DAF8003099440022002320463946B5
:101AD800FFF73EFF08B1CDF81C903022079B4B451D
:101AE80007D33046079B159A9B1B136008B0BDE8C7
:101AF800F087591C07911A70F0E70346F7B50029DB
:101B080003F8022BB6BF2D222B2249420929427025
:101B18002BDD0DF10704A4460A2791FBF7F60A46C8
:101B2800A64607FB1615632A05F13005314604F170
:101B3800FF340EF8015CF0DC3031AEF1020504F838
:101B4800011C2946441C61450AD30DF10902A2EB88
:101B58000E02654588BF00221344181A03B0F0BD71
:101B680011F8012B04F8012FEDE730233031837091
:101B7800C170031DF1E700002DE9F04F91B00C464C
:101B8800DDF8688016461F46054602F07BFE0368AE
:101B98001846099300F0E8FD00230E93D8F80030AA
:101BA8000A90073323F0070303F1080294F818900A
:101BB800D4F800B0C8F80020D3E90023C4E9122300
:101BC800D4E9128A2AF000430B934FF0FF324046C3
:101BD8009C4B0B9903F058FD70BB4FF0FF32404609
:101BE800984B0B99FFF7C8FE30BB002200234046F4
:101BF8005146FFF7B7FE10B12D2384F84330924BBE
:101C08009248B9F1470F94BF9846804603234FF096
:101C1800000A23612BF0040323603346214628463B
:101C280000970FAA00F0D4F9013040F090804FF0EF
:101C3800FF3011B0BDE8F08F42465346404651464A
:101C480003F022FD48B1BAF1000FB8BF2D23804838
:101C5800B8BF84F843307F4BD3E7636809F0DF01EE
:101C68005A1C42D106236360002206920EAACDE9CF
:101C780004920DAA4BF4806303920DF13302CDE96F
:101C880001322360636842460093284653460B910D
:101C9800FFF7D4FE0B99804647290D9908D1C81C37
:101CA80002DB6368994240DDA9F102095FFA89F90C
:101CB800B9F1650F1FD84A46013904F150000D915A
:101CC800FFF71BFF0E9A82461318012A236102DCD4
:101CD8002268D20701D5013323619DF83330002BE8
:101CE8009BD02D2384F8433097E74729BCD1002B9C
:101CF800BAD10123B7E7B9F1660F18D10029636893
:101D08000BDD216113B92268D00702D501330B44DA
:101D180023614FF0000AA165DFE713B92268D207F3
:101D280001D50233F4E70123F2E74FF067090E9B70
:101D3800994205DB23682161D807EAD54B1CE7E700
:101D48000029CCBF0122C1F102021344E0E7236855
:101D58005A0507D42369424631462846B847013018
:101D68002BD164E7B9F1650F40F2DD80D4E91201A7
:101D780000220023FFF7ECFD002833D00123314671
:101D88002846354AB84701303FF451AFDDE90D2305
:101D98009A4202DB2368D8070FD5DDE909233146CB
:101DA8002846B84701303FF442AF4FF0000804F12D
:101DB8001A090E9B013B434509DC23689B0700F188
:101DC8000281E0680F9B9842B8BF184631E70123AB
:101DD8004A4631462846B84701303FF428AF08F153
:101DE8000108E6E70D9B002B38DC01233146284625
:101DF800194AB84701303FF41AAFDDE90D23134300
:101E080002D12368D907D8D5DDE909233146284608
:101E1800B84701303FF40BAF4FF0000904F11A0A3C
:101E28000D9B5B424B4501DC0E9B94E70123524618
:101E380031462846B84701303FF4F9AE09F10109A7
:101E4800EEE700BFFFFFEF7F875900088B590008B6
:101E5800935900088F590008975900080E9AA36DE6
:101E68009A42A8BF1A46002A914637DC4FF0000B69
:101E780029EAE97904F11A02D4F858A0AAEB09036F
:101E88005B4533DCDDE90D239A423BDB2368DA0747
:101E980038D40E9A0D99A2EB0A03A2EB01099945D1
:101EA800A8BF9946B9F1000F34DC4FF0000829EAC1
:101EB800E97904F11A0ADDE90D239B1AA3EB09035A
:101EC80043457FF77AAF0123524631462846B84743
:101ED80001303FF4ACAE08F10108ECE71346314697
:101EE80042462846B8470130C0D1A0E60123314612
:101EF80028460B92B84701303FF499AE0B9A0BF184
:101F0800010BB9E73146DDE909232846B847013016
:101F1800BFD18CE64B463146284608EB0A02B84743
:101F28000130C2D183E60E9A012A01DCDB0737D5DE
:101F38000123424631462846B84701303FF477AE80
:101F4800DDE9092331462846B84701303FF46FAE32
:101F5800D4E9120100220023FFF7FAFCD8B90E9B3E
:101F680008F10102013B31462846B84701300ED13D
:101F78005DE601234A4631462846B84701303FF41A
:101F880056AE08F101080E9B013B4345F1DC534670
:101F980004F15002E0E64FF0000804F11A09F2E7F4
:101FA80001234246DFE701234A4631462846B8471F
:101FB80001303FF43CAE08F10108E3680F995B1A61
:101FC8004345F0DCFDE64FF0000804F11909F4E799
:101FD8002DE9F047164699468A680B6907469342E9
:101FE800B8BF1346336091F843200C46DDF82080D3
:101FF8000AB1013333602368990642BF336802335C
:102008003360256815F0060506D104F1190AE3685E
:1020180032689B1AAB4228DC94F84320131E2268CE
:1020280018BF012392062DD44946384604F14302CD
:10203800C047013020D02368E56803F00603042B6D
:1020480018BF002532684FF00006A36808BFAD1A14
:10205800226908BF25EAE5759342C4BF9B1AED18AB
:102068001A34B5421AD1002008E0012352464946E5
:102078003846C047013003D14FF0FF30BDE8F08744
:102088000135C4E73020E11881F843005A1C94F860
:1020980045102244023382F84310C5E70123224643
:1020A80049463846C0470130E6D00136D9E7000036
:1020B8002DE9FF470C46277E9146782F80469A46A1
:1020C8000C9904F1430207D8622F0AD8002F00F0B8
:1020D800D980582F00F0A48004F1420684F8427099
:1020E8003AE0A7F16303152BF6D801A050F823F0C6
:1020F8005121000865210008E1200008E1200008BE
:10210800E1200008E120000865210008E12000081E
:10211800E1200008E1200008E120000873220008FF
:102128009521000855220008E1200008E120000858
:1021380095220008E120000895210008E120000808
:10214800E12000085D2200080B6804F142061A1D10
:102158001B680A6084F842300123A4E025680868F7
:102168002E0600F104030AD505680B60002D03DA7A
:102178002D236D4284F843300A235E4819E015F098
:10218800400F05680B6018BF2DB2EFE70B68256894
:10219800181D0860280601D51D6802E06906FBD5F0
:1021A8001D886F2F0CBF08230A235248002184F88A
:1021B80043106668002EA8BF2168A660A4BF21F05E
:1021C800040121600DB9002E4DD01646B5FBF3F180
:1021D80003FB1157C75D06F8017D2F46BB420D462C
:1021E800F4D9082B0BD12368DF0708D52369616868
:1021F8009942DEBF302306F8013C06F1FF36921BF8
:1022080022614B4621464046CDF800A003AAFFF7BD
:10221800DFFE01304CD14FF0FF3004B0BDE8F0874D
:10222800344884F845700E68236856F8045B1F0626
:102238000E6014D5D90744BF43F0200323601DB9AD
:10224800236823F0200323601023AFE7236843F0BB
:10225800200323607823284884F84530E3E75E06A6
:1022680048BFADB2E6E71646BBE70B6826681D1DFA
:1022780060690D6035061B6801D5186002E07106BB
:10228800FBD51880002316462361BAE70B681A1D90
:102298000A601E6800213046626802F011FB08B12E
:1022A800801B606063682361002384F84330A8E7DB
:1022B8003246494640462369D0470130ABD02368AF
:1022C8009B0713D4E068039B9842B8BF1846A4E75D
:1022D8000123324649464046D04701309BD001355C
:1022E800E36803995B1AAB42F2DCEBE7002504F1E3
:1022F8001906F5E799590008AA5900082DE9F04F81
:1023080087B003938B6817465A1EB2F5AE7F85BF18
:102318006FF4AE755B190023029388BF40F25D131A
:102328008B464FF000058CBF8B6002930B6880468C
:1023380043F4F0634BF81C3B0C465E46AA46A9469C
:10234800CDE904550195A26852B13B681B784E2B24
:1023580064D8402B3CD8A3F12B01C8B20E283AD937
:10236800B9F1000F03D0236823F4807323600AF1C6
:10237800FF3ABAF1010F00F213815E4500F20581C0
:102388000125284607B0BDE8F08FA3F161020D2AA8
:10239800E6D801A151F822F0DF24000869230008DB
:1023A80069230008692300083F250008172500084D
:1023B8006923000869230008ED2400086923000840
:1023C800692300086923000869230008A524000878
:1023D800A3F14102DBE70E29C2D801A050F821F091
:1023E8009724000869230008972400082B25000873
:1023F8006923000845240008812400088124000876
:102408008124000881240008812400088124000810
:102418008124000881240008812400086E2B09D833
:10242800602BB2D8542B77D0592B99D1072D97D13F
:10243800082529E0742B6FD0792BF6E72168C805A9
:102448001AD5029B21F08001216009F101091BB115
:10245800013B01320293A260A368013BA360236998
:10246800013323617B68013B002B7B6040F3848050
:102478003B6801333B6066E71AEB050F7FF470AFEA
:10248800226822F4C072226006F8013BE4E7226861
:1024980010067FF565AF22F08002F4E7BAF1000F6D
:1024A8000ED1B9F1000F0ED1226802F4E061B1F546
:1024B800E06F08D122F4F0624FF0010A2260E3E7EE
:1024C800BAF1020F55D0012D02D0042D7FF448AF88
:1024D8000135EDB2D8E7BAF1010F7FF441AF4FF003
:1024E800020AD1E77DB9B9F1000F7FF43CAF226849
:1024F80002F4E061B1F5E06F7FF439AF22F4F062E5
:1025080001252260C0E7032DE2D0052DDEE7022D6C
:102518007FF426AF0325B7E7062D7FF421AF072503
:10252800B2E7226891057FF51BAF22F42072226082
:10253800CDF80490A8E7226802F4A061B1F5806F95
:1025480006D050057FF50CAFB9F1000F3FF40FAF7F
:10255800910558BF019922F4F06258BFA9EB010117
:1025680042F4C0724FF0000958BFCDE9041622604A
:102578008AE74FF0030A87E739464046D4F88031A6
:10258800984700283FF4DFAEEAE6D4F87C313A46B3
:10259800404616F8011D98472369013B2361ECE684
:1025A8006B1E062B25D8022D36D85E457FF6E8AE81
:1025B800D4F87C313A46404616F8011D98472369FD
:1025C800013B2361F1E70298D4F87C3110F8011D32
:1025D8003A460290404698472369013B23610AF135
:1025E800FF3A5FFA8AFABAF1020FECD1033DEDB275
:1025F800761B2368DA052FD55B0510D55E457FF677
:10260800BFAED4F87C313A46404616F8011D9847CB
:102618002369013B2361F1E7AA460296DFE716F832
:10262800011C2369652903F1FF3306F1FF35236196
:102638000CD045290AD0D4F87C313A464046984710
:10264800236916F8021C013BB51E23613A46404631
:10265800D4F87C3198472E46256815F0100559D1D5
:102668003570236803F4C063B3F5806F1CD1019BF8
:102678004B45A3EB090224D100225946404600F0FD
:102688008FFED4F800C0039B1CF0020F06460F46CD
:102698001B6821D003991A1D0A601B68C3E90067EB
:1026A800E3680133E3606CE6049B002BE4D00599F2
:1026B8000A232A464046013100F0F2FE049B059E9B
:1026C800C21A04F26F139E4228BF04F5B77630464B
:1026D800114900F029F8CFE71CF0040F03F1040EAC
:1026E80003D00399C1F800E0D7E7039AC2F800E0E5
:1026F800D3F8008002460B4602F0C6FF28B107480F
:1027080000F00EF8C8F80000CAE73046394602F073
:10271800F1FFF7E7002534E6BB590008395C0008EB
:10272800004870470000C07F0EB46FF0004100B54C
:102738009CB01DAB02900690079104910848094986
:1027480053F8042B0591006802A9019302F010FECA
:102758000022029B1A701CB05DF804EB03B07047AE
:10276800180000200802FFFF034613F8012B002A77
:10277800FBD1181A013870472DE9F0410F469046F1
:1027880002F0AAFB04460D46B8F1000F11D0C7F3BA
:102798000A53C3F16B03002B0BDD00241B0503F167
:1027A8007F5505F5401522462B46FEF769FE04467F
:1027B8000D4620462946BDE8F081000000000000D3
:1027C8002DE9F04F9B460023A1B01C939E4B8246F7
:1027D8001F680E4638461792FFF7C6FF4FF00008ED
:1027E80004464FF000091B961B9B1A782B2A4CD0E5
:1027F8003AD80D2A33D8082A33D8002A3DD00023E6
:102808000C931B9D2B78302B40F0A9806B7803F03C
:10281800DF03582B66D10C9B504601931CAB0093E9
:102828008A4ACDF808B01DAB1BA901F03FFD10F096
:102838000706044605D0062E29D1002301351B952D
:102848000C93179B002B40F092850C9BD3B142460A
:1028580009F100431046194621B0BDE8F08F202A3F
:10286800CDD101331B93BFE72D2AC8D101220C9289
:102878005A1C1B925B78002BC3D1179B1B96002B0D
:1028880040F0738542464B46E4E70022EFE71C9A86
:102898003AB135211EA802F016FC50461C9902F0E8
:1028A80051F8013E042E06D8DFE806F00A03141793
:1028B8000A00DDE91E892107C3D549F00049C0E7B0
:1028C8001D9ADDE91E8302F2334223F4801343EAA2
:1028D8000259F0E7DFF87891EDE76FF000494FF023
:1028E800FF38E8E71B9B5A1C1B925B78302BF9D00A
:1028F800002BA6D0012307931B9B0A2208930023D1
:102908009B46CDE905331B980578A5F13003D9B26C
:10291800092926D92246394602F040FE002832D03D
:1029280000202B465C4602460490652B01D0452BBF
:1029380013D11CB9079B03439FD000241B9E731C13
:102948001B9373782B2B78D02D2B7BD00027A3F1EA
:102958003001092940F282801B9600259EE0002361
:10296800C9E7BBF1080FD5BF0699059902FB0133EA
:1029780002FB013300F10100D4BF069305930BF16C
:10298800010B1B90BFE71B9B1A191B921B5DBBF128
:10299800000F36D05C460490A3F13002092A12D900
:1029A8000122C2E71B9B01305A1C1B925B78302B1B
:1029B800F8D0A3F13102082A00F2DE840490002046
:1029C80004461B9A0892303B00F1010213D0049987
:1029D80005191144049122460A21954213D122185F
:1029E800082A04F1010404441BDC0A22069902FBAC
:1029F8000133069300221B9B1046591C1B915B78E0
:102A0800CAE75846D3E7082A04DC069F4F430697CF
:102A18000132E2E7571C102FDEBF059F4F43059791
:102A2800F6E7102CDFBF0A22059902FB0133059354
:102A3800E0E70023012204937CE70027B31C1B93E3
:102A4800B37884E70127F9E7205B0008C05900083C
:102A58000000F07F1B9B591C1B915B78302BF9D031
:102A6800A3F1310108293FF678AF4FF00A0EA3F120
:102A7800300C1B9B09931B9B591C1B915B78A3F182
:102A88003005092D35D9099D491B082944F61F65CC
:102A980002DC6545A8BF654607B16D42002C4CD1E4
:102AA800079901437FF4CDAE002A7FF4E6AE692B87
:102AB80026D023DC492B23D04E2B7FF4DEAE9C4955
:102AC8001BA801F02FFE00283FF4D7AE1B9B1B78F4
:102AD800282B2CD197491EAA1BA801F037FE0528E0
:102AE80025D11F9BDDF8788043F0FF4949F4E009C0
:102AF800A7E60EFB0C3CACF1300CBCE76E2BDCE718
:102B08008D491BA801F00EFE00283FF4B6AE1B9BB2
:102B18008A49013B1BA81B9301F004FE10B91B9BBB
:102B280001331B934FF00008DFF8209289E68448B0
:102B380002F02EFD8046894683E6049BBBF1000F18
:102B480008BFA346EB1A102C069826460793A8BF81
:102B58001026FEF71BFC092C8046894613DD794BAD
:102B680003EBC60353E91223FEF78AFC8046059857
:102B78008946FEF70BFC02460B4640464946FEF7DF
:102B8800C9FA804689460F2C36DC079B002B3FF498
:102B980058AE22DD162B09DC6A4C424604EBC3040E
:102BA8004B46D4E90001FEF76BFCC3E7079AC4F172
:102BB8002503934220DB634DC4F10F0405EBC401E8
:102BC8004246D1E900014B46FEF75AFC079B1C1B05
:102BD80005EBC405D5E90023E5E7079B16330BDBB6
:102BE800049B584A5D1B02EBC5054046D5E9002306
:102BF8004946FEF76FFD9DE7079BA61B1E44002E66
:102C080071DD16F00F030AD04E49424601EBC301AD
:102C1800D1E900014B46FEF733FC8046894636F081
:102C28000F0650D0B6F59A7F27DD4FF0000BCDF890
:102C380010B0CDF820B0CDF818B022234FF000081E
:102C4800DFF80891CAF80030089B002B3FF4F9AD73
:102C580050461C9901F076FE5046069901F072FE26
:102C68005046049901F06EFE5046089901F06AFE3C
:102C78005946504601F066FEE3E5002340464946C2
:102C88001F463611012E21DC0BB1804689462E4B9A
:102C9800A9F1547903EBC7074246D7E900014B462F
:102CA800FEF7EEFB294B0A460B40294980468B422A
:102CB800BBD8A1F580118B4286BF4FF0FF38DFF8F3
:102CC800949002F15479002305937EE0F20707D52A
:102CD8001D4B03EBC703D3E90023FEF7D1FB012308
:102CE80001377610CEE7EED0764216F00F020AD002
:102CF800144B404603EBC2034946D3E90023FEF7D1
:102D0800E9FC804689463611DDD01F2E24DD4FF0C0
:102D1800000BCDF810B0CDF820B0CDF818B02223B4
:102D28004FF000084FF00009CAF800308CE700BFE8
:102D380094590008D45900088C590008145B0008FD
:102D4800395C0008605B0008385B00080000F07F11
:102D58000000A07CFFFFEF7F16F0100318BF6A2366
:102D68004046059349460023B24FF20704D5D7E9F8
:102D78000023FEF785FB0123761007F10807F4D13D
:102D88000BB180468946059BBBB1C9F30A53C3F111
:102D98006B03002B494610DD1F2B40F32B81342B8E
:102DA800D8BF4FF0FF324FF00008CFBF4FF05C792B
:102DB800203B02FA03F303EA0109002200234046FC
:102DC8004946FEF7C5FD0028A1D1069B5A46009347
:102DD80050462346089901F00AFE089000283FF45F
:102DE80024AF049B4FF0000B5D1B079BCDF810B080
:102DF800002BB4BF2B4600230E93079B23EAE373F3
:102E08001693089B5046596801F068FD0690002803
:102E18003FF413AF089B0C301A6903F10C0102321E
:102E28009200FEF7F5FD1EAB01931DAB00934246E1
:102E38004B465046CDE90A8902F0C8F81C90002894
:102E48003FF4FBAE0121504601F05DFE03460490BD
:102E580000283FF4F2AE1D9D1E9A002DABBF0E9BBD
:102E6800169BEE185C1B059BA8BF169CA5EB0305DB
:102E78001544714B05F1FF35B8BF0E9E9D42C2F156
:102E8800360280F2C9805B1B1F2B4FF00107A2EBB3
:102E9800030200F3B680002507FA03F30F93B7186F
:102EA800059BBE4214441C443346A8BF3B46A3427C
:102EB800A8BF2346002BC2BFFF1AE41AF61A0E9BBE
:102EC800002B17DD1A465046049901F0C1FE049004
:102ED80000283FF4B2AE01461C9A504601F01CFE91
:102EE800099000283FF4A9AE50461C9901F02AFD2C
:102EF800099B1C93002F00F39380079B002B08DD90
:102F08005046169A069901F0A3FE069000283FF451
:102F180094AE002C08DD22465046069901F0E6FEE4
:102F2800069000283FF489AE002E08DD3246504650
:102F3800049901F0DBFE049000283FF47EAE504671
:102F4800069A1C9901F04CFF834600283FF475AEA1
:102F58000024C3680499C4600D9301F026FFA042C1
:102F680070DA0D9B53EA080340F09680C9F3130307
:102F7800002B40F0918029F000431B0D1B05B3F195
:102F8800D66F40F28980DBF8143023B9DBF81030B3
:102F9800012B40F3818059460122504601F0A6FEDC
:102FA8000499834601F001FF002875DD05994B4619
:102FB800224A002900F0918002EA0901B1F1D66F96
:102FC80000F38B80B1F15C7F7FF7A9AE00231C4A28
:102FD8004046CDE914324946DDE91423FEF750FA9C
:102FE8000B46034308BF22238046894608BFCAF818
:102FF80000302DE64FF0FF3202FA03F303EA080827
:10300800DBE6C5F17F4505F57F0505F57B45E2352E
:1030180007FA05F50F9742E7012300250F933EE7CE
:103028003A4650461C9901F061FE1C9000287FF436
:1030380064AF02E6E859000802FCFFFF0000F07FD9
:1030480000005039CDF8249066D10D9AC9F31303C6
:103058005AB39D4A93422CD1059B404603B34B4635
:103068009A4A4FF0FF311A40B2F1D46F1BD8120DB3
:10307800C2F16B0301FA03F398421AD1944B099AEF
:103088009A4202D101303FF4D8AD4FF000088F4B7F
:10309800099A1A4002F58019059B002B96D1D7E5AD
:1030A8004FF0FF33E8E70B46E6E753EA08033FF43F
:1030B8007DAFE5B1099B1D42EED00D9B40464946C8
:1030C800059AC3B1FFF758FB02460B46DDE90A0132
:1030D800FEF720F880468946DEE71340A3F5801303
:1030E8006FEA13594FF0FF386FEA0959D4E70F9B7D
:1030F80013EA080FE0E7FFF73FFB02460B46DDE95E
:103108000A01FEF705F80022002380468946FEF7EB
:103118001FFC0028C0D002E65846049901F0A5FF1C
:1031280000224FF0804306460F46FEF725FC002894
:1031380075D00D9B002B47D00026664F654D099B27
:1031480023F000431B0D1B050F930F9A624B9A4205
:1031580040F0CA80DDE90A23CDE91423099B4046E3
:10316800A3F15479494601F0B7FE02460B463046B2
:103178003946FEF785F942464B46FDF7CBFF0B462D
:103188005249564A1940914280465ED90B9B02F13A
:103198005472934203D10A9B01333FF44EAD4FF072
:1031A800FF38DFF82C9150461C9901F0CBFB5046B4
:1031B800069901F0C7FB5046049901F0C3FB594634
:1031C800504601F0BFFB1CE6B8F1000F19D1099B6E
:1031D800C3F31303E3B90022304639463D4BFEF7EB
:1031E800C1FBC8B90022304639463D4BFEF748F9C5
:1031F80004460D4605F1004318941993DDE9186754
:103208009DE7B8F1010F03D1099B002B3FF487AD6F
:1032180000260024334F91E70D9C314DEAE7304BEF
:10322800002230463946FEF72BF90D9B04460D4621
:1032380033B901F1004310901193DDE910677EE77F
:1032480002460B46CDE91023F7E703F15479059BB5
:10325800002BA8D129F000430F9A1B0D1B059A4299
:10326800A1D12046294602F095FAFEF7DBF802467E
:103278000B4620462946FDF74BFF0D9AC9F3130369
:1032880043EA0803134304460D4668D00AA3D3E96A
:103298000023FEF767FB00287FF4DAAC08A3D3E924
:1032A800002320462946FEF77BFB00283FF47BAF2E
:1032B800CEE400BFAFF300809535A094FFFFDF3F59
:1032C80035E5AF350000E03FFFFF0F000000F07F5D
:1032D800FFFFEF7F0000F03F0000E07FFFFF9F7CD3
:1032E8000000E03F0000F0BF059B13B30F9BB3F154
:1032F800D46F1ED826A3D3E9002320462946FEF71B
:103308003BFB90B12946204602F0D4F9012838BF8A
:103318000120FEF73BF80D9B04460D46D3B901F199
:10332800004312901393DDE912670F9A07F1D663F1
:103338009F1ADDE90A0101F0CFFD02460B4630462F
:103348003946FEF79DF8DDE90A23FDF7E3FE8046DE
:1033580089467CE702460B46CDE91223E3E70EA334
:10336800D3E90023FEF7FEFA9FE700230C931B9B8B
:10337800179A1360FFF769BA652B3FF45AAB452BD0
:103388003FF457AB0122FFF78BBB00BFAFF30080C0
:103398000000C0FFFFFFDF419535A094FFFFCF3F3E
:1033A800014BFFF70DBA00BF800000202DE9F04760
:1033B8008C468646394E60461CF8014BA55D15F0D3
:1033C8000805F8D12D2C33D14FF001089CF80040A6
:1033D80000F1020C002B5CD0102B0CD1302C0AD140
:1033E8009CF8000000F0DF0058284DD110239CF80D
:1033F80001400CF1020C002608F10047013FB7FB21
:10340800F3F9304603FB197AA4F13005092D18D8D1
:103418002C46A34224DD751C07D081451DD301D15C
:10342800A2451ADB012600FB03401CF8014BEBE721
:103438002B2C08BF9CF80040A84608BF00F1020CDE
:10344800C8E7A4F14105192D01D8373CE1E7A4F1FB
:103458006105192D04D8573CDBE74FF0FF36E4E748
:10346800731C06D122233846CEF8003042B9BDE895
:10347800F087B8F1000F00D04042002AF7D00EB113
:103488000CF1FF311160F2E73024002BB3D108238F
:10349800B1E7302CA4D00A23ADE700BF115A0008C9
:1034A800FFF784BF30B5141E05469BB0184605DAF1
:1034B8008B234FF0FF302B601BB030BD4FF40273ED
:1034C800ADF80C300CBF234604F1FF33029305938B
:1034D8004FF6FF73024600910491ADF80E3069462D
:1034E8001E9B284601F044FF431CBCBF8B232B6066
:1034F800002CE1D00022009B1A70DDE707B500938D
:1035080013460A46014603480068FFF7CBFF03B09D
:103518005DF804FB180000202DE9F74F03690C69DA
:103528000746A342C0F28380013C00F1140501F173
:10353800140805EB8403019358F8243055F8242027
:1035480001339A42B2FBF3F64FEA840B08EB840985
:1035580032D34FF0000E4046AC46F24650F8042BEA
:1035680093B206FB03E3120C4FEA134E06FB02E28A
:103578009BB2AAEB0303DCF800A04FEA124E1FFA35
:103588008AFA53441FFA82FADCF800208145CAEB14
:10359800124202EB23429BB243EA02434FEA224A19
:1035A8004CF8043BDAD255F80B302BB9019B043B9D
:1035B8009D421A462FD33C61384601F0F6FB00289D
:1035C80025DB28464FF0000C013658F8041BD0F8CC
:1035D80000E08BB2ACEB03031FFA8EF213440A0C23
:1035E800C2EB1E4202EB23429BB243EA0243C145AF
:1035F8004FEA224C40F8043BE7D255F8242005EB6B
:10360800840322B9043B9D421A460AD33C613046E2
:1036180003B0BDE8F08F1268043B002ACBD1013C0F
:10362800C6E71268043B002AF0D1013CEBE7002012
:10363800EEE70000000000002DE9F04F16461F4697
:10364800446A99B00546CDE90467DDF894803CB931
:10365800102001F01BF9C0E9014468620460C460ED
:103668006B6A196851B15A68012393404A608B60AC
:10367800284601F067F900226B6A1A603B1EAFBF4B
:103688000023012223F000430593A8BFC8F80030A7
:10369800DDF81490AC4BB8BFC8F8002033EA090332
:1036A80019D142F20F73249A1360C9F313033343F9
:1036B80000F06C85269B53B9A44B23E0A44B0393DD
:1036C8000833269A1360039819B0BDE8F08F9F4B12
:1036D80003930333F5E7DDE90434CDE90C34DDE980
:1036E8000C0100220023FEF733F9804660B1012364
:1036F800249A1360269B002B00F04585954B269A4B
:103708001360013B0393DEE716AB019317AB0093FD
:103718002846DDE90C2301F059FCC9F30A54834615
:10372800002C7FD0DDE90C010D9BA4F2FF34C3F31C
:10373800130343F07F5141F44011CDF84C8000222F
:10374800854BFDF7E5FC7AA3D3E90023FDF798FE46
:1037580079A3D3E90023FDF7DDFC064620460F4692
:10376800FDF724FE76A3D3E90023FDF789FE024680
:103778000B4630463946FDF7CDFC06460F46FEF7A8
:1037880019F900228246002330463946FEF7EAF846
:1037980048B15046FDF70AFE32463B46FEF7D8F8D8
:1037A80008B90AF1FF3ABAF1160F58D8DDE90C0149
:1037B8006A4B03EBCA03D3E90023FEF7D3F80028CA
:1037C8004FD000230AF1FF3A0F93169B1C1B631E70
:1037D800099349BFC4F1010300230693002354BF92
:1037E80006930993BAF1000F3DDB099BCDF838A089
:1037F8005344099300230A93229B092B00F2B480B7
:10380800052BC4BF043B2293229BC8BF0024A3F10D
:103818000203D8BF0124032B00F2B280DFE803F0D3
:103828002D7C7AA2DDE916431C4404F23243202B96
:10383800C3BFC3F1400304F2124009FA03F3C3F112
:103848002003C6BF26FA00F0184306FA03F0FDF776
:103858009DFD0123A1F1F871013C13936FE701234A
:10386800B2E70F90B1E7069BA3EB0A030693CAF1F0
:1038780000030A9300230E93BEE700230B93239BB8
:10388800002B00F380804FF001094B46CDF82090C3
:10389800CDF88C9000226E6A7260042202F1140046
:1038A8009842716875D9284601F018F86B6A30603B
:1038B8001B680393089B0E2B00F2EC80002C00F091
:1038C800E980BAF1000F78DD244A0AF00F0302EB11
:1038D800C3031AF4807FD3E90034CDE910344FEAEA
:1038E8002A145AD0DDE90C011D4B0327D3E908231C
:1038F800FDF7F0FECDE9040104F00F04184E002C8A
:103908004DD1DDE91023DDE90401FDF7E3FECDE942
:1039180004016CE00123B1E700230B93239B0AEB1E
:10392800030909F10103012B0893B8BF0123B1E78B
:1039380061436F63A787D23FB3C8608B288AC63FAD
:10394800FB799F501344D33F0000F07F1A5B0008B7
:10395800115B0008985900080000F83F605B0008F8
:10396800385B00080123D8E7012400230B94229335
:103978004FF0FF3900221223CDF82090239289E7D7
:1039880001230B93F4E7DDF88C904B46CDF820909B
:1039980080E701317160520080E70227AEE7E10756
:1039A80008D5DDE91001D6E90023FDF769FDCDE969
:1039B8001001013764100836A1E700F0A580DDE9A1
:1039C8000C01CAF10004A34B04F00F0203EBC2037D
:1039D800D3E90023FDF754FD02270023CDE90401B4
:1039E8009D4E2411002C40F08480002B8FD10F9B1A
:1039F800002B00F08B80DDE90434CDE91034DDE9DB
:103A080010010022954BFDF7ADFF00287ED0089BE2
:103A1800002B7BD0B9F1000F38DDDDE91001002261
:103A28008F4BFDF72DFD4C46CDE904010AF1FF3817
:103A380001373846FDF7BAFCDDE90423FDF720FD20
:103A48000022884BFDF766FBA1F15076CDE9100105
:103A58001196002C5DD1DDE904010022824BFDF7AF
:103A680057FB02460B46CDE904233346109AFDF76F
:103A780097FF002840F09782DDE90401109A06F1CB
:103A88000043FDF76FFF002840F08B82DDE90C341E
:103A9800CDE90434179B002BC0F25181BAF10E0F07
:103AA80000F34D816B4B03EBCA03D3E90034CDE936
:103AB8000634239B002B80F2DB80089B002B00F34D
:103AC800D78040F06D82DDE906010022664BFDF7E4
:103AD800D7FCDDE90423FDF759FF089C264600289A
:103AE80040F043823123039F0AF1010A07F8013BA2
:103AF8003FE2E20705D5D6E90023FDF7C1FC012323
:103B08000137641008366DE7022770E7D046089C35
:103B18008FE703994F4B214412910B9903EBC40390
:103B2800DDE9106753E90223002946D000204F49F8
:103B3800FDF7D0FD3B463246FDF7EAFACDE9100124
:103B4800039FDDE90401FDF735FF0446FDF72EFC70
:103B580002460B46DDE90401FDF7DAFA02460B4698
:103B68003034CDE90423DDE9102307F8014BFDF7D4
:103B7800F9FE002865D1DDE9042300203749FDF767
:103B8800C7FADDE91023FDF7EDFE002840F0B68006
:103B9800129B9F423FF47AAFDDE910010022304BBF
:103BA800FDF76EFC0022CDE91001DDE904012C4B84
:103BB800FDF766FCCDE90401C3E730463946FDF759
:103BC8005FFC129BCDE91001039C1493DDE904010D
:103BD800FDF7F0FE1590FDF7E9FB02460B46DDE91F
:103BE8000401FDF795FA159B0646303304F8013BAE
:103BF800129B0F469C424FF0000224D1DDE91001D0
:103C08001A4BFDF787FA02460B4630463946FDF750
:103C1800C7FE002871D1DDE9102300201349FDF704
:103C280077FA02460B4630463946FDF79BFE0028D8
:103C38003FF42CAF149F7B1E149317F8013C302BD4
:103C4800F8D0C24649E0064BFDF71AFCCDE904015D
:103C5800BCE700BF605B0008385B00080000F03F6D
:103C68000000244000001C40000014400000E03F19
:103C7800039FDDE90489DDE9062340464946FDF74F
:103C880029FDFDF797FE0446FDF790FBDDE90623C5
:103C9800FDF7F6FB04F130060B460246494640465E
:103CA800FDF736FA07F8016B039E089BBE1BB3426B
:103CB80038D102460B46FDF72DFADDE9062380468A
:103CC8008946FDF76DFE58BBDDE9062340464946A7
:103CD800FDF73EFE08B1E10722D42846594600F018
:103CE80031FE00233B70249B0AF101001860269BDB
:103CF800002B3FF4E8AC1F60E5E427463B461F462F
:103D080013F8012D392A07D1039A9A42F7D13022A4
:103D1800039908F101080A701A7801321A7090E7BD
:103D2800D046EBE70022A14BFDF7AAFB00220023B7
:103D380080468946FDF70CFE00289CD0CDE70B9AFB
:103D4800002A00F0CD80229A012A00F3AF80139A4E
:103D5800002A00F0A78003F233430A9C069F069AC4
:103D680001211A440692099A28461A44099200F039
:103D7800CAFE0646002F0CDD099B002B09DDBB425D
:103D8800A8BF3B46069AFF1AD21A0692099AD31A76
:103D980009930A9BF3B10B9B002B00F0A580002C24
:103DA80010DD31462246284600F052FF5A460146A9
:103DB8000646284600F0B0FE80465946284600F0E0
:103DC800C1FDC3460A9B1A1B04D05946284600F079
:103DD8003FFF83460121284600F095FE0E9B0446CE
:103DE800002B40F383801A460146284600F030FF36
:103DF800229B0446012B7CDD4FF00008236904EB6D
:103E08008303186900F031FEC0F12000099B1844B3
:103E180010F01F0000F08E80C0F12003042B40F347
:103E28008780C0F11C00069B074403440693099B46
:103E380003440993069B002B05DD59461A4628467C
:103E480000F054FF8346099B002B05DD21461A46E6
:103E5800284600F04BFF04460F9B002B6CD02146F0
:103E6800584600F0A2FF002866DA002359460A22C5
:103E7800284600F07EFD0B9B83460AF1FF3A002B93
:103E880000F08B81314600230A22284600F071FD9C
:103E9800B9F1000F064600F39180229B022B40F3F4
:103EA8008D8051E0169BC3F1360356E7089B5C1ED4
:103EB8000A9BA342B7BF0A9B1C1BE21A0E9BBEBFFC
:103EC8000A949B180E93089BB8BF0024002BBBBF15
:103ED800069B089A069F9F1AACBF089B00233EE7E3
:103EE8000A9C069F0B9E45E70A9A6EE7229B012BC8
:103EF80019DC049BBBB9059BC3F313039BB9059B52
:103F080023F000431B0D1B0583B14FF00108069BEE
:103F180001330693099B013309930E9B002B7FF411
:103F28006DAF012072E74FF00008F6E79846F4E716
:103F380080D018461C3076E7089B002B38DC229B83
:103F4800022B35DDDDF82090B9F1000F0DD12146A7
:103F58004B460522284600F00CFD0146044658460B
:103F680000F023FF00283FF7BDAD239B039F6FEAB6
:103F7800030A4FF000082146284600F0E3FC002E13
:103F88003FF4ABAEB8F1000F05D0B04503D04146C1
:103F9800284600F0D7FC3146284600F0D3FC9CE6C2
:103FA80000242646E1E7C24626469BE50000244059
:103FB8000B9BDDF82090002B00F0F680002F05DD2C
:103FC80031463A46284600F091FE0646B8F1000F01
:103FD80055D07168284600F081FC0746326906F121
:103FE8000C01023292000C30FDF712FD0122394615
:103FF800284600F07BFEB0460646039B0133089333
:10400800039B4B440A93049B03F001030993089B09
:104018002146013B58460493FFF77EFA0346414682
:104028003033069058460B9300F0BFFE3246814667
:104038002146284600F0D4FEC26807460B9B02BB07
:104048000146584600F0B1FE02460B9B3946284609
:10405800CDE90B3200F076FC229B0C9A089F43EACC
:104068000201099B0B430B9B0DD1392B29D0B9F1C8
:10407800000F01DD069B3133049A13707BE730464D
:10408800B9E70122E2E7B9F1000F06DB229941EA1C
:104098000909099959EA010120D1002AECDD59469C
:1040A80001222846089300F021FE2146834600F0AD
:1040B8007CFE0028089B02DCDED1DA07DCD5392B30
:1040C800D8D13923049A13703B461F4617F8012CA0
:1040D800013B392A50D001321A704CE7002A03DD1F
:1040E800392BEED00133C7E7089A0A9902F8013C48
:1040F8008A422AD0594600230A22284600F039FC71
:10410800B04583464FF000034FF00A024146284667
:1041180007D100F02EFC80460646089B0133089321
:1041280075E700F026FC3146804600230A2228461F
:1041380000F01FFC0646F0E7B9F1000FCCBF4F4670
:1041480001274FF00008039A1744594601222846D0
:10415800089300F0CBFD2146834600F026FE002898
:10416800B2DC02D1089BDB07AED43B461F4613F8EE
:10417800012D302AFAD0FEE6039A9A42A5D13123BE
:104188000AF1010A79E7134BFFF7BCBA269B002B0B
:104198007FF494AA104BFFF7B5BAB9F1000F03DC0E
:1041A800229B022B3FF7D0AE039F21465846FFF7CC
:1041B800B3F9039A00F1300307F8013BBA1A9145A5
:1041C800BADD594600230A22284600F0D2FB83466E
:1041D800EBE700BF97590008115B000803692DE958
:1041E800F043B3EB611F00F114044FEA611246DD9E
:1041F80011F01F0104EB830604EB82050CD129465C
:1042080000F11007B14235D39B1A9B00EA1E964273
:1042180038BF0023234415E0A14654F82270C1F1A9
:104228002008CF4005F1040E7645F44616D89B1AAF
:104238009A00043A0135AE4238BF0022A318A750AD
:1042480007B10433A342A3EB040208BF00234FEADB
:10425800A202026108BF4361BDE8F083DCF800C038
:104268000CFA08FC4CEA070749F8047B5EF8047B63
:10427800CF40D9E751F804CB47F804CFC2E723462B
:10428800E0E7A0F13003092B02D82038C0B270470C
:10429800A0F16103052B01D84738F7E7A0F14103E6
:1042A800052B01D82738F1E7002070472DE9F04F9A
:1042B8008BB00693BA4B02901B688B461846904603
:1042C8000393FEF751FA8246039BDBF80020034470
:1042D80013F8013C0793931CC2F1FF2202F57F02F9
:1042E800FE32D1181F4613F8010B01913028F8D07F
:1042F800FFF7C7FF044600283AD1524638460399CB
:1043080001F04CF90546002866D117F80A0007EBBA
:104318000A06FFF7B6FF002860D0334618781F4614
:10432800302803F10103F9D0FFF7ABFF0123B0FAFE
:1043380080F43546640901933A46164630780132CE
:10434800FFF79FFF0028F8D152463046039901F045
:1043580025F980B94DB906EB0A052A461646307884
:104368000132FFF78EFF0028F8D1AD1BAD0004E045
:1043780000242546E0E7002DF7D1337803F0DF036A
:10438800502B39D173782B2B2AD02D2B2CD04FF0D2
:104398000009711C0878FFF774FF431EDBB2182B65
:1043A8002AD8A0F1100211F8010FFFF76AFF431E87
:1043B800DBB2182B1BD9B9F1000F00D052421544BB
:1043C800CBF80010D4B1019B002B14BF002706279F
:1043D80038460BB0BDE8F08F3E4625460124CCE7B1
:1043E8004FF00009B11CD5E74FF00109FAE70A239D
:1043F80003FB0202103AD6E73146E1E72146F31BF8
:10440800013B072B50DC029800F068FA4FF0000BD4
:10441800044600F11409CAF10103CDF81090CDF853
:1044280004B00893B74242D3049F019B47F8043B6A
:10443800A7EB0907BF102761184600F016FB7F019C
:10444800D8F800603F1AB74265DDBF1B39462046E1
:1044580000F05CFE8246A8B14FF0010A7B1E59119C
:1044680059F8211003F01F020AFA02F20A4209D091
:10447800534505DD2046B91E00F048FE002847D107
:104488004FF0020A39462046FFF7A8FE3D44D8F807
:104498000830AB424DDA2146029800F053FA002367
:1044A800149AA327136093E701315B10A9E7731EE1
:1044B800079A059316F8013C934219D0BBF1200FD7
:1044C80007D1049B019A43F8042B049300239B46CD
:1044D800019316F8010CFFF7D4FE019B00F00F00C2
:1044E80000FA0BF0034301930BF1040B059B0DE05D
:1044F800059B089A1344BB42E0D3184652460399D9
:10450800099301F04BF8099B0028D7D11E4689E78B
:104518004FF0030AB6E709DAF71B21463A46029834
:1045280000F0E4FB0446ED1B00F114094FF0000A0B
:10453800ADE7D8F80400A8426EDD451BAE4231DC79
:10454800D8F80C30022B22D0032B24D0012B15D104
:10455800AE4213D1012E0BD1D8F80430069A622747
:10456800136001232361C9F80030149B1C602FE7F6
:104578002046711E00F0CAFD0028EDD121460298A0
:1045880000F0E0F90023149A5027136020E7159BE8
:10459800002BF3D1E0E7159B002BDDD1EEE700BF40
:1045A800205B00086F1EBAF1000F32D127B13946DF
:1045B800204600F0ABFD824601217B1159F82330DB
:1045C80007F01F0701FA07F71F424FF002072946B5
:1045D800204618BF4AF0020A761BFFF7FFFDD8F8FD
:1045E8000450BAF1000F48D0D8F80C30022B15D07F
:1045F800032B17D0012B09D11AF0020F06D0D9F8D6
:1046080000004AEA000A1AF0010F0ED147F010071D
:1046180033E04FF0010ACFE70127E2E7159BC3F12A
:1046280001031593159B002BF0D04FF0000CD4F824
:10463800109004F114034FEA890B03EB8901184623
:1046480053F8042BB2F1FF3F1CD001320260022F55
:1046580004F1140338D1D8F80020013AB2420AD143
:104668000122711153F8213006F01F0602FA06F6EE
:104678001E4218BF174647F02007149B1C60069B74
:104688001D60A5E6994243F804CCD8D8A36899459B
:1046980012DB61680298013100F020F98246226934
:1046A80004F10C01023292000C30FDF7B1F92146F9
:1046B800029800F047F9544623695A1C22610122E6
:1046C80004EB83035A61C2E722694A450BDD0121E5
:1046D8002046FFF783FDD8F808300135AB42FFF6D6
:1046E800DAAE0127C7E716F01F06FAD09B445BF83D
:1046F800040C00F0BAF9C6F12006B042E7DBF0E797
:10470800C2F10802920070B5C2F12006436804683D
:1047180003FA06F52C43D340046040F8043F88426E
:10472800F4D370BD30B50368013311F8014B14B9E7
:104738000360012030BD13F8012BA2F14105192DAA
:1047480098BF2032A242F0D00020F3E72DE9F04FC5
:1047580000250B6882465E1102EB860613F01F03E4
:1047680018BF0436371F9046B9463C46AB4687B05B
:104778000168019346F8045C02954A784B1C039340
:1047880042B3104605910492FFF77BFD00284FD1F4
:10479800049A0599202A18D8029B9B4513DD4C459D
:1047A80006D2072D04DC2A4649462046FFF7A8FF13
:1047B800444550D90023A4F1040944F8043C1D469B
:1047C8004C46CDF808B00399D7E7292A56D10231CB
:1047D800CAF80010BBF1000F50D04C4506D2072D87
:1047E80004DC2A4649462046FFF78AFF444534D967
:1047F8002346A8F1040253F8041B9F4242F8041F01
:10480800F9D23B1B23F0030304330134033EB442C3
:1048180088BF04230022434443F8042B9F42FBD261
:104828003B681BB9474527D101233B60052026E09B
:104838000135082D0BF1010B06DD4445C3D90023D2
:10484800012544F8043C043C226800F00F0040EACB
:1048580002122260B7E70825B5E7019B002BDFD0DD
:104868004FF0FF32C3F1200322FA03F356F8042C69
:104878001A4046F8042CD3E7043FD1E7042007B0D8
:10488800BDE8F08F0048704770010020024B0146D8
:10489800186800F0B7BC00BF1800002082B001B94A
:1048A80001A942B14BB113780B601278101E18BFE2
:1048B800012002B070471046FBE76FF00100F8E7EF
:1048C800034610B5C9B202449342184601D10020EC
:1048D80003E0047801338C42F6D110BD70B5466A06
:1048E80004460D463EB91020FFF7D0FFC0E9016627
:1048F80060620660C660666AF36883B1636ADB68F3
:1049080053F82500B8B9012101FA05F6721D2046B1
:10491800920000F01CFC60B1C0E901560EE02122B3
:104928000421204600F013FC636AF060DB68002B6A
:10493800E4D1002070BD026843F825200023C0E9B7
:104948000333F7E770B5466A05460C463EB91020B2
:10495800FFF79CFFC0E9016668620660C6603CB16B
:104968006B6A6268DB6853F82210216043F82240C2
:1049780070BD2DE9F04198460C4600230E690746A4
:1049880001F1140005680133A9B202FB01812D0C65
:104998004FEA114C02FB05C589B201EB05419E4265
:1049A8004FEA154840F8041BECDCB8F1000F1BD0A7
:1049B800A368B34212DC616838460131FFF78EFF05
:1049C8000546226904F10C01023292000C30FDF711
:1049D8001FF821463846FFF7B5FF2C4604EB86033F
:1049E8000136C3F8148026612046BDE8F0812DE920
:1049F800F843154609221F4608330C4693FBF2F389
:104A08000646012200219A4220DB3046FFF766FF66
:104A1800089B092D43614FF00103036119DD04F17F
:104A28000909C8462C4418F8013B01460A223046B9
:104A3800303BFFF79EFFA045F5D1A5F108044C4493
:104A48002D1B6319BB4207DBBDE8F8835200013117
:104A5800D9E709250A34F3E714F8013B01460A228D
:104A68003046303BFFF785FFEBE7020C12040346A4
:104A7800CAB90304102013F07F4F04BF1B0208308B
:104A880013F0704F04BF1B01043013F0404F04BFF4
:104A98009B000230002B05DB13F0804F00F1010072
:104AA80008BF202070470020E5E70368024613F09E
:104AB80007000BD0D90722D4980749BF5B089B0889
:104AC800012013605CBF02201360704799B209B9D6
:104AD80010201B0C13F0FF0F04BF1B0A0830190726
:104AE80004BF1B090430990704BF9B080230D9078B
:104AF80003D45B0800F1010003D013607047002065
:104B080070472020704710B50C460121FFF7E6FEDC
:104B180001224461026110BD2DE9F04F15460A6972
:104B28002B690C469A42BEBF0B462C461D46276988
:104B3800D5F81090A368616807EB0906B342B8BFBF
:104B4800013185B0FFF7CAFE00F114010B460022BF
:104B580001EB860843451DD304F1140305F1140243
:104B680003EB870702EB890302933B1B153B23F0FA
:104B78000303043304F11505AF4238BF042301933E
:104B8800029B0392934208D8002E5ADC066105B0B6
:104B9800BDE8F08F43F8042BDCE7B2F800A0BAF1C7
:104BA800000F24D089464FF0000C04F1140E5EF873
:104BB800045BD9F800B0ABB21FFA8BFB0AFB03B356
:104BC8004FEA154BD9F8005063444FEA154C0AFBDD
:104BD8000BC505EB13459BB243EA054377454FEAFE
:104BE800154C49F8043BE2D8019B41F803C0039BEC
:104BF8000432B3F80290B9F1000F20D08E464FF07E
:104C0800000A0B6804F1140CBCF80050BEF802B09E
:104C18009BB209FB05B5AA4443EA0A434EF8043B94
:104C28005CF8043BBEF800501B0C09FB03536745B6
:104C380003EB1A434FEA134AE6D8019D4B5104315E
:104C48009EE758F8043D002BA0D1013E9CE70000E8
:104C58002DE9F843154612F0030206460F4607D021
:104C6800214C013A002354F82220FFF782FE074620
:104C7800AD1035D0746A3CB91020FFF707FEC0E9C3
:104C8800014470620460C460D6F82480D8F80840F3
:104C98004CB940F271213046FFF735FF0023044636
:104CA800C8F8080003604FF00009EB070AD5394639
:104CB80022463046FFF730FF804639463046FFF738
:104CC80041FE47466D100BD0206838B92246214670
:104CD8003046FFF721FF2060C0F800900446E4E763
:104CE8003846BDE8F88300BF285C00082DE9F04786
:104CF8000C46074691462369496803EB6218A36886
:104D08004FEA621A08F10106B3423FDB3846FFF763
:104D1800E5FD0023054600F1140100F110021846D4
:104D2800534536DB20692AEAEA7A04F1140319F0BC
:104D38001F0901EB8A0103EB800C2ED08A46002262
:104D4800C9F1200E186800FA09F002434AF8042B4A
:104D580053F8042B9C4522FA0EF2F3D8ACEB04036B
:104D6800153B23F00303043304F11500604588BFA5
:104D78000423CA500AB108F10206013E384621460A
:104D88002E61FFF7DFFD2846BDE8F08701315B00A3
:104D9800BAE742F8040F0133C2E7043953F8042B89
:104DA8009C4541F8042FF9D8E7E703460A690069EA
:104DB80030B5801A0DD11433143103EB820401EBA2
:104DC800820154F8045D51F8042D954202D004D3B1
:104DD800012030BDA342F4D3FBE74FF0FF30F8E7E2
:104DE8002DE9F84F0C460646114620469246FFF735
:104DF800DCFF051E08D129463046FFF76FFD012369
:104E0800C0E90435BDE8F88FA4BF5346A246304632
:104E1800DAF80410A6BF1C4600250125FFF75EFD41
:104E280000F11408DAF81070C5600AF110020AF1EE
:104E380014054FF0000CC246266904F1140905EB6D
:104E4800870E09EB860652F804BF59F8043B1FFA8F
:104E58008BF161441FFA83FC1B0CA1EB0C01C3EB23
:104E68001B4303EB214389B24FEA234C4E4541EAE9
:104E780003434AF8043BE6D8331B153B23F00303EE
:104E880015340433A64238BF04231D4443441E4648
:104E98002C4674450ED30EF10302521B22F0030276
:104EA800033DAE4538BF00221A4452F8043D8BB189
:104EB8000761A7E754F8048B1FFA88F262441114BB
:104EC80001EB184192B242EA01424FEA214C46F8FE
:104ED800042BDEE7013FE8E7114B0B40A3F15073C9
:104EE800002B02DD0020194670475B42B3F1A07F1A
:104EF8004FF000004FF000014FEA235204DA4FF45C
:104F0800002343FA02F17047A2F114031E2BD6BF07
:104F18004FF00042012322FA03F31846704700BFFE
:104F28000000F07F2DE9F843076900F1140909EB47
:104F3800870757F8046CA7F104083046FFF795FD7A
:104F4800C0F120030A280B601F4917DCC14528BFA0
:104F58000022C0F10B0C26FA0CF338BF57F8082CC6
:104F680043EA010500F1150306FA03F322FA0CF2ED
:104F780043EA020420462946BDE8F883C1452EBF0E
:104F8800002257F8082CA7F10808B0F10B0316D037
:104F9800C3F1200722FA07F1C84506FA03F646EAE4
:104FA800010694BF002158F8041C46F07F5502FA08
:104FB80003F0F94045F4401540EA0104DAE71446E5
:104FC80046EA0105D6E700BF0000F03F2DE9F341AE
:104FD8001C46DDE9086501219046FFF77FFCC4F314
:104FE8001303C4F30A5407462CBB0193B8F100031A
:104FF80026D068460093FFF758FD0099F0B1019A52
:10500800C0F1200302FA03F30B43C2407B61019213
:10501800019B002B14BF02210121BB613961C4B17E
:10502800A4F233440444C0F13500346028603846A3
:1050380002B0BDE8F08143F48013D6E77961E7E771
:1050480001A8FFF732FD0121019B39617B61203006
:10505800E5E707EB8103A0F2324030601869FFF7FB
:1050680004FDC0EB41112960E1E72DE9F74F8846BF
:1050780069468146FFF756FF0F4604460D464046EF
:1050880001A9FFF74FFFD9F81030D8F810208B4648
:10509800A3EB020CDDE900329B1A03EB4C13002B47
:1050A800D5BF0A462A46C3EB033302EB0357D8BFE2
:1050B80002EB035B5B46024639462046FCF70AFBD7
:1050C80003B0BDE8F08F013970B549111469013199
:1050D80002F1140300EB810103EB8404051FA342D2
:1050E8000CD3A31A113B23F003031132A24288BF49
:1050F800002318440023884205D370BD53F8046B7D
:1051080045F8046FEBE740F8043BF4E700F11402BC
:1051180000694B11984210B511DB0ADD11F01F012F
:1051280007D052F8234024FA01F000FA01F18C422A
:105138000BD102EB8303934203D8002010BD034632
:10514800F7E753F8041D0029F5D00120F6E738B534
:1051580002FB01F5294600F055F8044618B12A4625
:105168000021FCF763FC204638BD000038B5054631
:10517800002943D051F8043C0C1F002BB8BFE41899
:1051880000F046FA1E4A1368104633B9636014608B
:105198002846BDE8384000F041BAA3420AD9216840
:1051A8006218934201BF1A685B68521822606360F4
:1051B8000460EDE71A465B680BB1A342FAD911689F
:1051C8005018A0420BD12068014450188342116046
:1051D800DED118685B68014411605360D8E702D9D2
:1051E8000C232B60D4E7206821188B4201BF196873
:1051F8005B680918216063605460C9E738BD00BF67
:105208007C020020F8B5CD1C25F0030508350C2DCF
:1052180038BF0C25002D064601DBA94203D90C2313
:1052280033600020F8BD00F0F3F921490A681446FC
:105238009CB9204F3B6823B92146304600F098F9C5
:1052480038602946304600F093F9431C23D10C23DB
:105258003046336000F0E2F9E3E723685B1B17D4BC
:105268000B2B03D923601C44256004E06368A24229
:105278000CBF0B605360304600F0D0F904F10B000E
:10528800231D20F00700C21ACCD01B1AA350C9E76F
:1052980022466468CCE7C41C24F00304A042E3D08F
:1052A800211A304600F064F90130DDD1CFE700BFA4
:1052B8007C020020800200202DE9F0478E6882469B
:1052C8009E420C4690461F4638D88A8912F4906F41
:1052D80032D0256809690133A5EB010965694B449A
:1052E80005EB450505EBD5756D109D4238BF1D468C
:1052F800530531D52946FFF785FF064650B90C23DB
:105308004FF0FF30CAF80030A38943F04003A3816F
:10531800BDE8F0874A462169FCF77AFBA38923F4A4
:10532800906343F08003A38126614E4426603E4685
:105338006561A5EB0905A560BE4200D93E46324627
:105348004146206800F049F9A36822689B1B324453
:105358000020A3602260DBE72A4600F065F90646D4
:105368000028E1D150462169FFF700FFC7E7000098
:105378002DE9F04F98468B8907461B060D461446C3
:105388009DB00ED50B6963B94021FFF73BFF28603C
:10539800286120B90C233B604FF0FF30D1E0402357
:1053A8006B610023099320238DF8293030234FF0B7
:1053B8000109CDF80C80DFF8A4818DF82A30234646
:1053C8009A4613F8012B0AB1252AF9D1BAEB040B36
:1053D8000BD05B46224629463846FFF76DFF013061
:1053E80000F0AA80099A5A4409929AF80030002BD2
:1053F80000F0A28000234FF0FF32CDE905230AF127
:10540800010A049307938DF853301A9354460522E2
:1054180014F8011B5148FFF753FA049AD8B9D0067B
:1054280044BF20238DF85330110744BF2B238DF838
:1054380053309AF800302A2B15D0544600204FF0EC
:105448000A0C079A214611F8013B303B092B4ED92B
:10545800B0B1079214E0A0EB080309FA03F3134371
:10546800A2460493D2E7039B191D1B680391002BE6
:10547800BBBF5B4242F0020207930793B8BF049296
:1054880023782E2B0CD163782A2B35D1039B023439
:105498001A1D1B680392002BB8BF4FF0FF3305930A
:1054A800DFF8C8A0032250462178FFF709FA40B177
:1054B8004023A0EB0A0003FA00F0049B01340343E5
:1054C800049314F8011B062225488DF82810FFF7CD
:1054D800F7F9002838D0234B1BBB039B073323F075
:1054E800070308330393099B3344099367E70C4682
:1054F80001200CFB0232A5E700234FF00A0C1946E5
:1055080001340593204610F8012B303A092A03D9B3
:10551800002BC5D00591C3E7044601230CFB0121EC
:10552800F0E703AB00932A4638460F4B04A9FCF773
:1055380023FB421C0646D6D1AB895B063FF52CAF50
:1055480009981DB0BDE8F08F03AB00932A46384692
:10555800054B04A9FCF7ACFDEBE700BF345C000881
:105568003E5C0008811B0008C15200083A5C000834
:1055780038B50023054D044608462B60FBF7C2FBEF
:10558800431C02D12B6803B1236038BD8802002078
:1055980000200149704700BF0000F87F10B56AB1CC
:1055A8000139841810F8013B11F8012F934203D1F7
:1055B800A04201D0002BF5D1981A10BD1046FCE787
:1055C8000346084641B1FF2A04D98A224FF0FF302A
:1055D8001A60704701200A707047884210B501EBC5
:1055E800020402D98442234607D8431EA14208D0A8
:1055F80011F8012B03F8012FF8E7014602448A420B
:1056080000D110BD13F8014D02F8014DF7E7000075
:10561800014800F02FB800BF90020020014800F0B8
:105628002AB800BF90020020F8B5074614460E4677
:1056380021B91146BDE8F840FFF7E4BD22B9FFF7EC
:1056480095FD25462846F8BD00F016F8A0420FD271
:1056580021463846FFF7D6FD05460028F2D03146E8
:105668002246FCF7D5F931463846FFF77FFDE9E7D2
:105678003546E7E77047704751F8043C181F002B80
:10568800BCBF0B58C01870474FEA410C7FEA6C5CEE
:1056980002D150EA013C0AD14FEA430C7FEA6C5C24
:1056A80002D152EA033C02D14FF0000070474FF09C
:1056B800010070474A0011D212F5001211D20DD51F
:1056C8006FF47873B3EB62520ED44FEAC12343F000
:1056D800004343EA505323FA02F070474FF00000AA
:1056E800704750EA013002D14FF0FF3070474FF059
:1056F800000070474FEA4102B2F1E04324BFB3F51E
:10570800001CDCF1FE5C0DD901F0004C4FEAC00230
:105718004CEA5070B2F1004F40EB830008BF20F014
:105728000100704711F0804F21D113F13872BCBFCE
:1057380001F00040704741F480114FEA5252C2F123
:105748001802C2F1200C10FA0CF320FA02F018BF6C
:1057580040F001004FEAC1234FEAD32303FA0CFCBF
:1057680040EA0C0023FA02F34FEA4303CCE77FEA4E
:10577800625307D150EA01331EBF4FF0FE4040F498
:105788004000704701F0004040F0FE4040F4000047
:10579800704700BF38B505460C460022002328464E
:1057A8002146FCF7DFF840B1284604F1004100F03B
:1057B8000BF8404261EB410138BD28462146BDE85F
:1057C800384000F001B80000D0B500220B4B064667
:1057D8000F46FBF755FEFFF76DFF0446FBF7D6FDB6
:1057E8000022074BFBF74CFE02460B463046394673
:1057F800FBF78EFCFFF75EFF2146D0BD0000F03DB1
:105808000000F04102030405060708090A0B0C0D05
:105818000E0F101000000000537461636B20667255
:10582800616D653A0A000000205230203D20202595
:105838003038580A00000000205231203D20202531
:105848003038580A00000000205232203D20202520
:105858003038580A00000000205233203D2020250F
:105868003038580A0000000020523132203D2025EF
:105878003038580A00000000204C52203D202025D6
:105888003038580A00000000205043203D202025D1
:105898003038580A0000000020505352203D20257F
:1058A8003038580A000000004653522F4641523AF9
:1058B8000A0000002043465352203D20202530385E
:1058C800580A00002048465352203D2020253038F1
:1058D800580A00002044465352203D2020253038E5
:1058E800580A00002041465352203D2020253038D8
:1058F800580A0000204D4D464152203D20253038A1
:10590800580A00002042464152203D2020253038C8
:10591800580A00004D6973630A000000204C522F9A
:105928004558435F52455455524E3D20253038580E
:105938000A0000005B486172644661756C745D0A18
:10594800000000005B4275734661756C745D0A0067
:105958005B55736167654661756C745D0A0000008C
:105968000000000000000000010203040607080907
:105978002564207C200950696E3A2025640A004974
:105988004E4600696E66004E414E006E616E0030F4
:1059980000303132333435363738394142434445A3
:1059A8004600303132333435363738396162636412
:1059B80065660065256C640035000000CEFBFFFFBE
:1059C800CB030000010000000000000034000000CC
:1059D800CEFBFFFFCB030000010000000000000029
:1059E800BC89D897B2D29C3C33A7A8D523F64939AD
:1059F8003DA7F444FD0FA5329D978CCF08BA5B25CF
:105A0800436FAC6428066811002020202020202045
:105A18002020282828282820202020202020202056
:105A28002020202020202020208810101010101066
:105A380010101010101010101004040404040404B2
:105A4800040404101010101010104141414141414C
:105A5800010101010101010101010101010101012E
:105A6800010101011010101010104242424242423E
:105A780002020202020202020202020202020202FE
:105A880002020202101010102000000000000000A6
:105A980000000000000000000000000000000000FE
:105AA80000000000000000000000000000000000EE
:105AB80000000000000000000000000000000000DE
:105AC80000000000000000000000000000000000CE
