:020000040800F2
:100000000050002021020008E1120008E31200085D
:10001000E5120008E7120008E912000800000000DD
:10002000000000000000000000000000EB120008CB
:10003000ED12000800000000EF120008F1120008A5
:10004000C5100008C5100008C5100008C51000083C
:10005000C5100008C5100008C5100008C51000082C
:10006000C5100008C5100008C5100008C51000081C
:10007000C5100008C5100008C5100008C51000080C
:10008000C5100008C5100008C5100008C5100008FC
:10009000C5100008C5100008C5100008C5100008EC
:1000A000C5100008C5100008C5100008C5100008DC
:1000B000C5100008C5100008C5100008C5100008CC
:1000C000C5100008C5100008C5100008C5100008BC
:1000D000C5100008C5100008C5100008C5100008AC
:1000E000C5100008C5100008C51000080000000079
:1000F0000000000000000000000000000000000000
:1001000000000000000000005FF808F100B583B0B7
:1001100000F03EFF304B314A1360314A1360314BDF
:10012000314A03E052F8041B43F8041B2F498B4269
:10013000F8D32A4B1A682E4B9A4200D0FEE7284B80
:100140001A682C4B9A42F9D1234B2B4A13602B4A45
:1001500013602B4B02E0002243F8042B294A934200
:10016000F9D3254B1B6813B9244B1B6803B1FEE779
:1001700000F01AFF694601A800F0B4FE224C234BA0
:10018000E41AA410002504E0204B53F825309847CA
:100190000135AC42F8DC1E4C1E4BE41AA4100025BD
:1001A00004E01C4B53F8253098470135AC42F8DC8D
:1001B0000099019801F01AF80546174C174BE41AFC
:1001C000A41004E0013C154B53F824309847002C50
:1001D000F8DC284600F062FEBABADECA0000002051
:1001E0007C00002000000020741D0008800000201A
:1001F000785634123254769880000020280100206E
:10020000800000202C010020740300087403000803
:1002100074030008740300087403000874030008E2
:1002200008B5FFF773FF00BEFEE71EF0040F0CBF1A
:10023000EFF30880EFF309807146414A10472DE93A
:10024000F04182B004460D46124B5F6BD3F8388004
:100250009E6A1B6B13F0020F03D00E4BDB6A002B60
:100260000BDB0D4800F046FE009543463A4631460A
:10027000204600F09DFE00BEFEE74BF6AB6100F0AD
:1002800011FF0028EDD0034B4FF00042DA6202B0BC
:10029000BDE8F08100ED00E0EC1C000800BEFEE7C8
:1002A0001EF0040F0CBFEFF30880EFF309807146D6
:1002B000244A10472DE9F04182B004460D46084B10
:1002C0005F6BD3F838809E6A064800F013FE0095F5
:1002D00043463A463146204600F06AFE00BEFEE73D
:1002E00000ED00E0FC1C00081EF0040F0CBFEFF353
:1002F0000880EFF309807146134A10472DE9F04159
:1003000082B004460D46084B5F6BD3F838809E6A76
:10031000064800F0EFFD009543463A463146204638
:1003200000F046FE00BEFEE700ED00E0081D0008FC
:1003300000BEFEE700BEFEE700BEFEE7704700001D
:0C0340003F020008B5020008FD020008A2
:10034C00741D00080000002080000020741D0008AF
:10035C000000000000000000800000202C010020A4
:08036C00000000000000000089
:1003740010B504460E4B18784FF47A73B3FBF0F3C0
:100384000C4A1068B0FBF3F000F07CF868B90F2C4D
:1003940001D901200AE0002221464FF0FF3000F08D
:1003A4003DF8054B1C60002000E0012010BD00BF9B
:1003B40004000020140000200800002008B50320D9
:1003C40000F01AF80020FFF7D3FF00F06FFF0020C1
:1003D40008BD0000034A1168034B1B780B441360EB
:1003E400704700BF1401002004000020014B18686E
:1003F400704700BF14010020074AD36823F4E06368
:100404001B041B0C000200F4E060034343F0BF63D1
:1004140043F40033D360704700ED00E030B4174B71
:10042400DB68C3F30223C3F10704042C28BF0424AC
:100434001D1D062D18D9033B4FF0FF3505FA04F4B2
:1004440021EA0401994005FA03F322EA030319435C
:1004540000280BDB0901C9B200F1604000F56140DE
:1004640080F8001330BC70470023E5E700F00F006C
:100474000901C9B2024B1954F4E700BF00ED00E0D2
:1004840014ED00E00138B0F1807F0AD2064B5860C9
:10049400064AF02182F823100020986007221A608F
:1004A40070470120704700BF10E000E000ED00E05D
:1004B400F0B482B000252C46A3E07F4FBB4210D09D
:1004C40007D97E4FBB420CD007F58037BB4208D01A
:1004D40013E0A7F58017BB4203D007F57027BB4292
:1004E40007D18B68002B58D0012B51D042610825CD
:1004F40003E0A7F58017BB42F3D0FF2E4FD8844604
:10050400FF2E4FD8A200DCF800300F27974023EAD3
:10051400070305FA02F21343CCF800304B6813F0DA
:10052400805F6DD0664B9A6942F001029A619B69C3
:1005340003F001030193019BA208971C614B53F83C
:10054400273004F00307BF004FF00F0C0CFA07FC30
:1005540023EA0C0C5C4B98422AD003F58063984242
:1005640000F08A8003F58063984200F0878003F5E9
:10057400806398421AD004231BE0CD68BDE7CD68A0
:100584000435BAE7CD680835B7E7CD680C35B4E76C
:1005940002610825B1E70025AFE70425ADE700F1C6
:1005A400040CADE7A4F108029200ACE7032300E0D9
:1005B4000023BB4043EA0C030232424F47F8223087
:1005C4004B6813F4803F5BD0404A13683343136095
:1005D4004B6813F4003F59D03C4A5368334353608B
:1005E4004B6813F4801F57D0384A936833439360A1
:1005F4004B6813F4001F55D0344AD3681E43D660A9
:1006040001340F2C54D80122A2400B6803EA0206DD
:1006140032EA0303F4D14B68122B3FF64EAF122B90
:100624003FF66BAF01A757F823F000BFE7040008BB
:100634007F050008890500089B050008FF040008E1
:10064400FF040008FF040008FF040008FF0400087A
:10065400FF040008FF040008FF040008FF0400086A
:10066400FF040008FF040008FF040008FF0400085A
:10067400830500088F05000801239AE7022398E701
:10068400124A136823EA06031360A1E70F4A53686A
:1006940023EA06035360A3E70C4A936823EA06039C
:1006A4009360A5E7094AD36823EA0606D660A7E75C
:1006B40002B0F0BC704700BF0000221000003110EF
:1006C4000010024000000140000801400004014005
:1006D4008368194201D001207047002070470AB195
:1006E400016170470904016170477047002800F0F8
:1006F400A58038B5044690F83D30002B50D0242313
:1007040084F83D302268136823F00103136000F07D
:10071400B3FB62684B4B9A4247D84B4B98428CBF11
:1007240000230123002B40F08B80484BA3FB0023C4
:100734009B0C226853606168424A91423BD8013362
:100744002268136261683F4B99423ED8431E4900B8
:10075400B3FBF1F3013340F6FC7213426AD0C3F3E6
:100764000B032268D361E369216A22680B43136097
:100774002369E16822680B4393606369A169226875
:100784000B43D3602268136843F001031360002015
:100794002064202384F83D30206384F83E0038BD73
:1007A40080F83C30FFF7A1FFA9E7294B98428CBFA2
:1007B40000230123B6E74FF4967202FB03F3254AA4
:1007C400A2FB03239B090133BAE7A368BBB9421E0A
:1007D40001EB4105B2FBF5F20132C2F30B02B2FAAE
:1007E40082F2520942BBC3B9013801EB4103B0FBA9
:1007F400F3F30133C3F30B0343F40043B1E7421EA5
:1008040001EB810505EB8505B2FBF5F20132C2F37C
:100814000B02B2FA82F25209E4E7013801EB8103D8
:1008240003EB8303B0FBF3F30133C3F30B0343F490
:10083400404396E7042394E7012392E7012070479D
:100844000120ACE7A08601007F841E0083DE1B43E9
:10085400FF083D00D34D621082B0084B1B68084A64
:10086400A2FB03235B0A00FB03F3019300BF019B7C
:100874005A1E0192002BF9D102B0704714000020D7
:10088400D34D621070B582B00446036813F0010FB3
:100894002CD0AB4B5B6803F00C03042B1DD0A84B8E
:1008A4005B6803F00C03082B12D06368B3F5803F38
:1008B40041D0002B55D103F1804303F504331A686A
:1008C40022F480321A601A6822F480221A6037E017
:1008D4009B4B5B6813F4803FE7D0994B1B6813F480
:1008E400003F03D06368002B00F0AE81236813F04F
:1008F400020F75D0924B5B6813F00C0F5FD0904BD6
:100904005B6803F00C03082B54D02369002B00F020
:1009140089808C4B01221A60FFF768FD0546884BDD
:100924001B6813F0020F74D1FFF760FD401B02280F
:10093400F5D903208DE1824A136843F480331360B0
:10094400636843B3FFF752FD05467D4B1B6813F400
:10095400003FCBD1FFF74AFD401B6428F5D90320A3
:1009640077E1B3F5A02F09D0754B1A6822F48032D1
:100974001A601A6822F480221A60E1E703F18043C6
:10098400A3F53C331A6842F480221A601A6842F4D0
:1009940080321A60D4E7FFF729FD0546684B1B68CF
:1009A40013F4003FA2D0FFF721FD401B6428F5D9C2
:1009B40003204EE1624B5B6813F4803FA5D1604B8A
:1009C4001B6813F0020F03D02369012B40F03E8112
:1009D4005B4A136823F0F803616943EAC1031360B7
:1009E400236813F0080F32D0A369002B45D0564B6F
:1009F40001221A60FFF7FAFC0546514B5B6A13F0BB
:100A0400020F21D1FFF7F2FC401B0228F5D9032085
:100A14001FE14B4A136823F0F803616943EAC103F9
:100A24001360DDE7474B00221A60FFF7DFFC054641
:100A3400434B1B6813F0020FD2D0FFF7D7FC401BC7
:100A44000228F5D9032004E10120FFF705FF2368FC
:100A540013F0040F00F09880394BDB6913F0805FCA
:100A64001DD1374BDA6942F08052DA61DB6903F059
:100A740080530193019B012512E0334B00221A603D
:100A8400FFF7B4FC05462E4B5B6A13F0020FDED071
:100A9400FFF7ACFC401B0228F5D90320D9E0002560
:100AA4002A4B1B6813F4807F11D0E368012B22D0FA
:100AB400002B38D103F1804303F504331A6A22F082
:100AC40001021A621A6A22F004021A6218E01F4A2A
:100AD400136843F480731360FFF788FC06461B4BCE
:100AE4001B6813F4807FE0D1FFF780FC801B64282F
:100AF400F5D90320ADE0124A136A43F001031362EF
:100B0400E3687BB3FFF772FC06460D4B1B6A13F0D8
:100B1400020F38D1FFF76AFC801B41F288339842F8
:100B2400F3D9032095E0052B12D0054B1A6A22F065
:100B340001021A621A6A22F004021A62E0E700BF94
:100B44000010024000004242800442420070004013
:100B5400424B1A6A42F004021A621A6A42F0010213
:100B64001A62CDE7FFF742FC06463C4B1B6A13F0C2
:100B7400020F08D0FFF73AFC801B41F288339842F9
:100B8400F3D9032065E0E5B9E369002B60D0334A6B
:100B9400526802F00C02082A5DD0022B17D0304BA9
:100BA40000221A60FFF722FC04462C4B1B6813F04A
:100BB400007F47D0FFF71AFC001B0228F5D9032059
:100BC40047E0264AD36923F08053D361DCE7244B02
:100BD40000221A60FFF70AFC0546204B1B6813F03D
:100BE400007F06D0FFF702FC401B0228F5D9032042
:100BF4002FE0236AB3F5803F1AD018494B6823F4D9
:100C04007413226A606A024313434B60144B01223B
:100C14001A60FFF7EBFB0446104B1B6813F0007FD0
:100C24000ED1FFF7E3FB001B0228F5D9032010E0E7
:100C34000A4A536823F40033A1680B435360DCE78A
:100C4400002006E0002004E0012002E0012000E092
:100C5400002002B070BD0120FBE700BF001002407D
:100C64006000424286B0164B0FCB0DF1180C0CE914
:100C74000F0040F20123ADF80430124B5B6803F01F
:100C84000C02082A02D0104806B07047C3F383420E
:100C9400624412F8102C13F4803F0CD0094B5B68AB
:100CA400C3F34043634413F8143C074800FB02F0C9
:100CB400B0FBF3F0E8E7054800FB02F0E4E700BF0F
:100CC400BC1B00080010024000127A0000093D001D
:100CD40070B504460D46614B1B6803F007038B4255
:100CE4000BD25E4A136823F007030B4313601368A7
:100CF40003F007038B4240F0AB80236813F0020F2C
:100D040017D013F0040F04D0554A536843F4E0633A
:100D14005360236813F0080F04D0514A536843F416
:100D2400605353604E4A536823F0F003A1680B43A9
:100D34005360236813F0010F52D06368012B23D052
:100D4400022B28D0464A126812F0020F00F082806B
:100D540043494A6822F0030213434B60FFF746FB02
:100D640006466368012B1DD0022B2AD03C4B5B68DE
:100D740013F00C0F34D0FFF739FB831B41F2883298
:100D84009342F3D9032062E0354A126812F4003F1B
:100D9400DED101205BE0324A126812F0007FD7D125
:100DA400012054E02E4B5B6803F00C03042B17D096
:100DB400FFF71CFB831B41F288329342F2D90320D4
:100DC40045E0274B5B6803F00C03082B08D0FFF7C2
:100DD4000DFB801B41F288339842F2D9032036E0A0
:100DE4001E4B1B6803F00703AB420AD91B4A136866
:100DF40023F007032B431360136803F00703AB428C
:100E04002AD1236813F0040F06D0154A536823F43B
:100E1400E063E1680B435360236813F0080F07D0C5
:100E24000F4A536823F46053216943EAC1035360B2
:100E3400FFF718FF0A4B5B68C3F30313094AD35C3B
:100E4400D840094B18600020FFF792FA002070BDCB
:100E54000120FCE70120FAE70120F8E70020024026
:100E640000100240181D000814000020014B1868EF
:100E7400704700BF1400002008B5FFF7F7FF044BCC
:100E84005B68C3F30223034AD35CD84008BD00BFA8
:100E940000100240281D0008FEE7000008B50346C4
:100EA4000C4A12685AB10B4A1068033323F0030347
:100EB4000344094A934206D8064A136008BD054A0A
:100EC40006491160EFE700F015FA0C2303604FF0B8
:100ED400FF30F3E784000020004C00202C010020A8
:100EE40001230360014B0B60704700BF0C0000201E
:100EF4000FB400B583B004AB53F8042B01938021E5
:100F0400074800F03FFA002804DC03B05DF804EB66
:100F140004B070470146024800F034F8F5E700BF1A
:100F24008C0000202DE9F04385B004460F4643565B
:100F340033BB042528462146ABBE0446384605B0DB
:100F4400BDE8F08314F9010B04AA1A4402F8100C4A
:100F54000133AB42F6D304AA1344002203F8102C45
:100F64004FF00408E94640464946ABBE8046761B2E
:100F7400002EE3D03546102E28BF10250023E8E7C5
:100F84000E46F5E708B5FFF7CDFF08BD08B500F03C
:100F940099F8024A024B9A6008BD00BF000000089D
:100FA40000ED00E008B500F0B3F808BDF8B504465C
:100FB4000D4617461E462748FFF79AFF2168264824
:100FC400FFF796FF61682548FFF792FFA168244860
:100FD400FFF78EFFE1682348FFF78AFF2169224863
:100FE400FFF786FF61692148FFF782FFA169204866
:100FF400FFF77EFFE1691F48FFF77AFF1E48FFF7FE
:1010040077FF29461D48FFF773FF1D4CE16A1D4811
:10101400FFF76EFF216B1C48FFF76AFFE16B1B486B
:10102400FFF766FF15F0800F0AD115F4004F0CD1BD
:101034001748FFF75DFF06991648FFF759FFF8BDFB
:1010440039461548FFF754FFEFE731461348FFF7D9
:101054004FFFEDE7D01B0008E01B0008F01B000861
:10106400001C0008101C0008201C0008301C00088C
:10107400401C0008501C0008601C00086C1C000880
:1010840000ED00E07C1C00088C1C00089C1C00087F
:10109400CC1C0008D41C0008AC1C0008BC1C0008B4
:1010A40083691A888A4201D0002070470268033A93
:1010B400012A01D90020704702338361012070475F
:1010C400FEE700000F4B1A6842F001021A605968EB
:1010D4000D4A0A405A601A6822F0847222F480325F
:1010E4001A601A6822F480221A605A6822F4FE02F6
:1010F4005A604FF41F029A60044B4FF000629A60EA
:10110400704700BF001002400000FFF800ED00E04F
:101114001F4B5B6803F00C03042B14D0082B16D070
:101124001BB11C4B1C4A1A6002E01A4B1A4A1A6083
:10113400174B5B68C3F30313184AD15C154A136851
:10114400CB4013607047134B134A1A60F0E7104A00
:1011540053685268C3F38343023312F4803F05D1CA
:101164000F4A02FB03F30B4A1360E1E7084A526893
:1011740012F4003F05D00A4A02FB03F3054A136048
:10118400D6E7054A02FB03F3024A1360D0E700BF27
:10119400001002401400002000127A00181D0008FC
:1011A40000093D0010B590B02422002107A800F0EA
:1011B400B5F8002401940294039404940594022342
:1011C400069301230A9310230B9306A8FFF75AFBF7
:1011D4000F2301930294039404940594214601A8D7
:1011E400FFF776FD10B010BDF0B59DB0FFF7E6F83F
:1011F400FFF7D8FF284DAB6943F00803AB61AB6937
:1012040003F008030193019B00241A94C02318934C
:101214001223199301271B97204E18A93046FFF774
:1012240047F93A4640213046FFF759FA3A468021B9
:101234003046FFF754FAEB6943F40013EB61EB69B2
:1012440003F400130293029B154B0393154B049371
:101254004FF48043059306940793089409940A94E1
:101264000B9403A8FFF742FA20231893199403233D
:101274001B9302231A9318A93046FFF719F920216A
:101284000648FFF725FA0246651C21460648FFF783
:101294002FFE2C46F3E700BF00100240000C014073
:1012A40000540040A0860100301D000882B00A4BA3
:1012B4009A6942F001029A619A6902F0010200926D
:1012C400009ADA6942F08052DA61DB6903F08053F4
:1012D4000193019B02B07047001002407047FEE783
:1012E400FEE7FEE7FEE770477047704708B5FFF773
:1012F40071F808BD014B1868704700BF1800002042
:101304000A44914200F1FF3300D1704710B511F83F
:10131400014B914203F8014FF9D110BD0346024439
:10132400934200D1704703F8011BF9E730B5141E4E
:1013340005469BB0184605DA8B234FF0FF302B602F
:101344001BB030BD4FF40273ADF80C300CBF234614
:1013540004F1FF33029305934FF6FF7302460091A5
:101364000491ADF80E3069461E9B284600F074F8CF
:10137400431CBCBF8B232B60002CE1D00022009BBC
:101384001A70DDE707B5009313460A460146034881
:101394000068FFF7CBFF03B05DF804FB18000020E2
:1013A4002DE9F0478E6882469E420C4690461F46C1
:1013B40038D88A8912F4906F32D0256809690133CC
:1013C400A5EB010965694B4405EB450505EBD575AE
:1013D4006D109D4238BF1D46530531D5294600F096
:1013E40045FB064650B90C234FF0FF30CAF80030D5
:1013F400A38943F04003A381BDE8F0874A462169ED
:10140400FFF77EFFA38923F4906343F08003A38155
:1014140026614E4426603E466561A5EB0905A5603C
:10142400BE4200D93E4632464146206800F0B8FA32
:10143400A36822689B1B32440020A3602260DBE780
:101444002A4600F06DFB06460028E1D1504621698A
:1014540000F0C0FAC7E700002DE9F04F98468B89E9
:1014640007461B060D4614469DB00ED50B6963B99D
:10147400402100F0FBFA2860286120B90C233B606E
:101484004FF0FF30D1E040236B6100230993202308
:101494008DF8293030234FF00109CDF80C80DFF8A6
:1014A400A4818DF82A3023469A4613F8012B0AB1F9
:1014B400252AF9D1BAEB040B0BD05B462246294608
:1014C4003846FFF76DFF013000F0AA80099A5A44AC
:1014D40009929AF80030002B00F0A28000234FF00C
:1014E400FF32CDE905230AF1010A049307938DF82D
:1014F40053301A935446052214F8011B514800F046
:1015040041FA049AD8B9D00644BF20238DF8533049
:10151400110744BF2B238DF853309AF800302A2B3F
:1015240015D0544600204FF00A0C079A214611F8B2
:10153400013B303B092B4ED9B0B1079214E0A0EB2C
:10154400080309FA03F31343A2460493D2E7039B67
:10155400191D1B680391002BBBBF5B4242F00202C2
:1015640007930793B8BF049223782E2B0CD163788A
:101574002A2B35D1039B02341A1D1B680392002BBE
:10158400B8BF4FF0FF330593DFF8C8A003225046DD
:10159400217800F0F7F940B14023A0EB0A0003FAE8
:1015A40000F0049B01340343049314F8011B062246
:1015B40025488DF8281000F0E5F9002838D0234B91
:1015C4001BBB039B073323F0070308330393099BD7
:1015D4003344099367E70C4601200CFB0232A5E76C
:1015E40000234FF00A0C194601340593204610F8E5
:1015F400012B303A092A03D9002BC5D00591C3E742
:10160400044601230CFB0121F0E703AB00932A46B7
:1016140038460F4B04A9AFF30080421C0646D6D1CE
:10162400AB895B063FF52CAF09981DB0BDE8F08F80
:1016340003AB00932A463846054B04A900F07CF816
:10164400EBE700BF3F1D0008491D00080000000033
:10165400A5130008451D00082DE9F04716469946D4
:101664008A680B6907469342B8BF1346336091F802
:1016740043200C46DDF820800AB10133336023682F
:10168400990642BF336802333360256815F00605B6
:1016940006D104F1190AE36832689B1AAB4228DCCC
:1016A40094F84320131E226818BF012392062DD4F8
:1016B4004946384604F14302C047013020D023682C
:1016C400E56803F00603042B18BF002532684FF0C9
:1016D4000006A36808BFAD1A226908BF25EAE575AC
:1016E4009342C4BF9B1AED181A34B5421AD1002094
:1016F40008E00123524649463846C047013003D129
:101704004FF0FF30BDE8F0870135C4E73020E11821
:1017140081F843005A1C94F845102244023382F89D
:101724004310C5E70123224649463846C0470130E5
:10173400E6D00136D9E700002DE9FF470C46277EA5
:101744009146782F80469A460C9904F1430207D8B3
:10175400622F0AD8002F00F0D980582F00F0A480FF
:1017640004F1420684F842703AE0A7F16303152BB2
:10177400F6D801A050F823F0D5170008E91700089F
:101784006517000865170008651700086517000845
:10179400E9170008651700086517000865170008B1
:1017A40065170008F718000819180008D918000868
:1017B400651700086517000819190008651700085F
:1017C400191800086517000865170008E1180008D3
:1017D4000B6804F142061A1D1B680A6084F8423043
:1017E4000123A4E0256808682E0600F104030AD545
:1017F40005680B60002D03DA2D236D4284F8433015
:101804000A235E4819E015F0400F05680B6018BF05
:101814002DB2EFE70B682568181D0860280601D56E
:101824001D6802E06906FBD51D886F2F0CBF0823D5
:101834000A235248002184F843106668002EA8BF8A
:101844002168A660A4BF21F0040121600DB9002E17
:101854004DD01646B5FBF3F103FB1157C75D06F8EF
:10186400017D2F46BB420D46F4D9082B0BD12368CA
:10187400DF0708D5236961689942DEBF302306F883
:10188400013C06F1FF36921B22614B46214640463D
:10189400CDF800A003AAFFF7DFFE01304CD14FF0D2
:1018A400FF3004B0BDE8F087344884F845700E6812
:1018B400236856F8045B1F060E6014D5D90744BF8D
:1018C40043F0200323601DB9236823F02003236021
:1018D4001023AFE7236843F02003236078232848CC
:1018E40084F84530E3E75E0648BFADB2E6E7164646
:1018F400BBE70B6826681D1D60690D6035061B6813
:1019040001D5186002E07106FBD518800023164645
:101914002361BAE70B681A1D0A601E68002130466D
:10192400626800F02FF808B1801B6060636823616F
:10193400002384F84330A8E73246494640462369E9
:10194400D0470130ABD023689B0713D4E068039BD6
:101954009842B8BF1846A4E7012332464946404698
:10196400D04701309BD00135E36803995B1AAB4241
:10197400F2DCEBE7002504F11906F5E7501D000839
:10198400611D0008034610B5C9B2024493421846CB
:1019940001D1002003E0047801338C42F6D110BD5C
:1019A400884210B501EB020402D98442234607D8C9
:1019B400431EA14208D011F8012B03F8012FF8E7C8
:1019C400014602448A4200D110BD13F8014D02F8C9
:1019D400014DF7E738B50546002943D051F8043CDA
:1019E4000C1F002BB8BFE41800F0D0F81E4A13688F
:1019F400104633B9636014602846BDE8384000F0EF
:101A0400CBB8A3420AD921686218934201BF1A686D
:101A14005B685218226063600460EDE71A465B68F5
:101A24000BB1A342FAD911685018A0420BD1206817
:101A34000144501883421160DED118685B68014488
:101A440011605360D8E702D90C232B60D4E72068D7
:101A540021188B4201BF19685B6809182160636013
:101A64005460C9E738BD00BF0C010020F8B5CD1C97
:101A740025F0030508350C2D38BF0C25002D06462E
:101A840001DBA94203D90C2333600020F8BD00F028
:101A94007DF821490A6814469CB9204F3B6823B954
:101AA4002146304600F062F838602946304600F09E
:101AB4005DF8431C23D10C233046336000F06CF8EE
:101AC400E3E723685B1B17D40B2B03D923601C4467
:101AD400256004E06368A2420CBF0B60536030468B
:101AE40000F05AF804F10B00231D20F00700C21A7D
:101AF400CCD01B1AA350C9E722466468CCE7C41CA7
:101B040024F00304A042E3D0211A304600F02EF85A
:101B14000130DDD1CFE700BF0C010020100100200F
:101B2400F8B5074614460E4621B91146BDE8F840FB
:101B3400FFF79CBF22B9FFF74DFF25462846F8BDA5
:101B440000F030F8A0420FD221463846FFF78EFF4E
:101B540005460028F2D031462246FFF7D1FB314634
:101B64003846FFF737FFE9E73546E7E738B500239E
:101B7400054D044608462B60FFF790F9431C02D13B
:101B84002B6803B1236038BD18010020014800F020
:101B940011B800BF20010020014800F00CB800BFBC
:101BA4002001002051F8043C181F002BBCBF0B5827
:101BB400C0187047704770470203040506070809F8
:101BC4000A0B0C0D0E0F101000000000537461631B
:101BD4006B206672616D653A0A0000002052302065
:101BE4003D2020253038580A0000000020523120C2
:101BF4003D2020253038580A0000000020523220B1
:101C04003D2020253038580A00000000205233209F
:101C14003D2020253038580A00000000205231327F
:101C2400203D20253038580A00000000204C522066
:101C34003D2020253038580A000000002050432061
:101C44003D2020253038580A00000000205053520F
:101C5400203D20253038580A000000004653522FFA
:101C64004641523A0A0000002043465352203D2088
:101C740020253038580A00002048465352203D2081
:101C840020253038580A00002044465352203D2075
:101C940020253038580A00002041465352203D2068
:101CA40020253038580A0000204D4D464152203D31
:101CB40020253038580A00002042464152203D2059
:101CC40020253038580A00004D6973630A0000006B
:101CD400204C522F4558435F52455455524E3D2097
:101CE400253038580A0000005B486172644661750B
:101CF4006C745D0A000000005B4275734661756C8C
:101D0400745D0A005B55736167654661756C745D4B
:101D14000A000000000000000000000001020304AB
:101D24000607080900000000010203042564207C62
:101D3400200950696E3A2025640A00232D302B2097
:101D440000686C4C006566674546470030313233A5
:101D54003435363738394142434445460030313210
:0E1D64003334353637383961626364656600A2
:101D74007856341201FFFFFF100000008800002095
:101D84000000000000A24A041C0000200000000023
:101D9400000000000000000000000000000000003F
:101DA400000000000000000000000000000000002F
:101DB400000000000000000000000000000000001F
:101DC400000000000000000000000000000000000F
:101DD40000000000000000000000000000000000FF
:101DE400000000000000000000000000325476985B
:040000050800010DE1
:00000001FF
