:020000040800F2
:1000000000500020210200088D2800088F280008D9
:100010009128000893280008952800080000000097
:100020000000000000000000000000009728000809
:1000300099280008000000009B2800089D2800085F
:1000400091190008911900089119000891190008E8
:1000500091190008911900089119000891190008D8
:1000600091190008911900089119000891190008C8
:1000700091190008911900089119000891190008B8
:1000800091190008911900089119000891190008A8
:100090009119000891190008911900089119000898
:1000A0009119000891190008911900089119000888
:1000B0009119000891190008911900089119000878
:1000C0009119000891190008911900089119000868
:1000D0009119000891190008911900089119000858
:1000E00091190008911900089119000800000000FA
:1000F0000000000000000000000000000000000000
:1001000000000000000000005FF808F100B583B0B7
:1001100001F0A4FB304B314A1360314A1360314B7C
:10012000314A03E052F8041B43F8041B2F498B4269
:10013000F8D32A4B1A682E4B9A4200D0FEE7284B80
:100140001A682C4B9A42F9D1234B2B4A13602B4A45
:1001500013602B4B02E0002243F8042B294A934200
:10016000F9D3254B1B6813B9244B1B6803B1FEE779
:1001700001F080FB694601A801F01AFB224C234BD9
:10018000E41AA410002504E0204B53F825309847CA
:100190000135AC42F8DC1E4C1E4BE41AA4100025BD
:1001A00004E01C4B53F8253098470135AC42F8DC8D
:1001B0000099019802F0B6FA0546174C174BE41A5D
:1001C000A41004E0013C154B53F824309847002C50
:1001D000F8DC284601F0C8FABABADECA00000020EE
:1001E0007C00002000000020B03D000880000020BE
:1001F000785634123254769880000020280100206E
:10020000800000202C010020740300087403000803
:1002100074030008740300087403000874030008E2
:1002200008B5FFF773FF00BEFEE71EF0040F0CBF1A
:10023000EFF30880EFF309807146414A10472DE93A
:10024000F04182B004460D46124B5F6BD3F8388004
:100250009E6A1B6B13F0020F03D00E4BDB6A002B60
:100260000BDB0D4801F0ACFA009543463A463146A7
:10027000204601F003FB00BEFEE74BF6AB6101F048
:1002800077FB0028EDD0034B4FF00042DA6202B05A
:10029000BDE8F08100ED00E0D43B000800BEFEE7C1
:1002A0001EF0040F0CBFEFF30880EFF309807146D6
:1002B000244A10472DE9F04182B004460D46084B10
:1002C0005F6BD3F838809E6A064801F079FA009592
:1002D00043463A463146204601F0D0FA00BEFEE7DA
:1002E00000ED00E0E43B00081EF0040F0CBFEFF34C
:1002F0000880EFF309807146134A10472DE9F04159
:1003000082B004460D46084B5F6BD3F838809E6A76
:10031000064801F055FA009543463A4631462046D4
:1003200001F0ACFA00BEFEE700ED00E0F03B000893
:1003300000BEFEE700BEFEE700BEFEE7704700001D
:0C0340003F020008B5020008FD020008A2
:10034C00B03D00080000002080000020B03D0008F7
:10035C000000000000000000800000202C010020A4
:08036C00000000000000000089
:1003780010B504460E4B18784FF47A73B3FBF0F3BC
:100388000C4A1068B0FBF3F000F090F868B90F2C35
:1003980001D901200AE0002221464FF0FF3000F089
:1003A80051F8054B1C60002000E0012010BD00BF83
:1003B80004000020140000200800002008B50320D5
:1003C80000F02EF80020FFF7D3FF02F043FA0020D8
:1003D80008BD0000034A1168034B1B780B441360E7
:1003E800704700BF1401002004000020014B18686A
:1003F800704700BF1401002038B50446FFF7F6FF28
:100408000546B4F1FF3F02D0044B1B781C44FFF7AC
:10041800EDFF401BA042FAD338BD00BF0400002006
:10042800074AD36823F4E0631B041B0C000200F4A2
:10043800E060034343F0BF6343F40033D360704785
:1004480000ED00E030B4174BDB68C3F30223C3F1BF
:100458000704042C28BF04241D1D062D18D9033BAE
:100468004FF0FF3505FA04F421EA0401994005FA32
:1004780003F322EA0303194300280BDB0901C9B27D
:1004880000F1604000F5614080F8001330BC70470F
:100498000023E5E700F00F000901C9B2024B195427
:1004A800F4E700BF00ED00E014ED00E00138B0F122
:1004B800807F0AD2064B5860064AF02182F8231042
:1004C8000020986007221A6070470120704700BF1B
:1004D80010E000E000ED00E0F0B482B000252C460A
:1004E800A3E07F4FBB4210D007D97E4FBB420CD050
:1004F80007F58037BB4208D013E0A7F58017BB4249
:1005080003D007F57027BB4207D18B68002B58D062
:10051800012B51D04261082503E0A7F58017BB42A3
:10052800F3D0FF2E4FD88446FF2E4FD8A200DCF818
:1005380000300F27974023EA070305FA02F2134316
:10054800CCF800304B6813F0805F6DD0664B9A6929
:1005580042F001029A619B6903F001030193019B38
:10056800A208971C614B53F8273004F00307BF001B
:100578004FF00F0C0CFA07FC23EA0C0C5C4B98426A
:100588002AD003F58063984200F08A8003F58063DF
:10059800984200F0878003F5806398421AD00423BC
:1005A8001BE0CD68BDE7CD680435BAE7CD680835EE
:1005B800B7E7CD680C35B4E702610825B1E7002537
:1005C800AFE70425ADE700F1040CADE7A4F108029C
:1005D8009200ACE7032300E00023BB4043EA0C038E
:1005E8000232424F47F822304B6813F4803F5BD009
:1005F800404A1368334313604B6813F4003F59D0E3
:100608003C4A5368334353604B6813F4801F57D0F8
:10061800384A9368334393604B6813F4001F55D0EE
:10062800344AD3681E43D66001340F2C54D80122B3
:10063800A2400B6803EA020632EA0303F4D14B68CE
:10064800122B3FF64EAF122B3FF66BAF01A757F8B0
:1006580023F000BF13050008AB050008B505000826
:10066800C70500082B0500082B0500082B05000806
:100678002B0500082B0500082B0500082B05000892
:100688002B0500082B0500082B0500082B05000882
:100698002B0500082B050008AF050008BB0500085E
:1006A80001239AE7022398E7124A136823EA06030C
:1006B8001360A1E70F4A536823EA06035360A3E7D0
:1006C8000C4A936823EA06039360A5E7094AD368AE
:1006D80023EA0606D660A7E702B0F0BC704700BF61
:1006E80000002210000031100010024000000140FC
:1006F80000080140000401400AB101617047090483
:100708000161704703685A6912F4806F01D10020B3
:1007180070476FF480625A61042303640023036303
:10072800202280F83D2080F83C30012070472DE9D8
:10073800F04107460D4690461E461EE02EB1FFF7D3
:1007480055FE069BC01AB04217D900233B632022EE
:1007580087F83D2087F83E3087F83C3003201AE0C0
:100768003B689C6925EA0404A4B2B4FA84F46409D9
:10077800A0450FD1B6F1FF3FE0D1C5F30743012BE8
:10078800EED13B685C6925EA0404A4B2B4FA84F4A7
:100798006409EDE70020BDE8F0812DE9F041054648
:1007A8000E461746984633E01A6842F400721A60FB
:1007B8002B686FF480625A6104232B6400232B6337
:1007C800202285F83D2085F83C3001202EE02FB10D
:1007D800FFF70CFEA0EB0800B84219D900232B63E1
:1007E800202285F83D2085F83C3003201EE02B6848
:1007F8009C6926EA0404A4B2003C18BF0124A4B1F1
:100808002B685A6912F4806FCED1B7F1FF3FDED161
:10081800C6F30743012BEAD12B685C6926EA040476
:10082800A4B2003C18BF0124E9E70020BDE8F0812C
:10083800F0B583B004460D4616461F46C36A042B1E
:100848000DD0012B0BD013F5803F08D0036B122B72
:100858000AD10268136843F48073136004E02268C5
:10086800136843F4807313600097334600224FF0F7
:1008780001112046FFF75BFF70BB2369B3F5804F7A
:100888000FD1236805F0FE051D613B463246144929
:100898002046FFF782FF00B3236C042B1AD00320F5
:1008A8001BE0EB11226803F0060343F0F003136129
:1008B8003B4632460B492046FFF76FFF30B1236CA9
:1008C800042B01D0032008E0012006E02368EDB2E4
:1008D8001D61DAE7012000E0032003B0F0BD00BF8E
:1008E800020001000800010070B504460D461646D6
:1008F80023685B6913F0800F19D12046FFF702FFC8
:10090800B8B9B5F1FF3FF3D025B1FFF76FFD801BF4
:10091800A842EDD9236C43F020032364002323630A
:10092800202284F83D2084F83C30032000E0002099
:1009380070BD0120FCE700002DE9F04784B00446B3
:100948000D4616469946DDF830800D9F02681368FB
:1009580043F4806313600368196841F48071196077
:100968000097434600224FF00111FFF7E0FE0028F0
:100978007ED15FFA85FA236805F0FE051D613B46C6
:1009880042463E492046FFF708FF30B1236C042B4E
:1009980001D003206DE001206BE00023039323685E
:1009A8005A6903929B690393039B3A464146204642
:1009B800FFF79AFF58B1236C042B01D0032058E0AD
:1009C8002268136843F400731360012051E0B9F101
:1009D800010F0DD12368F6B21E613A464146204602
:1009E800FFF782FF20B3236C042B1AD0032040E0CA
:1009F8002368320A1A613A4641462046FFF774FFD7
:100A080058B1236C042B01D0032032E0226813680C
:100A180043F40073136001202BE02368F6B21E61D3
:100A2800DBE72268136843F400731360012020E0B9
:100A38002268136843F480731360009743460022CA
:100A48004FF001112046FFF772FEA8B922684AF05C
:100A5800010313613B46424608492046FFF79DFEC5
:100A680038B1236C042B01D0032002E0012000E000
:100A7800032004B0BDE8F0870320FAE70200010074
:100A880070B504460D46164623685B6913F0040FDB
:100A980019D12046FFF736FEB8B9B5F1FF3FF3D0BC
:100AA80025B1FFF7A3FC801BA842EDD9236C43F0C6
:100AB8002003236400232363202284F83D2084F844
:100AC8003C30032000E0002070BD0120FCE770B539
:100AD80005460C4616462B68596911F0400F22D17D
:100AE800596911F0100F11D124B1FFF77FFC801B59
:100AF800A042F0D92B6C43F020032B64202385F807
:100B08003D30002385F83C30032070BD6FF01002A3
:100B18005A6100232B642B63202285F83D2085F839
:100B28003C300120F1E70020EFE77047002800F093
:100B3800A58038B5044690F83D30002B50D02423CA
:100B480084F83D302268136823F00103136000F035
:100B5800F7FD62684B4B9A4247D84B4B98428CBF83
:100B680000230123002B40F08B80484BA3FB00237C
:100B78009B0C226853606168424A91423BD801331A
:100B88002268136261683F4B99423ED8431E490070
:100B9800B3FBF1F3013340F6FC7213426AD0C3F39E
:100BA8000B032268D361E369216A22680B4313604F
:100BB8002369E16822680B4393606369A16922682D
:100BC8000B43D3602268136843F0010313600020CD
:100BD8002064202384F83D30206384F83E0038BD2B
:100BE80080F83C30FFF7A1FFA9E7294B98428CBF5A
:100BF80000230123B6E74FF4967202FB03F3254A5C
:100C0800A2FB03239B090133BAE7A368BBB9421EC1
:100C180001EB4105B2FBF5F20132C2F30B02B2FA65
:100C280082F2520942BBC3B9013801EB4103B0FB60
:100C3800F3F30133C3F30B0343F40043B1E7421E5C
:100C480001EB810505EB8505B2FBF5F20132C2F334
:100C58000B02B2FA82F25209E4E7013801EB810390
:100C680003EB8303B0FBF3F30133C3F30B0343F448
:100C7800404396E7042394E7012392E70120704755
:100C88000120ACE7A08601007F841E0083DE1B43A1
:100C9800FF083D00D34D62102DE9F04385B00446AE
:100CA8000F46914698460C9EFFF7A0FB054694F820
:100CB8003D00C0B2202804D00227384605B0BDE860
:100CC800F08300951923012254492046FFF72FFD90
:100CD800002840F09E8094F83C30012B00F09B8067
:100CE800012384F83C3023681A6812F0010F03D1FD
:100CF8001A6842F001021A602268136823F400633C
:100D08001360212384F83D30102384F83E300023FB
:100D18002364C4F82490A4F82A80A3F58033E362FE
:100D2800638D23852B46324639462046FFF780FDE2
:100D3800074660B1236C042B04D0002384F83C30B0
:100D48000327BAE7002384F83C300127B5E70023DE
:100D5800039323685A6903929B690393039B12E0E8
:100D6800236C042B01D00327A7E72268136843F4F8
:100D7800007313600127A0E72A4631462046FFF793
:100D88007FFE00282BD1238D002B34D02A463146F4
:100D98002046FFF7A9FD0028E2D1636A5A1C626267
:100DA80022681B781361638D013B9BB26385238D99
:100DB800013B9BB223852268516911F0040FDBD0F7
:100DC800002BD9D0636A591C61621B781361638D4B
:100DD800013B9BB26385238D013B2385CCE7236CC4
:100DE800042B01D0032768E72268136843F40073D3
:100DF8001360012761E72268136843F400731360E6
:100E0800202384F83D30002384F83E3084F83C30B9
:100E180053E7022751E702274FE700BF02001000FF
:100E28002DE9F04387B004460F4690469946109E38
:100E3800FFF7DCFA054694F83D00C0B2202804D03C
:100E48000227384607B0BDE8F08300951923012230
:100E580091492046FFF76BFC002840F0588194F830
:100E68003C30012B00F05581012384F83C30236885
:100E78001A6812F0010F03D11A6842F001021A60D1
:100E88002268136823F400631360222384F83D303A
:100E9800402384F83E30002323640E9B6362BDF830
:100EA8003C3063857D4BE362638D23850195009615
:100EB8004B46424639462046FFF73EFD074660B19D
:100EC800236C042B04D0002384F83C300327B8E7B4
:100ED800002384F83C300127B3E7238D5BB90293E4
:100EE80023685A6902929A690292029A1A6842F42D
:100EF80000721A60A0E0012B0FD0022B21D02268CB
:100F0800136843F4806313600023059323685A69C8
:100F180005929B690593059B8EE02268136823F46C
:100F28008063136072B60023039323685A6903929F
:100F38009A690392039A1A6842F400721A6062B6B8
:100F48007AE02268136843F40063136072B60023E2
:100F5800049323685A6904929A690492049A1A6855
:100F680022F480621A6062B666E02A46314620465C
:100F7800FFF7ADFD68B923681A69636A591C616295
:100F88001A70238D013B2385638D013B9BB26385DA
:100F980052E0236C202B01D0012752E7032750E7AA
:100FA8000095334600223E492046FFF7C0FB002843
:100FB80040F0B18072B62268136843F4007313607E
:100FC80023681A69636A591C61621A70238D013B90
:100FD8002385638D013B9BB2638562B623681A69DA
:100FE800636A591C61621A70238D013B2385638DE6
:100FF800013B9BB263851FE02268136843F40073CA
:10100800136023681A69636A591C61621A70238D18
:10101800013B2385638D013B9BB2638562B62368E0
:101028001A69636A591C61621A70238D013B238512
:10103800638D013B9BB26385238D002B5ED0032B10
:1010480030D8012B91D0022BAAD00095334600222C
:1010580013492046FFF76BFB00285ED1226813680E
:1010680023F48063136072B623681A69636A591C93
:1010780061621A70238D013B2385638D013B9BB20E
:10108800638500953346002205492046FFF74FFB4C
:101098000028B1D00327D4E6020010000000FFFFAB
:1010A800040001002A4631462046FFF710FDF0B93A
:1010B80023681A69636A591C61621A70238D013B9F
:1010C8002385638D013B9BB2638523685A6912F0BF
:1010D800040FB1D01A69636A591C61621A70238DB2
:1010E800013B2385638D013B9BB26385A4E7236C99
:1010F800202B01D00127A4E60327A2E6202384F8A9
:101108003D30002384F83E3084F83C3099E60227CD
:1011180097E6022795E6032793E6032791E600BFA3
:1011280082B0084B1B68084AA2FB03235B0A00FB3A
:1011380003F3019300BF019B5A1E0192002BF9D1C2
:1011480002B0704714000020D34D621070B582B011
:101158000446036813F0010F2CD0AB4B5B6803F017
:101168000C03042B1DD0A84B5B6803F00C03082B61
:1011780012D06368B3F5803F41D0002B55D103F1FD
:10118800804303F504331A6822F480321A601A681F
:1011980022F480221A6037E09B4B5B6813F4803F8F
:1011A800E7D0994B1B6813F4003F03D06368002B0A
:1011B80000F0AE81236813F0020F75D0924B5B6884
:1011C80013F00C0F5FD0904B5B6803F00C03082BF7
:1011D80054D02369002B00F089808C4B01221A60BF
:1011E800FFF704F90546884B1B6813F0020F74D10A
:1011F800FFF7FCF8401B0228F5D903208DE1824A4D
:10120800136843F480331360636843B3FFF7EEF861
:1012180005467D4B1B6813F4003FCBD1FFF7E6F87A
:10122800401B6428F5D9032077E1B3F5A02F09D036
:10123800754B1A6822F480321A601A6822F48022E8
:101248001A60E1E703F18043A3F53C331A6842F4DE
:1012580080221A601A6842F480321A60D4E7FFF7D5
:10126800C5F80546684B1B6813F4003FA2D0FFF78A
:10127800BDF8401B6428F5D903204EE1624B5B683A
:1012880013F4803FA5D1604B1B6813F0020F03D005
:101298002369012B40F03E815B4A136823F0F80371
:1012A800616943EAC1031360236813F0080F32D061
:1012B800A369002B45D0564B01221A60FFF796F818
:1012C8000546514B5B6A13F0020F21D1FFF78EF8E8
:1012D800401B0228F5D903201FE14B4A136823F06D
:1012E800F803616943EAC1031360DDE7474B002255
:1012F8001A60FFF77BF80546434B1B6813F0020F93
:10130800D2D0FFF773F8401B0228F5D9032004E177
:101318000120FFF705FF236813F0040F00F0988001
:10132800394BDB6913F0805F1DD1374BDA6942F026
:101338008052DA61DB6903F080530193019B012538
:1013480012E0334B00221A60FFF750F805462E4B87
:101358005B6A13F0020FDED0FFF748F8401B022843
:10136800F5D90320D9E000252A4B1B6813F4807FA8
:1013780011D0E368012B22D0002B38D103F1804330
:1013880003F504331A6A22F001021A621A6A22F07B
:1013980004021A6218E01F4A136843F4807313604A
:1013A800FFF724F806461B4B1B6813F4807FE0D137
:1013B800FFF71CF8801B6428F5D90320ADE0124A1A
:1013C800136A43F001031362E3687BB3FFF70EF877
:1013D80006460D4B1B6A13F0020F38D1FFF706F8CB
:1013E800801B41F288339842F3D9032095E0052BFE
:1013F80012D0054B1A6A22F001021A621A6A22F008
:1014080004021A62E0E700BF0010024000004242F6
:101418008004424200700040424B1A6A42F00402C3
:101428001A621A6A42F001021A62CDE7FEF7DEFF7D
:1014380006463C4B1B6A13F0020F08D0FEF7D6FF96
:10144800801B41F288339842F3D9032065E0E5B95F
:10145800E369002B60D0334A526802F00C02082A74
:101468005DD0022B17D0304B00221A60FEF7BEFF6A
:1014780004462C4B1B6813F0007F47D0FEF7B6FFDD
:10148800001B0228F5D9032047E0264AD36923F038
:101498008053D361DCE7244B00221A60FEF7A6FFD5
:1014A8000546204B1B6813F0007F06D0FEF79EFF11
:1014B800401B0228F5D903202FE0236AB3F5803FAB
:1014C8001AD018494B6823F47413226A606A0243DD
:1014D80013434B60144B01221A60FEF787FF044642
:1014E800104B1B6813F0007F0ED1FEF77FFF001B27
:1014F8000228F5D9032010E00A4A536823F4003380
:10150800A1680B435360DCE7002006E0002004E0FC
:10151800012002E0012000E0002002B070BD01209F
:10152800FBE700BF001002406000424286B0164B45
:101538000FCB0DF1180C0CE90F0040F20123ADF8A8
:101548000430124B5B6803F00C02082A02D01048E2
:1015580006B07047C3F38342624412F8102C13F4A8
:10156800803F0CD0094B5B68C3F34043634413F8D6
:10157800143C074800FB02F0B0FBF3F0E8E705482D
:1015880000FB02F0E4E700BFA43A000800100240A4
:1015980000127A0000093D0070B504460D46614B03
:1015A8001B6803F007038B420BD25E4A136823F0D3
:1015B80007030B431360136803F007038B4240F0E3
:1015C800AB80236813F0020F17D013F0040F04D078
:1015D800554A536843F4E0635360236813F0080FD7
:1015E80004D0514A536843F4605353604E4A5368D9
:1015F80023F0F003A1680B435360236813F0010F35
:1016080052D06368012B23D0022B28D0464A126897
:1016180012F0020F00F0828043494A6822F0030268
:1016280013434B60FEF7E2FE06466368012B1DD0AC
:10163800022B2AD03C4B5B6813F00C0F34D0FEF71A
:10164800D5FE831B41F288329342F3D9032062E02E
:10165800354A126812F4003FDED101205BE0324ABD
:10166800126812F0007FD7D1012054E02E4B5B683E
:1016780003F00C03042B17D0FEF7B8FE831B41F2CE
:1016880088329342F2D9032045E0274B5B6803F088
:101698000C03082B08D0FEF7A9FE801B41F2883303
:1016A8009842F2D9032036E01E4B1B6803F007036B
:1016B800AB420AD91B4A136823F007032B43136074
:1016C800136803F00703AB422AD1236813F0040F11
:1016D80006D0154A536823F4E063E1680B4353606E
:1016E800236813F0080F07D00F4A536823F4605398
:1016F800216943EAC1035360FFF718FF0A4B5B688F
:10170800C3F30313094AD35CD840094B186000207F
:10171800FEF72EFE002070BD0120FCE70120FAE74D
:101728000120F8E70020024000100240003C0008B9
:1017380014000020014B1868704700BF14000020F7
:1017480008B5FFF7F7FF044B5B68C3F30223034AAE
:10175800D35CD84008BD00BF00100240103C000810
:10176800FEE7000008B503460C4A12685AB10B4A56
:101778001068033323F003030344094A934206D84D
:10178800064A136008BD054A06491160EFE701F0F3
:1017980003FD0C2303604FF0FF30F3E784000020C3
:1017A800004C00202C01002001230360014B0B603A
:1017B800704700BF0C0000200FB400B583B004AB25
:1017C80053F8042B01938021074801F02DFD0028D0
:1017D80004DC03B05DF804EB04B07047014602482E
:1017E80000F034F8F5E700BF8C0000202DE9F04345
:1017F80085B004460F46435633BB04252846214688
:10180800ABBE0446384605B0BDE8F08314F9010BB9
:1018180004AA1A4402F8100C0133AB42F6D304AA06
:101828001344002203F8102C4FF00408E946404600
:101838004946ABBE8046761B002EE3D03546102EB7
:1018480028BF10250023E8E70E46F5E708B5FFF79F
:10185800CDFF08BD08B500F099F8024A024B9A601E
:1018680008BD00BF0000000800ED00E008B500F06A
:10187800B3F808BDF8B504460D4617461E46274876
:10188800FFF79AFF21682648FFF796FF6168254809
:10189800FFF792FFA1682448FFF78EFFE16823480D
:1018A800FFF78AFF21692248FFF786FF616921480F
:1018B800FFF782FFA1692048FFF77EFFE1691F4813
:1018C800FFF77AFF1E48FFF777FF29461D48FFF705
:1018D80073FF1D4CE16A1D48FFF76EFF216B1C4822
:1018E800FFF76AFFE16B1B48FFF766FF15F0800FF3
:1018F8000AD115F4004F0CD11748FFF75DFF069980
:101908001648FFF759FFF8BD39461548FFF754FF49
:10191800EFE731461348FFF74FFFEDE7B83A000805
:10192800C83A0008D83A0008E83A0008F83A000827
:10193800083B0008183B0008283B0008383B000813
:10194800483B0008543B000800ED00E0643B0008F9
:10195800743B0008843B0008B43B0008BC3B00080B
:10196800943B0008A43B000883691A888A4201D086
:10197800002070470268033A012A01D90020704705
:101988000233836101207047FEE700000F4B1A689D
:1019980042F001021A6059680D4A0A405A601A68F2
:1019A80022F0847222F480321A601A6822F48022AB
:1019B8001A605A6822F4FE025A604FF41F029A60B5
:1019C800044B4FF000629A60704700BF001002405D
:1019D8000000FFF800ED00E01F4B5B6803F00C030C
:1019E800042B14D0082B16D01BB11C4B1C4A1A60B0
:1019F80002E01A4B1A4A1A60174B5B68C3F30313C9
:101A0800184AD15C154A1368CB4013607047134BD2
:101A1800134A1A60F0E7104A53685268C3F38343C5
:101A2800023312F4803F05D10F4A02FB03F30B4A3D
:101A38001360E1E7084A526812F4003F05D00A4AE9
:101A480002FB03F3054A1360D6E7054A02FB03F3DA
:101A5800024A1360D0E700BF0010024014000020C3
:101A680000127A00003C000800093D0010B582B061
:101A780000238DF80730446901230DF10702D021B6
:101A8800A047002804DB9DF80730602B02D1012015
:101A980002B010BD6FF01200FAE7000010B582B076
:101AA80053009BB241F2883200920A4601790068DD
:101AB800FFF7F2F8044610B9204602B010BD0146FF
:101AC800014800F0B1FEF7E7183C000810B584B0F3
:101AD80041F2883402949BB20193009201230A4692
:101AE80001790068FFF79CF9044610B9204604B054
:101AF80010BD0146014800F097FEF7E7483C000892
:101B080030B589B0044600230193029303930493EC
:101B180005930693ADF81C3045691A2301AA88215C
:101B2800A8470028C0F282809DF805209DF804305F
:101B380043EA0223A3839DF807209DF8063043EA71
:101B48000223E3839DF809209DF8083043EA022325
:101B580023849DF80B209DF80A3043EA022363840E
:101B68009DF80D209DF80C3043EA0223A3849DF8CC
:101B78000F209DF80E3043EA0223E3849DF81120DC
:101B88009DF8103043EA022323859DF813209DF821
:101B9800123043EA022363859DF815209DF814301E
:101BA80043EA0223A3859DF817209DF8163043EADF
:101BB8000223E3859DF819209DF8183043EA022393
:101BC80023869DF81B209DF81A3043EA022363867A
:101BD8009DF81D3084F834306569072301AAE12196
:101BE8002046A847002821DB9DF805209DF80430F1
:101BF80043EA0223E3869DF8063084F838309DF9DD
:101C0800072092B2120112B29DF8081001F00F03DA
:101C18001A4362879DF909309BB21B011BB243EA44
:101C28001113A3879DF90A3084F83E3009B030BDFE
:101C380030B583B00446456904230DEB0302F22155
:101C4800A847002817DB9DF8043003F0070384F841
:101C580046309DF80630C3F3820284F844205B09BD
:101C680084F845309DF80730C3F3820284F8472092
:101C78005B0984F8483003B030BD70B582B00446C3
:101C88000D4611F0010F24D090F8463003F00703F9
:101C9800F2228DF804208DF805308369012201A90C
:101CA800984700284BDB94F844309B0003F01C0352
:101CB80094F8452043EA4213F4228DF804208DF865
:101CC8000530A369012201A920469847002801DAB6
:101CD80035E0012015F0060F31D0666901230DF1BA
:101CE8000702F5212046B047002828DB15F0020F2F
:101CF8000CD09DF8073023F01C035BB294F8472002
:101D0800920002F01C0213438DF8073015F0040FFF
:101D180009D09DF8073003F01F0394F8482043EAE0
:101D280042138DF807309DF80730F5228DF804200E
:101D38008DF80530A369012201A92046984702B011
:101D480070BD70B582B004460D46466901230DF199
:101D58000702F421B047002814DB9DF8073023F070
:101D680003035BB205F003010B43DBB28DF80730C8
:101D7800F4228DF804208DF80530A369012201A909
:101D88002046984702B070BD10B582B0E0238DF8A8
:101D98000430B6238DF805308369012201A99847DC
:101DA800041E02DB0220FEF727FB204602B010BD0E
:101DB80030B583B00C46002300930193456908238E
:101DC8006A46F721A84700281EDB9DF800109DF8F9
:101DD80001301B019DF8022043EA013343EA121344
:101DE80023609DF803109DF804301B019DF8052021
:101DF80043EA013343EA121363609DF806209DF815
:101E0800073043EA0223A36003B030BD70B584B045
:101E180004460E4615460C2A01D0182A30D101A9CD
:101E28002046FFF7C5FF002817DB0C2D17D0182D0B
:101E380029D11C34214601A800F08EF8C6E900011A
:101E4800214601A800F0B0F9C6E90201214601A81F
:101E580000F030FAC6E90401284604B070BD1C340D
:101E6800214601A800F0E2FA3060214601A800F0FE
:101E78007FFB7060214601A800F0BCFBB060EBE777
:101E88006FF01500E9E76FF01500E6E738B5E0B147
:101E9800054601600271124B4361124B8361FFF7E3
:101EA80073FF041E0FDB2846FFF7E0FD041E0ADB64
:101EB8002846FFF725FE041E0DDB0B4800F0B4FC96
:101EC8000A4800F0B1FC204638BD094800F0ACFCD7
:101ED8006FF00B04F7E72146064800F0A5FCF2E78F
:101EE800D51A0008A51A0008E43C0008083D0008B7
:101EF800783C0008AC3C000830B583B004460523A4
:101F08008DF800308DF801308DF8023000238DF8FF
:101F1800033002238DF8043002AB13E90300606438
:101F280084F8481007212046FFF7A7FE054603213D
:101F38002046FFF706FF284303B030BD38B50546F5
:101F4800FFF776FE041E02DB2846FFF7D5FF204682
:101F580038BD0000000000002DE9F84F83468A468E
:101F6800486A00F0EDFD0022874B00F053FE002286
:101F7800864B00F097FC04460D4602460B4600F0DF
:101F880049FE06460F46BAF9100000F0D9FD024690
:101F98000B463046394600F03DFE00224FF07C5398
:101FA80000F038FE06460F46BAF90E0000F0C8FDEC
:101FB80022462B4600F02EFE02460B4600F074FC2B
:101FC80032463B4600F070FC0022714B00F022FEC6
:101FD80006460F46BAF90C0000F0B2FD00226D4B20
:101FE80000F018FE02460B463046394600F05CFC0D
:101FF80080468946BAF90A0000F0A2FD22462B461F
:1020080000F008FE22462B4600F004FE00224FF0A6
:102018007B5300F0FFFD06460F46BAF9080000F0B2
:102028008FFD22462B4600F0F5FD32463B4600F078
:102038003BFC00224FF07B5300F0ECFD00224FF0F8
:102048007C5300F0E7FD0022534B00F02DFC0446C2
:102058000D46BAF8060000F063FD02460B4620461E
:10206800294600F0D7FD04460D460022002301F062
:1020780039F8002870D1DBF8000000F051FD024665
:102088000B460020454900F00DFC06460F4600228D
:10209800434B4046494600F0BDFD02460B463046DC
:1020A800394600F0FFFB32A3D3E9002300F0B2FD6C
:1020B80022462B4600F0D8FE04460D46BAF9160013
:1020C80000F03EFD22462B4600F0A4FD22462B469A
:1020D80000F0A0FD00224FF0785300F09BFD06466B
:1020E8000F46BAF9140000F02BFD22462B4600F0EB
:1020F80091FD00224FF07C5300F08CFD02460B4608
:102108003046394600F0D0FB06460F46BAF91200B1
:1021180000F016FD02460B463046394600F0C4FB77
:102128000022204B00F076FD22462B4600F0BCFB37
:1021380004460D4610A3D3E9002300F0DDFF90B953
:102148000FA3D3E900232046294600F0F3FF30B15E
:102158000BA5D5E9004502E007A5D5E900452046CD
:102168002946BDE8F88F04A5D5E90045F7E700BF83
:1021780000000000006AB84000000000004CDD408C
:102188000000000000DBFA400000E03F0040EF40A4
:102198000000D03F0000F0400000F03F0000304158
:1021A8000000303F0000B03F2DE9F0478A46406804
:1021B80000F0B6FC06460F460022374B00F02AFD19
:1021C80080468946BAF8000000F0AAFC04460D468D
:1021D8000022324B00F01EFD02460B46404649469F
:1021E80000F060FB80468946BAF9020000F0A8FCBE
:1021F80042464B4600F00EFD804689460022284B99
:102208003046394600F006FD06460F460022254BAB
:102218002046294600F0FEFC02460B463046394669
:1022280000F040FB02460B4600F0F4FC04460D4665
:10223800BAF9040000F084FC02460B462046294601
:1022480000F0E8FC02460B464046494600F02CFBED
:1022580004460D4600F078FFCAF824000022124B0D
:102268002046294600F000FE04460D4600220F4B8A
:1022780000F042FF48B900220D4B2046294600F0E5
:1022880059FF20B100240A4D01E00024074D2046E3
:102298002946BDE8F08700BF0000103F0000503F0E
:1022A8000000E03E0000203F0000B440000044C0B1
:1022B800004055402DE9F04784B080468A46486A78
:1022C80000F03EFC0022524B00F0ECFA06460F46A6
:1022D800BAF91E0000F034FC00224E4B00F09AFCC4
:1022E80004460D46BAF9200000F02AFC00224A4BA9
:1022F80000F090FC32463B4600F08CFC02460B4650
:102308002046294600F0D0FA04460D46D8F80800C1
:1023180000F006FC22462B4600F0C4FACDE9000185
:10232800BAF91A0000F00CFC00223C4B00F072FCD9
:10233800CDE902019AF81C0000F0F2FB0022384BAC
:1023480000F068FC32463B4600F064FC0022354B46
:1023580000F0AAFA04460D469AF9220000F0F0FBB4
:1023680000222F4B00F056FC32463B4600F052FC50
:1023780022462B4600F04EFC00222A4B00F094FA2D
:1023880080468946DDE90223DDE9000100F042FCD0
:1023980006460F4642464B462046294600F03AFC80
:1023A80002460B463046394600F034FC04460D46DA
:1023B8009AF8180000F0B4FB22462B4600F02AFCDD
:1023C80000224FF07B5300F025FC02460B4600200C
:1023D800144900F067FA22462B4600F01BFC04461D
:1023E8000D460022104B00F0A5FE48B9002200233C
:1023F8002046294600F080FE20B10024002501E097
:102408000024094D2046294604B0BDE8F08700BFE6
:1024180000C0F240000050400000103F0000F03EB5
:102428000000503E0000F03F0000594070B44B6A75
:1024380003EBD3735B10A3F57A431A46002B68DBD2
:10244800921002FB02F21546002A64DBED12B1F984
:102458001060B1F90E4003FB04F4640006FB054468
:10246800002C5BDBB1F90C502D0405EBA405B1F988
:102478000A601446002A53DB621302FB06F2002AA4
:1024880052DBB1F9084003FB04F303EBD3735B1091
:1024980013EBE2034AD49B1403F50043CA8802FBFA
:1024A80003F3002B47DBDB1359D00068C0F580101D
:1024B8002A46002D43DBA0EB223240F6354000FBD4
:1024C80002F000283EDB4000B0FBF3F3B1F9162020
:1024D800DC0804FB04F4640B04FB02F2002A35DB7D
:1024E80012139808B1F9144004FB00F0002830DBFF
:1024F80002EB6032B1F9120012182ED403EB22104D
:1025080047F22F5398422ED9184B984229D9174889
:1025180027E0DA1C94E702F2FF7597E70334A1E796
:1025280002F5FF541F34A7E70732AAE703F57F3304
:1025380003F2FF33AFE703F5FF437F33B3E705F655
:10254800FF72B8E7B0FBF3F35B00BFE702F6FF7278
:10255800C6E700F5FF501F30CAE70F32CEE747F253
:10256800305070BC704747F23050FAE7B0AD010008
:1025780010B440680A885300C3EBD003B1F9024095
:1025880003FB04F3002B1EDBDB12C2EB101202FB71
:1025980002F2002A1ADB1213B1F9040000FB02F25E
:1025A800002A16DB03EBA2334B6203EB830313F120
:1025B800800012D400120C4A934210DB0B4A93425B
:1025C8000FDA10BC704703F2FF73DDE702F6FF7203
:1025D800E1E702F57F523F32E4E7FF30EAE70448DB
:1025E800EFE742F23410ECE7815EF0FF803421001F
:1025F80060F0FFFF10B44C6AA4F596348268B1F914
:102608001E000005B1F92030C0EB823004FB130333
:1026180013F5804341D4D81391F9222004FB02F228
:10262800002A3EDB92120B7F04FB03F4002C3BDBF9
:10263800E41204F5004402FB04F2002A37DB93128B
:1026480003F50013B1F91A2003FB02F313F5005345
:1026580030D49B1303FB00F31A46002B2EDBD21356
:1026680002FB02F2002A2DDBD211097E02FB01F2E5
:10267800002A29DBA3EB221323EAE373B3F1C85F33
:10268800A8BF4FF0C8531A46002B1FDB1313184678
:10269800B3F5C83F1DD810BC704703F5FF437F331F
:1026A800B9E702F2FF32BDE704F2FF74C0E702F2B5
:1026B800FF32C4E703F57F533F33CAE703F5FF4210
:1026C8007F32CCE77F32CFE70F32D3E703F6FF72D2
:1026D800DCE74FF4C830DEE710B590B024220021C3
:1026E80007A800F06DFD002401940294039404945B
:1026F80005940223069301230A9310230B9306A83B
:10270800FEF724FD0F230193029403940494059487
:10271800214601A8FEF740FF10B010BDF0B5BBB0D0
:10272800FDF74CFEFFF7D8FF374DAB6943F00803C0
:10273800AB61AB6903F008030493049B002438944D
:10274800C023369312233793012739972F4E36A982
:102758003046FDF7C1FE3A4640213046FDF7CCFF32
:102768003A4680213046FDF7C7FFEB6943F4001372
:10277800EB61EB6903F400130593059B244B21934C
:10278800244B22934FF48043239324942593269437
:1027980027942894299421A8FEF7C8F91E4B209362
:1027A8004FF47A730093042320AA402121A8FEF74E
:1027B80073FA01461948FEF7FFFF772221A90DA8F1
:1027C800FFF764FB0DA8FFF7B9FB21464C1C144822
:1027D800FEF7F2FF18220DEB02010DA8FFF716FB1A
:1027E800DDE90A23CDE90223DDE90823CDE9002349
:1027F800DDE906230B48FEF7DFFF4FF47A70FDF79B
:10280800FBFD2146E2E700BF00100240000C01403A
:1028180000540040A086010068657900343D000836
:10282800443D0008543D00080FB400B5B5B036AAC1
:1028380052F8041B019202A800F01AFD02A90448EC
:10284800FEF7BAFF35B05DF804EB04B0704700BF7F
:10285800783D000882B00A4B9A6942F001029A61F9
:102868009A6902F001020092009ADA6942F08052F5
:10287800DA61DB6903F080530193019B02B0704772
:10288800001002407047FEE7FEE7FEE7FEE77047EC
:102898007047704708B5FDF79DFD08BD81F0004100
:1028A80002E000BF83F0004330B54FEA41044FEA2D
:1028B800430594EA050F08BF90EA020F1FBF54EAC8
:1028C800000C55EA020C7FEA645C7FEA655C00F064
:1028D800E2804FEA5454D4EB5555B8BF6D420CDD35
:1028E8002C4480EA020281EA030382EA000083EAB8
:1028F800010180EA020281EA0303362D88BF30BD58
:1029080011F0004F4FEA01314FF4801C4CEA1131AD
:1029180002D0404261EB410113F0004F4FEA03330C
:102928004CEA133302D0524263EB430394EA050F97
:1029380000F0A780A4F10104D5F1200E0DDB02FA06
:102948000EFC22FA05F2801841F1000103FA0EF29A
:10295800801843FA05F359410EE0A5F120050EF160
:10296800200E012A03FA0EFC28BF4CF0020C43FA91
:1029780005F3C01851EBE37101F0004507D54FF09E
:10298800000EDCF1000C7EEB00006EEB0101B1F5EE
:10299800801F1BD3B1F5001F0CD349085FEA300034
:1029A8004FEA3C0C04F101044FEA445212F5800F3F
:1029B80080F09A80BCF1004F08BF5FEA500C50F1DC
:1029C800000041EB045141EA050130BD5FEA4C0CBF
:1029D800404141EB0101013C28BFB1F5801FE9D21C
:1029E80091F0000F04BF01460020B1FA81F308BF3F
:1029F8002033A3F10B03B3F120020CDA0C3208DD0B
:102A080002F1140CC2F10C0201FA0CF021FA02F1E5
:102A18000CE002F11402D8BFC2F1200C01FA02F155
:102A280020FA0CFCDCBF41EA0C019040E41AA2BF7A
:102A380001EB0451294330BD6FEA04041F3C1CDA42
:102A48000C340EDC04F11404C4F1200220FA04F062
:102A580001FA02F340EA030021FA04F345EA03010C
:102A680030BDC4F10C04C4F1200220FA02F001FACE
:102A780004F340EA0300294630BD21FA04F0294650
:102A880030BD94F0000F83F4801306BF81F48011E9
:102A98000134013D4EE77FEA645C18BF7FEA655C5C
:102AA80029D094EA050F08BF90EA020F05D054EA2E
:102AB800000C04BF1946104630BD91EA030F1EBF33
:102AC8000021002030BD5FEA545C05D14000494137
:102AD80028BF41F0004130BD14F580043CBF01F52A
:102AE800801130BD01F0004545F0FE4141F4700110
:102AF8004FF0000030BD7FEA645C1ABF19461046EB
:102B08007FEA655C1CBF0B46024650EA013406BFEB
:102B180052EA033591EA030F41F4002130BD00BFAA
:102B280090F0000F04BF0021704730B54FF4806467
:102B380004F132044FF000054FF0000150E700BFE8
:102B480090F0000F04BF0021704730B54FF4806447
:102B580004F1320410F0004548BF40424FF0000134
:102B68003EE700BF42004FEAE2014FEA31014FEA77
:102B780002701FBF12F07F4393F07F4F81F06051C6
:102B8800704732F07F4208BF704793F07F4F04BF11
:102B980041F40021704730B54FF4607401F00045EE
:102BA80021F000411CE700BF50EA010208BF70474E
:102BB80030B54FF000050AE050EA010208BF70473F
:102BC80030B511F0004502D5404261EB41014FF4A8
:102BD800806404F132045FEA915C3FF4D8AE4FF0B0
:102BE80003025FEADC0C18BF03325FEADC0C18BF93
:102BF800033202EBDC02C2F1200300FA03FC20FAE4
:102C080002F001FA03FE40EA0E0021FA02F1144430
:102C1800BDE600BF70B54FF0FF0C4CF4E06C1CEA49
:102C280011541DBF1CEA135594EA0C0F95EA0C0FBA
:102C380000F0DEF82C4481EA030621EA4C5123EA2D
:102C48004C5350EA013518BF52EA033541F480115C
:102C580043F4801338D0A0FB02CE4FF00005E1FB0F
:102C680002E506F00042E0FB03E54FF00006E1FB59
:102C780003569CF0000F18BF4EF0010EA4F1FF049C
:102C8800B6F5007F64F5407404D25FEA4E0E6D41DC
:102C980046EB060642EAC62141EA55514FEAC520ED
:102CA80040EA5E504FEACE2EB4F1FD0C88BFBCF569
:102CB800E06F1ED8BEF1004F08BF5FEA500E50F11A
:102CC800000041EB045170BD06F0004646EA0101E0
:102CD80040EA020081EA0301B4EB5C04C2BFD4EB12
:102CE8000C0541EA045170BD41F480114FF0000E0B
:102CF800013C00F3AB8014F1360FDEBF002001F079
:102D0800004170BDC4F10004203C35DA0C341BDCF2
:102D180004F11404C4F1200500FA05F320FA04F0C4
:102D280001FA05F240EA020001F0004221F00041F8
:102D380010EBD37021FA04F642EB06015EEA430E6B
:102D480008BF20EAD37070BDC4F10C04C4F120059B
:102D580000FA04F320FA05F001FA04F240EA02004E
:102D680001F0004110EBD37041F100015EEA430E1F
:102D780008BF20EAD37070BDC4F1200500FA05F23F
:102D88004EEA020E20FA04F301FA05F243EA0203BE
:102D980021FA04F001F0004121FA04F220EA0200CD
:102DA80000EBD3705EEA430E08BF20EAD37070BD13
:102DB80094F0000F0FD101F00046400041EB0101F3
:102DC80011F4801F08BF013CF7D041EA060195F0D5
:102DD800000F18BF704703F00046520043EB03038F
:102DE80013F4801F08BF013DF7D043EA060370477C
:102DF80094EA0C0F0CEA135518BF95EA0C0F0CD087
:102E080050EA410618BF52EA4306D1D181EA0301CC
:102E180001F000414FF0000070BD50EA410606BFC6
:102E28001046194652EA430619D094EA0C0F02D10B
:102E380050EA013613D195EA0C0F05D152EA033650
:102E48001CBF104619460AD181EA030101F000416E
:102E580041F0FE4141F470014FF0000070BD41F0B7
:102E6800FE4141F4780170BD70B54FF0FF0C4CF491
:102E7800E06C1CEA11541DBF1CEA135594EA0C0FB0
:102E880095EA0C0F00F0A7F8A4EB050481EA030EFD
:102E980052EA03354FEA013100F088804FEA0333E4
:102EA8004FF0805545EA131343EA12634FEA0222B2
:102EB80045EA111545EA10654FEA00260EF0004173
:102EC8009D4208BF964244F1FD0404F5407402D2C5
:102ED8005B084FEA3202B61A65EB03055B084FEA56
:102EE80032024FF480104FF4002CB6EB020E75EB53
:102EF800030E22BFB61A754640EA0C005B084FEA7B
:102F08003202B6EB020E75EB030E22BFB61A7546F7
:102F180040EA5C005B084FEA3202B6EB020E75EB42
:102F2800030E22BFB61A754640EA9C005B084FEABA
:102F38003202B6EB020E75EB030E22BFB61A7546C7
:102F480040EADC0055EA060E18D04FEA051545EAB6
:102F580016754FEA06164FEAC30343EA52734FEA5F
:102F6800C2025FEA1C1CC0D111F4801F0BD141EAD8
:102F780000014FF000004FF0004CB6E711F4801F3D
:102F880004BF01430020B4F1FD0C88BFBCF5E06F1D
:102F98003FF6AFAEB5EB030C04BFB6EB020C5FEA2D
:102FA800500C50F1000041EB045170BD0EF0004E82
:102FB8004EEA113114EB5C04C2BFD4EB0C0541EAB4
:102FC800045170BD41F480114FF0000E013C90E6B1
:102FD80045EA060E8DE60CEA135594EA0C0F08BF75
:102FE80095EA0C0F3FF43BAF94EA0C0F0AD150EA74
:102FF80001347FF434AF95EA0C0F7FF425AF104607
:1030080019462CE795EA0C0F06D152EA03353FF42E
:10301800FDAE1046194622E750EA410618BF52EAAB
:1030280043067FF4C5AE50EA41047FF40DAF52EA7F
:1030380043057FF4EBAE12E74FF0FF3C06E000BF1C
:103048004FF0010C02E000BF4FF0010C4DF804CD29
:103058004FEA410C7FEA6C5C4FEA430C18BF7FEAE9
:103068006C5C1BD001B050EA410C0CBF52EA430C17
:1030780091EA030F02BF90EA020F0020704710F197
:10308800000F91EA030F58BF994208BF90422CBF26
:10309800D8176FEAE37040F0010070474FEA410C1F
:1030A8007FEA6C5C02D150EA013C07D14FEA430C3D
:1030B8007FEA6C5CD6D152EA033CD3D05DF8040BAE
:1030C800704700BF8446104662468C4619466346E0
:1030D80000E000BF01B5FFF7B7FF002848BF10F1B7
:1030E800000F01BD4DF808EDFFF7F4FF0CBF0120FC
:1030F80000205DF808FB00BF4DF808EDFFF7EAFF78
:1031080034BF012000205DF808FB00BF4DF808ED32
:10311800FFF7E0FF94BF012000205DF808FB00BF27
:103128004DF808EDFFF7CEFF94BF012000205DF8B1
:1031380008FB00BF4DF808EDFFF7C4FF34BF0120BE
:1031480000205DF808FB00BF4FEA410212F50012AB
:1031580015D211D56FF47873B3EB625212D94FEAD6
:10316800C12343F0004343EA505311F0004F23FAC0
:1031780002F018BF404270474FF00000704750EA15
:10318800013005D111F0004008BF6FF000407047D2
:103198004FF00000704700BF014B1868704700BF30
:1031A800180000200A44914200F1FF3300D1704713
:1031B80010B511F8014B914203F8014FF9D110BD38
:1031C80003460244934200D1704703F8011BF9E714
:1031D80030B5141E05469BB0184605DA8B234FF010
:1031E800FF302B601BB030BD4FF40273ADF80C30CC
:1031F8000CBF234604F1FF33029305934FF6FF7388
:10320800024600910491ADF80E3069461E9B28468F
:1032180000F094F8431CBCBF8B232B60002CE1D03A
:103228000022009B1A70DDE707B5009313460A4693
:10323800014603480068FFF7CBFF03B05DF804FBC5
:103248001800002000B59BB0009104916FF0004178
:103258000591029105490391694600F06FF8002233
:10326800009B1A701BB05DF804FB00BF0802FFFF4B
:1032780013460A46014602480068FFF7E3BF00BF4D
:10328800180000202DE9F0478E6882469E420C46C1
:1032980090461F4638D88A8912F4906F32D0256834
:1032A80009690133A5EB010965694B4405EB45053F
:1032B80005EBD5756D109D4238BF1D46530531D5B8
:1032C800294600F045FB064650B90C234FF0FF3065
:1032D800CAF80030A38943F04003A381BDE8F08712
:1032E8004A462169FFF75EFFA38923F4906343F000
:1032F8008003A38126614E4426603E466561A5EBA6
:103308000905A560BE4200D93E46324641462068BE
:1033180000F0B8FAA36822689B1B32440020A3601F
:103328002260DBE72A4600F06DFB06460028E1D163
:103338005046216900F0C0FAC7E700002DE9F04FB8
:1033480098468B8907461B060D4614469DB00ED538
:103358000B6963B9402100F0FBFA2860286120B9A5
:103368000C233B604FF0FF30D1E040236B6100231A
:10337800099320238DF8293030234FF00109CDF827
:103388000C80DFF8A4818DF82A3023469A4613F87A
:10339800012B0AB1252AF9D1BAEB040B0BD05B46F5
:1033A800224629463846FFF76DFF013000F0AA8013
:1033B800099A5A4409929AF80030002B00F0A2802A
:1033C80000234FF0FF32CDE905230AF1010A0493E7
:1033D80007938DF853301A935446052214F8011BAD
:1033E800514800F041FA049AD8B9D00644BF2023C6
:1033F8008DF85330110744BF2B238DF853309AF8BA
:1034080000302A2B15D0544600204FF00A0C079A9A
:10341800214611F8013B303B092B4ED9B0B1079238
:1034280014E0A0EB080309FA03F31343A24604933C
:10343800D2E7039B191D1B680391002BBBBF5B429E
:1034480042F0020207930793B8BF049223782E2B09
:103458000CD163782A2B35D1039B02341A1D1B68C3
:103468000392002BB8BF4FF0FF330593DFF8C8A0D5
:1034780003225046217800F0F7F940B14023A0EB31
:103488000A0003FA00F0049B01340343049314F880
:10349800011B062225488DF8281000F0E5F90028C0
:1034A80038D0234B1BBB039B073323F00703083398
:1034B8000393099B3344099367E70C4601200CFBEF
:1034C8000232A5E700234FF00A0C19460134059390
:1034D800204610F8012B303A092A03D9002BC5D011
:1034E8000591C3E7044601230CFB0121F0E703AB78
:1034F80000932A4638460F4B04A9AFF30080421CBC
:103508000646D6D1AB895B063FF52CAF09981DB0AE
:10351800BDE8F08F03AB00932A463846054B04A953
:1035280000F07CF8EBE700BF7B3D0008853D000814
:10353800000000008D320008813D00082DE9F047A9
:10354800164699468A680B6907469342B8BF1346E0
:10355800336091F843200C46DDF820800AB101332E
:1035680033602368990642BF3368023333602568A5
:1035780015F0060506D104F1190AE36832689B1AAA
:10358800AB4228DC94F84320131E226818BF01239D
:1035980092062DD44946384604F14302C04701300B
:1035A80020D02368E56803F00603042B18BF002524
:1035B80032684FF00006A36808BFAD1A226908BF39
:1035C80025EAE5759342C4BF9B1AED181A34B54233
:1035D8001AD1002008E00123524649463846C04720
:1035E800013003D14FF0FF30BDE8F0870135C4E763
:1035F8003020E11881F843005A1C94F84510224401
:10360800023382F84310C5E701232246494638466B
:10361800C0470130E6D00136D9E700002DE9FF4761
:103628000C46277E9146782F80469A460C9904F1DD
:10363800430207D8622F0AD8002F00F0D980582FEC
:1036480000F0A48004F1420684F842703AE0A7F141
:103658006303152BF6D801A050F823F0BD360008F7
:10366800D13600084D3600084D3600084D360008A2
:103678004D360008D13600084D3600084D36000892
:103688004D3600084D360008DF37000801370008BE
:10369800C13700084D3600084D36000801380008CB
:1036A8004D360008013700084D3600084D36000831
:1036B800C93700080B6804F142061A1D1B680A6026
:1036C80084F842300123A4E0256808682E0600F13A
:1036D80004030AD505680B60002D03DA2D236D421B
:1036E80084F843300A235E4819E015F0400F056856
:1036F8000B6018BF2DB2EFE70B682568181D08602E
:10370800280601D51D6802E06906FBD51D886F2FC4
:103718000CBF08230A235248002184F84310666826
:10372800002EA8BF2168A660A4BF21F00401216073
:103738000DB9002E4DD01646B5FBF3F103FB11571A
:10374800C75D06F8017D2F46BB420D46F4D9082B0C
:103758000BD12368DF0708D5236961689942DEBF6A
:10376800302306F8013C06F1FF36921B22614B46D6
:1037780021464046CDF800A003AAFFF7DFFE01303E
:103788004CD14FF0FF3004B0BDE8F087344884F8DE
:1037980045700E68236856F8045B1F060E6014D542
:1037A800D90744BF43F0200323601DB9236823F0E1
:1037B800200323601023AFE7236843F0200323602E
:1037C8007823284884F84530E3E75E0648BFADB261
:1037D800E6E71646BBE70B6826681D1D60690D60A5
:1037E80035061B6801D5186002E07106FBD5188004
:1037F800002316462361BAE70B681A1D0A601E6883
:1038080000213046626800F02FF808B1801B606024
:1038180063682361002384F84330A8E732464946A9
:1038280040462369D0470130ABD023689B0713D4A7
:10383800E068039B9842B8BF1846A4E701233246C4
:1038480049464046D04701309BD00135E36803998B
:103858005B1AAB42F2DCEBE7002504F11906F5E749
:103868008C3D00089D3D0008034610B5C9B20244CE
:103878009342184601D1002003E0047801338C42BA
:10388800F6D110BD884210B501EB020402D984427A
:10389800234607D8431EA14208D011F8012B03F88C
:1038A800012FF8E7014602448A4200D110BD13F8FF
:1038B800014D02F8014DF7E738B50546002943D018
:1038C80051F8043C0C1F002BB8BFE41800F0D0F8E6
:1038D8001E4A1368104633B9636014602846BDE871
:1038E800384000F0CBB8A3420AD921686218934245
:1038F80001BF1A685B685218226063600460EDE7D4
:103908001A465B680BB1A342FAD911685018A04255
:103918000BD120680144501883421160DED1186829
:103928005B68014411605360D8E702D90C232B600F
:10393800D4E7206821188B4201BF19685B68091811
:10394800216063605460C9E738BD00BF0C010020E6
:10395800F8B5CD1C25F0030508350C2D38BF0C250E
:10396800002D064601DBA94203D90C233360002051
:10397800F8BD00F07DF821490A6814469CB9204F2B
:103988003B6823B92146304600F062F83860294682
:10399800304600F05DF8431C23D10C2330463360D9
:1039A80000F06CF8E3E723685B1B17D40B2B03D9F3
:1039B80023601C44256004E06368A2420CBF0B60CE
:1039C8005360304600F05AF804F10B00231D20F034
:1039D8000700C21ACCD01B1AA350C9E72246646854
:1039E800CCE7C41C24F00304A042E3D0211A3046DB
:1039F80000F02EF80130DDD1CFE700BF0C01002028
:103A080010010020F8B5074614460E4621B91146A4
:103A1800BDE8F840FFF79CBF22B9FFF74DFF2546E8
:103A28002846F8BD00F030F8A0420FD221463846AB
:103A3800FFF78EFF05460028F2D031462246FFF7F1
:103A4800B1FB31463846FFF737FFE9E73546E7E788
:103A580038B50023054D044608462B60FDF782FE65
:103A6800431C02D12B6803B1236038BD1801002024
:103A7800014800F011B800BF20010020014800F003
:103A88000CB800BF2001002051F8043C181F002B7F
:103A9800BCBF0B58C0187047704770470203040535
:103AA800060708090A0B0C0D0E0F10100000000085
:103AB800537461636B206672616D653A0A00000099
:103AC800205230203D2020253038580A00000000C0
:103AD800205231203D2020253038580A00000000AF
:103AE800205232203D2020253038580A000000009E
:103AF800205233203D2020253038580A000000008D
:103B080020523132203D20253038580A000000006C
:103B1800204C52203D2020253038580A0000000053
:103B2800205043203D2020253038580A000000004E
:103B380020505352203D20253038580A00000000FC
:103B48004653522F4641523A0A000000204346533A
:103B580052203D2020253038580A0000204846537E
:103B680052203D2020253038580A00002044465372
:103B780052203D2020253038580A00002041465365
:103B880052203D2020253038580A0000204D4D464F
:103B98004152203D20253038580A00002042464135
:103BA80052203D2020253038580A00004D697363A3
:103BB8000A000000204C522F4558435F5245545587
:103BC800524E3D20253038580A0000005B4861728B
:103BD800644661756C745D0A000000005B42757391
:103BE8004661756C745D0A005B5573616765466173
:103BF800756C745D0A000000000000000000000001
:103C0800010203040607080900000000010203047A
:103C18004552524F523A2077726974655F726567F0
:103C2800735F6932633A206932635F7772697465DA
:103C3800206661696C65643A2025640A000000000A
:103C48004552524F523A20726561645F72656773DC
:103C58005F6932633A206932635F777269746572AB
:103C6800656164206661696C65643A2025640A00B0
:103C78004552524F523A204661696C656420746F10
:103C880020616C6C6F6361746520626D65323830D9
:103C98002064657669636520696E7374616E636517
:103CA8000A0000004552524F523A2043616E607438
:103CB800206C6F61642063616C6962726174696F02
:103CC8006E2076616C7565732066726F6D20646511
:103CD800766963653A2025640A000000494E464F1C
:103CE8003A206C6F616465642063616C696272611B
:103CF80074696F6E2076616C7565730A0000000048
:103D0800494E464F3A20424D453238302064726958
:103D1800766572206C6F6164656420737563636592
:103D2800737366756C6C79210A00000069732061F1
:103D38006C6C206F6B3F2025640A00000A4974658B
:103D4800726174696F6E3A2025640A007072657337
:103D5800737572653A2025662074656D703A202562
:103D6800662068756D69646974793A2025660A0069
:103D7800257300232D302B2000686C4C0065666786
:103D880045464700303132333435363738394142C9
:103D9800434445460030313233343536373839619B
:063DA80062636465660021
:103DB0007856341201FFFFFF100000008800002039
:103DC0000000000000A24A041C00002000000000C7
:103DD00000000000000000000000000000000000E3
:103DE00000000000000000000000000000000000D3
:103DF00000000000000000000000000000000000C3
:103E000000000000000000000000000000000000B2
:103E100000000000000000000000000000000000A2
:103E200000000000000000000000000032547698FE
:040000050800010DE1
:00000001FF
