:020000040800F2
:100000000050002021020008992800089B280008C1
:100010009D2800089F280008A12800080000000073
:10002000000000000000000000000000A3280008FD
:10003000A528000800000000A7280008A92800083B
:10004000A1190008A1190008A1190008A1190008A8
:10005000A1190008A1190008A1190008A119000898
:10006000A1190008A1190008A1190008A119000888
:10007000A1190008A1190008A1190008A119000878
:10008000A1190008A1190008A1190008A119000868
:10009000A1190008A1190008A1190008A119000858
:1000A000A1190008A1190008A1190008A119000848
:1000B000A1190008A1190008A1190008A119000838
:1000C000A1190008A1190008A1190008A119000828
:1000D000A1190008A1190008A1190008A119000818
:1000E000A1190008A1190008A119000800000000CA
:1000F0000000000000000000000000000000000000
:1001000000000000000000005FF808F100B583B0B7
:1001100001F0ACFB304B314A1360314A1360314B74
:10012000314A03E052F8041B43F8041B2F498B4269
:10013000F8D32A4B1A682E4B9A4200D0FEE7284B80
:100140001A682C4B9A42F9D1234B2B4A13602B4A45
:1001500013602B4B02E0002243F8042B294A934200
:10016000F9D3254B1B6813B9244B1B6803B1FEE779
:1001700001F088FB694601A801F022FB224C234BC9
:10018000E41AA410002504E0204B53F825309847CA
:100190000135AC42F8DC1E4C1E4BE41AA4100025BD
:1001A00004E01C4B53F8253098470135AC42F8DC8D
:1001B0000099019802F0BEFA0546174C174BE41A55
:1001C000A41004E0013C154B53F824309847002C50
:1001D000F8DC284601F0D0FABABADECA00000020E6
:1001E000EC0100200000002090750008F0010020C4
:1001F0007856341232547698F0010020980200208C
:10020000F00100209C020020740300087403000821
:1002100074030008740300087403000874030008E2
:1002200008B5FFF773FF00BEFEE71EF0040F0CBF1A
:10023000EFF30880EFF309807146414A10472DE93A
:10024000F04182B004460D46124B5F6BD3F8388004
:100250009E6A1B6B13F0020F03D00E4BDB6A002B60
:100260000BDB0D4801F0B4FA009543463A4631469F
:10027000204601F00BFB00BEFEE74BF6AB6101F040
:100280007FFB0028EDD0034B4FF00042DA6202B052
:10029000BDE8F08100ED00E01C71000800BEFEE743
:1002A0001EF0040F0CBFEFF30880EFF309807146D6
:1002B000244A10472DE9F04182B004460D46084B10
:1002C0005F6BD3F838809E6A064801F081FA00958A
:1002D00043463A463146204601F0D8FA00BEFEE7D2
:1002E00000ED00E02C7100081EF0040F0CBFEFF3CE
:1002F0000880EFF309807146134A10472DE9F04159
:1003000082B004460D46084B5F6BD3F838809E6A76
:10031000064801F05DFA009543463A4631462046CC
:1003200001F0B4FA00BEFEE700ED00E0387100080D
:1003300000BEFEE700BEFEE700BEFEE7704700001D
:0C0340003F020008B5020008FD020008A2
:10034C009075000800000020F00100209075000856
:10035C000000000000000000F00100209C020020C2
:08036C00000000000000000089
:1003780010B504460E4B18784FF47A73B3FBF0F3BC
:100388000C4A1068B0FBF3F000F090F868B90F2C35
:1003980001D901200AE0002221464FF0FF3000F089
:1003A80051F8054B1C60002000E0012010BD00BF83
:1003B80004000020140000200800002008B50320D5
:1003C80000F02EF80020FFF7D3FF02F049FA0020D2
:1003D80008BD0000034A1168034B1B780B441360E7
:1003E800704700BF8402002004000020014B1868F9
:1003F800704700BF8402002038B50446FFF7F6FFB7
:100408000546B4F1FF3F02D0044B1B781C44FFF7AC
:10041800EDFF401BA042FAD338BD00BF0400002006
:10042800074AD36823F4E0631B041B0C000200F4A2
:10043800E060034343F0BF6343F40033D360704785
:1004480000ED00E030B4174BDB68C3F30223C3F1BF
:100458000704042C28BF04241D1D062D18D9033BAE
:100468004FF0FF3505FA04F421EA0401994005FA32
:1004780003F322EA0303194300280BDB0901C9B27D
:1004880000F1604000F5614080F8001330BC70470F
:100498000023E5E700F00F000901C9B2024B195427
:1004A800F4E700BF00ED00E014ED00E00138B0F122
:1004B800807F0AD2064B5860064AF02182F8231042
:1004C8000020986007221A6070470120704700BF1B
:1004D80010E000E000ED00E0F0B482B000252C460A
:1004E800A3E07F4FBB4210D007D97E4FBB420CD050
:1004F80007F58037BB4208D013E0A7F58017BB4249
:1005080003D007F57027BB4207D18B68002B58D062
:10051800012B51D04261082503E0A7F58017BB42A3
:10052800F3D0FF2E4FD88446FF2E4FD8A200DCF818
:1005380000300F27974023EA070305FA02F2134316
:10054800CCF800304B6813F0805F6DD0664B9A6929
:1005580042F001029A619B6903F001030193019B38
:10056800A208971C614B53F8273004F00307BF001B
:100578004FF00F0C0CFA07FC23EA0C0C5C4B98426A
:100588002AD003F58063984200F08A8003F58063DF
:10059800984200F0878003F5806398421AD00423BC
:1005A8001BE0CD68BDE7CD680435BAE7CD680835EE
:1005B800B7E7CD680C35B4E702610825B1E7002537
:1005C800AFE70425ADE700F1040CADE7A4F108029C
:1005D8009200ACE7032300E00023BB4043EA0C038E
:1005E8000232424F47F822304B6813F4803F5BD009
:1005F800404A1368334313604B6813F4003F59D0E3
:100608003C4A5368334353604B6813F4801F57D0F8
:10061800384A9368334393604B6813F4001F55D0EE
:10062800344AD3681E43D66001340F2C54D80122B3
:10063800A2400B6803EA020632EA0303F4D14B68CE
:10064800122B3FF64EAF122B3FF66BAF01A757F8B0
:1006580023F000BF13050008AB050008B505000826
:10066800C70500082B0500082B0500082B05000806
:100678002B0500082B0500082B0500082B05000892
:100688002B0500082B0500082B0500082B05000882
:100698002B0500082B050008AF050008BB0500085E
:1006A80001239AE7022398E7124A136823EA06030C
:1006B8001360A1E70F4A536823EA06035360A3E7D0
:1006C8000C4A936823EA06039360A5E7094AD368AE
:1006D80023EA0606D660A7E702B0F0BC704700BF61
:1006E80000002210000031100010024000000140FC
:1006F80000080140000401408368194201D001202C
:100708007047002070470AB1016170470904016110
:10071800704703685A6912F4806F01D1002070474E
:100728006FF480625A610423036400230363202268
:1007380080F83D2080F83C30012070472DE9F041D9
:1007480007460D4690461E461EE02EB1FFF74EFEA8
:10075800069BC01AB04217D900233B63202287F8B2
:100768003D2087F83E3087F83C3003201AE03B688C
:100778009C6925EA0404A4B2B4FA84F46409A04587
:100788000FD1B6F1FF3FE0D1C5F30743012BEED1FE
:100798003B685C6925EA0404A4B2B4FA84F46409E9
:1007A800EDE70020BDE8F0812DE9F04105460E4651
:1007B8001746984633E01A6842F400721A602B68AC
:1007C8006FF480625A6104232B6400232B63202278
:1007D80085F83D2085F83C3001202EE02FB1FFF749
:1007E80005FEA0EB0800B84219D900232B6320228C
:1007F80085F83D2085F83C3003201EE02B689C6975
:1008080026EA0404A4B2003C18BF0124A4B12B6852
:100818005A6912F4806FCED1B7F1FF3FDED1C6F32B
:100828000743012BEAD12B685C6926EA0404A4B2C9
:10083800003C18BF0124E9E70020BDE8F081000072
:10084800F0B583B004460D4616461F46C36A042B0E
:100858000DD0012B0BD013F5803F08D0036B122B62
:100868000AD10268136843F48073136004E02268B5
:10087800136843F4807313600097334600224FF0E7
:1008880001112046FFF75AFF70BB2369B3F5804F6B
:100898000FD1236805F0FE051D613B463246144919
:1008A8002046FFF781FF00B3236C042B1AD00320E6
:1008B8001BE0EB11226803F0060343F0F003136119
:1008C8003B4632460B492046FFF76EFF30B1236C9A
:1008D800042B01D0032008E0012006E02368EDB2D4
:1008E8001D61DAE7012000E0032003B0F0BD00BF7E
:1008F800020001000800010070B504460D461646C6
:1009080023685B6913F0800F19D12046FFF701FFB8
:10091800B8B9B5F1FF3FF3D025B1FFF767FD801BEC
:10092800A842EDD9236C43F02003236400232363FA
:10093800202284F83D2084F83C30032000E0002089
:1009480070BD0120FCE700002DE9F04784B00446A3
:100958000D4616469946DDF830800D9F02681368EB
:1009680043F4806313600368196841F48071196067
:100978000097434600224FF00111FFF7DFFE0028E1
:100988007ED15FFA85FA236805F0FE051D613B46B6
:1009980042463E492046FFF707FF30B1236C042B3F
:1009A80001D003206DE001206BE00023039323684E
:1009B8005A6903929B690393039B3A464146204632
:1009C800FFF79AFF58B1236C042B01D0032058E09D
:1009D8002268136843F400731360012051E0B9F1F1
:1009E800010F0DD12368F6B21E613A4641462046F2
:1009F800FFF782FF20B3236C042B1AD0032040E0BA
:100A08002368320A1A613A4641462046FFF774FFC6
:100A180058B1236C042B01D0032032E022681368FC
:100A280043F40073136001202BE02368F6B21E61C3
:100A3800DBE72268136843F400731360012020E0A9
:100A48002268136843F480731360009743460022BA
:100A58004FF001112046FFF771FEA8B922684AF04D
:100A6800010313613B46424608492046FFF79CFEB6
:100A780038B1236C042B01D0032002E0012000E0F0
:100A8800032004B0BDE8F0870320FAE70200010064
:100A980070B504460D46164623685B6913F0040FCB
:100AA80019D12046FFF735FEB8B9B5F1FF3FF3D0AD
:100AB80025B1FFF79BFC801BA842EDD9236C43F0BE
:100AC8002003236400232363202284F83D2084F834
:100AD8003C30032000E0002070BD0120FCE770B529
:100AE80005460C4616462B68596911F0400F22D16D
:100AF800596911F0100F11D124B1FFF777FC801B51
:100B0800A042F0D92B6C43F020032B64202385F8F6
:100B18003D30002385F83C30032070BD6FF0100293
:100B28005A6100232B642B63202285F83D2085F829
:100B38003C300120F1E70020EFE77047002800F083
:100B4800A58038B5044690F83D30002B50D02423BA
:100B580084F83D302268136823F00103136000F025
:100B6800F7FD62684B4B9A4247D84B4B98428CBF73
:100B780000230123002B40F08B80484BA3FB00236C
:100B88009B0C226853606168424A91423BD801330A
:100B98002268136261683F4B99423ED8431E490060
:100BA800B3FBF1F3013340F6FC7213426AD0C3F38E
:100BB8000B032268D361E369216A22680B4313603F
:100BC8002369E16822680B4393606369A16922681D
:100BD8000B43D3602268136843F0010313600020BD
:100BE8002064202384F83D30206384F83E0038BD1B
:100BF80080F83C30FFF7A1FFA9E7294B98428CBF4A
:100C080000230123B6E74FF4967202FB03F3254A4B
:100C1800A2FB03239B090133BAE7A368BBB9421EB1
:100C280001EB4105B2FBF5F20132C2F30B02B2FA55
:100C380082F2520942BBC3B9013801EB4103B0FB50
:100C4800F3F30133C3F30B0343F40043B1E7421E4C
:100C580001EB810505EB8505B2FBF5F20132C2F324
:100C68000B02B2FA82F25209E4E7013801EB810380
:100C780003EB8303B0FBF3F30133C3F30B0343F438
:100C8800404396E7042394E7012392E70120704745
:100C98000120ACE7A08601007F841E0083DE1B4391
:100CA800FF083D00D34D62102DE9F04385B004469E
:100CB8000F46914698460C9EFFF798FB054694F818
:100CC8003D00C0B2202804D00227384605B0BDE850
:100CD800F08300951923012254492046FFF72EFD81
:100CE800002840F09E8094F83C30012B00F09B8057
:100CF800012384F83C3023681A6812F0010F03D1ED
:100D08001A6842F001021A602268136823F400632B
:100D18001360212384F83D30102384F83E300023EB
:100D28002364C4F82490A4F82A80A3F58033E362EE
:100D3800638D23852B46324639462046FFF780FDD2
:100D4800074660B1236C042B04D0002384F83C30A0
:100D58000327BAE7002384F83C300127B5E70023CE
:100D6800039323685A6903929B690393039B12E0D8
:100D7800236C042B01D00327A7E72268136843F4E8
:100D8800007313600127A0E72A4631462046FFF783
:100D98007FFE00282BD1238D002B34D02A463146E4
:100DA8002046FFF7A9FD0028E2D1636A5A1C626257
:100DB80022681B781361638D013B9BB26385238D89
:100DC800013B9BB223852268516911F0040FDBD0E7
:100DD800002BD9D0636A591C61621B781361638D3B
:100DE800013B9BB26385238D013B2385CCE7236CB4
:100DF800042B01D0032768E72268136843F40073C3
:100E08001360012761E72268136843F400731360D5
:100E1800202384F83D30002384F83E3084F83C30A9
:100E280053E7022751E702274FE700BF02001000EF
:100E38002DE9F04387B004460F4690469946109E28
:100E4800FFF7D4FA054694F83D00C0B2202804D034
:100E58000227384607B0BDE8F08300951923012220
:100E680091492046FFF76AFC002840F0588194F821
:100E78003C30012B00F05581012384F83C30236875
:100E88001A6812F0010F03D11A6842F001021A60C1
:100E98002268136823F400631360222384F83D302A
:100EA800402384F83E30002323640E9B6362BDF820
:100EB8003C3063857D4BE362638D23850195009605
:100EC8004B46424639462046FFF73EFD074660B18D
:100ED800236C042B04D0002384F83C300327B8E7A4
:100EE800002384F83C300127B3E7238D5BB90293D4
:100EF80023685A6902929A690292029A1A6842F41D
:100F080000721A60A0E0012B0FD0022B21D02268BA
:100F1800136843F4806313600023059323685A69B8
:100F280005929B690593059B8EE02268136823F45C
:100F38008063136072B60023039323685A6903928F
:100F48009A690392039A1A6842F400721A6062B6A8
:100F58007AE02268136843F40063136072B60023D2
:100F6800049323685A6904929A690492049A1A6845
:100F780022F480621A6062B666E02A46314620464C
:100F8800FFF7ADFD68B923681A69636A591C616285
:100F98001A70238D013B2385638D013B9BB26385CA
:100FA80052E0236C202B01D0012752E7032750E79A
:100FB8000095334600223E492046FFF7BFFB002834
:100FC80040F0B18072B62268136843F4007313606E
:100FD80023681A69636A591C61621A70238D013B80
:100FE8002385638D013B9BB2638562B623681A69CA
:100FF800636A591C61621A70238D013B2385638DD6
:10100800013B9BB263851FE02268136843F40073B9
:10101800136023681A69636A591C61621A70238D08
:10102800013B2385638D013B9BB2638562B62368D0
:101038001A69636A591C61621A70238D013B238502
:10104800638D013B9BB26385238D002B5ED0032B00
:1010580030D8012B91D0022BAAD00095334600221C
:1010680013492046FFF76AFB00285ED122681368FF
:1010780023F48063136072B623681A69636A591C83
:1010880061621A70238D013B2385638D013B9BB2FE
:10109800638500953346002205492046FFF74EFB3D
:1010A8000028B1D00327D4E6020010000000FFFF9B
:1010B800040001002A4631462046FFF710FDF0B92A
:1010C80023681A69636A591C61621A70238D013B8F
:1010D8002385638D013B9BB2638523685A6912F0AF
:1010E800040FB1D01A69636A591C61621A70238DA2
:1010F800013B2385638D013B9BB26385A4E7236C89
:10110800202B01D00127A4E60327A2E6202384F898
:101118003D30002384F83E3084F83C3099E60227BD
:1011280097E6022795E6032793E6032791E600BF93
:1011380082B0084B1B68084AA2FB03235B0A00FB2A
:1011480003F3019300BF019B5A1E0192002BF9D1B2
:1011580002B0704714000020D34D621070B582B001
:101168000446036813F0010F2CD0AB4B5B6803F007
:101178000C03042B1DD0A84B5B6803F00C03082B51
:1011880012D06368B3F5803F41D0002B55D103F1ED
:10119800804303F504331A6822F480321A601A680F
:1011A80022F480221A6037E09B4B5B6813F4803F7F
:1011B800E7D0994B1B6813F4003F03D06368002BFA
:1011C80000F0AE81236813F0020F75D0924B5B6874
:1011D80013F00C0F5FD0904B5B6803F00C03082BE7
:1011E80054D02369002B00F089808C4B01221A60AF
:1011F800FFF7FCF80546884B1B6813F0020F74D103
:10120800FFF7F4F8401B0228F5D903208DE1824A44
:10121800136843F480331360636843B3FFF7E6F859
:1012280005467D4B1B6813F4003FCBD1FFF7DEF872
:10123800401B6428F5D9032077E1B3F5A02F09D026
:10124800754B1A6822F480321A601A6822F48022D8
:101258001A60E1E703F18043A3F53C331A6842F4CE
:1012680080221A601A6842F480321A60D4E7FFF7C5
:10127800BDF80546684B1B6813F4003FA2D0FFF782
:10128800B5F8401B6428F5D903204EE1624B5B6832
:1012980013F4803FA5D1604B1B6813F0020F03D0F5
:1012A8002369012B40F03E815B4A136823F0F80361
:1012B800616943EAC1031360236813F0080F32D051
:1012C800A369002B45D0564B01221A60FFF78EF810
:1012D8000546514B5B6A13F0020F21D1FFF786F8E0
:1012E800401B0228F5D903201FE14B4A136823F05D
:1012F800F803616943EAC1031360DDE7474B002245
:101308001A60FFF773F80546434B1B6813F0020F8A
:10131800D2D0FFF76BF8401B0228F5D9032004E16F
:101328000120FFF705FF236813F0040F00F09880F1
:10133800394BDB6913F0805F1DD1374BDA6942F016
:101348008052DA61DB6903F080530193019B012528
:1013580012E0334B00221A60FFF748F805462E4B7F
:101368005B6A13F0020FDED0FFF740F8401B02283B
:10137800F5D90320D9E000252A4B1B6813F4807F98
:1013880011D0E368012B22D0002B38D103F1804320
:1013980003F504331A6A22F001021A621A6A22F06B
:1013A80004021A6218E01F4A136843F4807313603A
:1013B800FFF71CF806461B4B1B6813F4807FE0D12F
:1013C800FFF714F8801B6428F5D90320ADE0124A12
:1013D800136A43F001031362E3687BB3FFF706F86F
:1013E80006460D4B1B6A13F0020F38D1FEF7FEFFBD
:1013F800801B41F288339842F3D9032095E0052BEE
:1014080012D0054B1A6A22F001021A621A6A22F0F7
:1014180004021A62E0E700BF0010024000004242E6
:101428008004424200700040424B1A6A42F00402B3
:101438001A621A6A42F001021A62CDE7FEF7D6FF75
:1014480006463C4B1B6A13F0020F08D0FEF7CEFF8E
:10145800801B41F288339842F3D9032065E0E5B94F
:10146800E369002B60D0334A526802F00C02082A64
:101478005DD0022B17D0304B00221A60FEF7B6FF62
:1014880004462C4B1B6813F0007F47D0FEF7AEFFD5
:10149800001B0228F5D9032047E0264AD36923F028
:1014A8008053D361DCE7244B00221A60FEF79EFFCD
:1014B8000546204B1B6813F0007F06D0FEF796FF09
:1014C800401B0228F5D903202FE0236AB3F5803F9B
:1014D8001AD018494B6823F47413226A606A0243CD
:1014E80013434B60144B01221A60FEF77FFF04463A
:1014F800104B1B6813F0007F0ED1FEF777FF001B1F
:101508000228F5D9032010E00A4A536823F400336F
:10151800A1680B435360DCE7002006E0002004E0EC
:10152800012002E0012000E0002002B070BD01208F
:10153800FBE700BF001002406000424286B0164B35
:101548000FCB0DF1180C0CE90F0040F20123ADF898
:101558000430124B5B6803F00C02082A02D01048D2
:1015680006B07047C3F38342624412F8102C13F498
:10157800803F0CD0094B5B68C3F34043634413F8C6
:10158800143C074800FB02F0B0FBF3F0E8E705481D
:1015980000FB02F0E4E700BFEC6F00080010024017
:1015A80000127A0000093D0070B504460D46614BF3
:1015B8001B6803F007038B420BD25E4A136823F0C3
:1015C80007030B431360136803F007038B4240F0D3
:1015D800AB80236813F0020F17D013F0040F04D068
:1015E800554A536843F4E0635360236813F0080FC7
:1015F80004D0514A536843F4605353604E4A5368C9
:1016080023F0F003A1680B435360236813F0010F24
:1016180052D06368012B23D0022B28D0464A126887
:1016280012F0020F00F0828043494A6822F0030258
:1016380013434B60FEF7DAFE06466368012B1DD0A4
:10164800022B2AD03C4B5B6813F00C0F34D0FEF70A
:10165800CDFE831B41F288329342F3D9032062E026
:10166800354A126812F4003FDED101205BE0324AAD
:10167800126812F0007FD7D1012054E02E4B5B682E
:1016880003F00C03042B17D0FEF7B0FE831B41F2C6
:1016980088329342F2D9032045E0274B5B6803F078
:1016A8000C03082B08D0FEF7A1FE801B41F28833FB
:1016B8009842F2D9032036E01E4B1B6803F007035B
:1016C800AB420AD91B4A136823F007032B43136064
:1016D800136803F00703AB422AD1236813F0040F01
:1016E80006D0154A536823F4E063E1680B4353605E
:1016F800236813F0080F07D00F4A536823F4605388
:10170800216943EAC1035360FFF718FF0A4B5B687E
:10171800C3F30313094AD35CD840094B186000206F
:10172800FEF726FE002070BD0120FCE70120FAE745
:101738000120F8E70020024000100240487100082C
:1017480014000020014B1868704700BF14000020E7
:1017580008B5FFF7F7FF044B5B68C3F30223034A9E
:10176800D35CD84008BD00BF001002405871000883
:10177800FEE7000008B503460C4A12685AB10B4A46
:101788001068033323F003030344094A934206D83D
:10179800064A136008BD054A06491160EFE701F0E3
:1017A80001FD0C2303604FF0FF30F3E7F401002044
:1017B800004C00209C02002001230360014B0B60B9
:1017C800704700BF0C0000200FB400B583B004AB15
:1017D80053F8042B01938021074803F05FFA00288F
:1017E80004DC03B05DF804EB04B07047014602481E
:1017F80000F034F8F5E700BFFC0100202DE9F043C4
:1018080085B004460F46435633BB04252846214677
:10181800ABBE0446384605B0BDE8F08314F9010BA9
:1018280004AA1A4402F8100C0133AB42F6D304AAF6
:101838001344002203F8102C4FF00408E9464046F0
:101848004946ABBE8046761B002EE3D03546102EA7
:1018580028BF10250023E8E70E46F5E708B5FFF78F
:10186800CDFF08BD08B500F099F8024A024B9A600E
:1018780008BD00BF0000000800ED00E008B500F05A
:10188800B3F808BDF8B504460D4617461E46274866
:10189800FFF79AFF21682648FFF796FF61682548F9
:1018A800FFF792FFA1682448FFF78EFFE1682348FD
:1018B800FFF78AFF21692248FFF786FF61692148FF
:1018C800FFF782FFA1692048FFF77EFFE1691F4803
:1018D800FFF77AFF1E48FFF777FF29461D48FFF7F5
:1018E80073FF1D4CE16A1D48FFF76EFF216B1C4812
:1018F800FFF76AFFE16B1B48FFF766FF15F0800FE3
:101908000AD115F4004F0CD11748FFF75DFF06996F
:101918001648FFF759FFF8BD39461548FFF754FF39
:10192800EFE731461348FFF74FFFEDE70070000877
:10193800107000082070000830700008407000081F
:10194800507000086070000870700008807000080F
:10195800907000089C70000800ED00E0AC70000872
:10196800BC700008CC700008FC7000080471000806
:10197800DC700008EC70000883691A888A4201D07C
:10198800002070470268033A012A01D900207047F5
:101998000233836101207047FEE700000F4B1A688D
:1019A80042F001021A6059680D4A0A405A601A68E2
:1019B80022F0847222F480321A601A6822F480229B
:1019C8001A605A6822F4FE025A604FF41F029A60A5
:1019D800044B4FF000629A60704700BF001002404D
:1019E8000000FFF800ED00E01F4B5B6803F00C03FC
:1019F800042B14D0082B16D01BB11C4B1C4A1A60A0
:101A080002E01A4B1A4A1A60174B5B68C3F30313B8
:101A1800184AD15C154A1368CB4013607047134BC2
:101A2800134A1A60F0E7104A53685268C3F38343B5
:101A3800023312F4803F05D10F4A02FB03F30B4A2D
:101A48001360E1E7084A526812F4003F05D00A4AD9
:101A580002FB03F3054A1360D6E7054A02FB03F3CA
:101A6800024A1360D0E700BF0010024014000020B3
:101A780000127A004871000800093D0010B582B0D4
:101A880000238DF80730446901230DF10702D021A6
:101A9800A047002804DB9DF80730602B02D1012005
:101AA80002B010BD6FF01200FAE7000010B582B066
:101AB80053009BB241F2883200920A4601790068CD
:101AC800FFF7F2F8044610B9204602B010BD0146EF
:101AD800014800F0AFFEF7E76071000810B584B068
:101AE80041F2883402949BB20193009201230A4682
:101AF80001790068FFF79CF9044610B9204604B044
:101B080010BD0146014800F095FEF7E79071000806
:101B180030B589B0044600230193029303930493DC
:101B280005930693ADF81C3045691A2301AA88214C
:101B3800A8470028C0F282809DF805209DF804304F
:101B480043EA0223A3839DF807209DF8063043EA61
:101B58000223E3839DF809209DF8083043EA022315
:101B680023849DF80B209DF80A3043EA02236384FE
:101B78009DF80D209DF80C3043EA0223A3849DF8BC
:101B88000F209DF80E3043EA0223E3849DF81120CC
:101B98009DF8103043EA022323859DF813209DF811
:101BA800123043EA022363859DF815209DF814300E
:101BB80043EA0223A3859DF817209DF8163043EACF
:101BC8000223E3859DF819209DF8183043EA022383
:101BD80023869DF81B209DF81A3043EA022363866A
:101BE8009DF81D3084F834306569072301AAE12186
:101BF8002046A847002821DB9DF805209DF80430E1
:101C080043EA0223E3869DF8063084F838309DF9CC
:101C1800072092B2120112B29DF8081001F00F03CA
:101C28001A4362879DF909309BB21B011BB243EA34
:101C38001113A3879DF90A3084F83E3009B030BDEE
:101C480030B583B00446456904230DEB0302F22145
:101C5800A847002817DB9DF8043003F0070384F831
:101C680046309DF80630C3F3820284F844205B09AD
:101C780084F845309DF80730C3F3820284F8472082
:101C88005B0984F8483003B030BD70B582B00446B3
:101C98000D4611F0010F24D090F8463003F00703E9
:101CA800F2228DF804208DF805308369012201A9FC
:101CB800984700284BDB94F844309B0003F01C0342
:101CC80094F8452043EA4213F4228DF804208DF855
:101CD8000530A369012201A920469847002801DAA6
:101CE80035E0012015F0060F31D0666901230DF1AA
:101CF8000702F5212046B047002828DB15F0020F1F
:101D08000CD09DF8073023F01C035BB294F84720F1
:101D1800920002F01C0213438DF8073015F0040FEF
:101D280009D09DF8073003F01F0394F8482043EAD0
:101D380042138DF807309DF80730F5228DF80420FE
:101D48008DF80530A369012201A92046984702B001
:101D580070BD70B582B004460D46466901230DF189
:101D68000702F421B047002814DB9DF8073023F060
:101D780003035BB205F003010B43DBB28DF80730B8
:101D8800F4228DF804208DF80530A369012201A9F9
:101D98002046984702B070BD10B582B0E0238DF898
:101DA8000430B6238DF805308369012201A99847CC
:101DB800041E02DB0220FEF71FFB204602B010BD06
:101DC80030B583B00C46002300930193456908237E
:101DD8006A46F721A84700281EDB9DF800109DF8E9
:101DE80001301B019DF8022043EA013343EA121334
:101DF80023609DF803109DF804301B019DF8052011
:101E080043EA013343EA121363609DF806209DF804
:101E1800073043EA0223A36003B030BD70B584B035
:101E280004460E4615460C2A01D0182A30D101A9BD
:101E38002046FFF7C5FF002817DB0C2D17D0182DFB
:101E480029D11C34214601A800F08EF8C6E900010A
:101E5800214601A800F0B0F9C6E90201214601A80F
:101E680000F030FAC6E90401284604B070BD1C34FD
:101E7800214601A800F0E2FA3060214601A800F0EE
:101E88007FFB7060214601A800F0BCFBB060EBE767
:101E98006FF01500E9E76FF01500E6E738B5E0B137
:101EA800054601600271124B4361124B8361FFF7D3
:101EB80073FF041E0FDB2846FFF7E0FD041E0ADB54
:101EC8002846FFF725FE041E0DDB0B4800F0B2FC88
:101ED8000A4800F0AFFC204638BD094800F0AAFCCB
:101EE8006FF00B04F7E72146064800F0A3FCF2E781
:101EF800E51A0008B51A00082C720008507200088C
:101F0800C0710008F471000830B583B00446052399
:101F18008DF800308DF801308DF8023000238DF8EF
:101F2800033002238DF8043002AB13E90300606428
:101F380084F8481007212046FFF7A7FE054603212D
:101F48002046FFF706FF284303B030BD38B50546E5
:101F5800FFF776FE041E02DB2846FFF7D5FF204672
:101F680038BD0000000000002DE9F84F83468A467E
:101F7800486A00F0EBFD0022874B00F051FE00227A
:101F8800864B00F095FC04460D4602460B4600F0D1
:101F980047FE06460F46BAF9100000F0D7FD024684
:101FA8000B463046394600F03BFE00224FF07C538A
:101FB80000F036FE06460F46BAF90E0000F0C6FDE0
:101FC80022462B4600F02CFE02460B4600F072FC1F
:101FD80032463B4600F06EFC0022714B00F020FEBA
:101FE80006460F46BAF90C0000F0B0FD00226D4B12
:101FF80000F016FE02460B463046394600F05AFC01
:1020080080468946BAF90A0000F0A0FD22462B4610
:1020180000F006FE22462B4600F002FE00224FF09A
:102028007B5300F0FDFD06460F46BAF9080000F0A4
:102038008DFD22462B4600F0F3FD32463B4600F06C
:1020480039FC00224FF07B5300F0EAFD00224FF0EC
:102058007C5300F0E5FD0022534B00F02BFC0446B6
:102068000D46BAF8060000F061FD02460B46204610
:10207800294600F0D5FD04460D460022002301F054
:1020880037F8002870D1DBF8000000F04FFD024659
:102098000B460020454900F00BFC06460F4600227F
:1020A800434B4046494600F0BBFD02460B463046CE
:1020B800394600F0FDFB32A3D3E9002300F0B0FD60
:1020C80022462B4600F0D6FE04460D46BAF9160005
:1020D80000F03CFD22462B4600F0A2FD22462B468E
:1020E80000F09EFD00224FF0785300F099FD06465F
:1020F8000F46BAF9140000F029FD22462B4600F0DD
:102108008FFD00224FF07C5300F08AFD02460B46FB
:102118003046394600F0CEFB06460F46BAF91200A3
:1021280000F014FD02460B463046394600F0C2FB6B
:102138000022204B00F074FD22462B4600F0BAFB2B
:1021480004460D4610A3D3E9002300F0DBFF90B945
:102158000FA3D3E900232046294600F0F1FF30B150
:102168000BA5D5E9004502E007A5D5E900452046BD
:102178002946BDE8F88F04A5D5E90045F7E700BF73
:1021880000000000006AB84000000000004CDD407C
:102198000000000000DBFA400000E03F0040EF4094
:1021A8000000D03F0000F0400000F03F0000304148
:1021B8000000303F0000B03F2DE9F0478A464068F4
:1021C80000F0B4FC06460F460022374B00F028FD0D
:1021D80080468946BAF8000000F0A8FC04460D467F
:1021E8000022324B00F01CFD02460B464046494691
:1021F80000F05EFB80468946BAF9020000F0A6FCB2
:1022080042464B4600F00CFD804689460022284B8A
:102218003046394600F004FD06460F460022254B9D
:102228002046294600F0FCFC02460B46304639465B
:1022380000F03EFB02460B4600F0F2FC04460D4659
:10224800BAF9040000F082FC02460B4620462946F3
:1022580000F0E6FC02460B464046494600F02AFBE1
:1022680004460D4600F076FFCAF824000022124BFF
:102278002046294600F0FEFD04460D4600220F4B7D
:1022880000F040FF48B900220D4B2046294600F0D7
:1022980057FF20B100240A4D01E00024074D2046D5
:1022A8002946BDE8F08700BF0000103F0000503FFE
:1022B8000000E03E0000203F0000B440000044C0A1
:1022C800004055402DE9F04784B080468A46486A68
:1022D80000F03CFC0022524B00F0EAFA06460F469A
:1022E800BAF91E0000F032FC00224E4B00F098FCB8
:1022F80004460D46BAF9200000F028FC00224A4B9B
:1023080000F08EFC32463B4600F08AFC02460B4643
:102318002046294600F0CEFA04460D46D8F80800B3
:1023280000F004FC22462B4600F0C2FACDE9000179
:10233800BAF91A0000F00AFC00223C4B00F070FCCD
:10234800CDE902019AF81C0000F0F0FB0022384B9E
:1023580000F066FC32463B4600F062FC0022354B3A
:1023680000F0A8FA04460D469AF9220000F0EEFBA8
:1023780000222F4B00F054FC32463B4600F050FC44
:1023880022462B4600F04CFC00222A4B00F092FA21
:1023980080468946DDE90223DDE9000100F040FCC2
:1023A80006460F4642464B462046294600F038FC72
:1023B80002460B463046394600F032FC04460D46CC
:1023C8009AF8180000F0B2FB22462B4600F028FCD1
:1023D80000224FF07B5300F023FC02460B460020FE
:1023E800144900F065FA22462B4600F019FC044611
:1023F8000D460022104B00F0A3FE48B9002200232E
:102408002046294600F07EFE20B10024002501E088
:102418000024094D2046294604B0BDE8F08700BFD6
:1024280000C0F240000050400000103F0000F03EA5
:102438000000503E0000F03F0000594070B44B6A65
:1024480003EBD3735B10A3F57A431A46002B68DBC2
:10245800921002FB02F21546002A64DBED12B1F974
:102468001060B1F90E4003FB04F4640006FB054458
:10247800002C5BDBB1F90C502D0405EBA405B1F978
:102488000A601446002A53DB621302FB06F2002A94
:1024980052DBB1F9084003FB04F303EBD3735B1081
:1024A80013EBE2034AD49B1403F50043CA8802FBEA
:1024B80003F3002B47DBDB1359D00068C0F580100D
:1024C8002A46002D43DBA0EB223240F6354000FBC4
:1024D80002F000283EDB4000B0FBF3F3B1F9162010
:1024E800DC0804FB04F4640B04FB02F2002A35DB6D
:1024F80012139808B1F9144004FB00F0002830DBEF
:1025080002EB6032B1F9120012182ED403EB22103C
:1025180047F22F5398422ED9184B984229D9174879
:1025280027E0DA1C94E702F2FF7597E70334A1E786
:1025380002F5FF541F34A7E70732AAE703F57F33F4
:1025480003F2FF33AFE703F5FF437F33B3E705F645
:10255800FF72B8E7B0FBF3F35B00BFE702F6FF7268
:10256800C6E700F5FF501F30CAE70F32CEE747F243
:10257800305070BC704747F23050FAE7B0AD0100F8
:1025880010B440680A885300C3EBD003B1F9024085
:1025980003FB04F3002B1EDBDB12C2EB101202FB61
:1025A80002F2002A1ADB1213B1F9040000FB02F24E
:1025B800002A16DB03EBA2334B6203EB830313F110
:1025C800800012D400120C4A934210DB0B4A93424B
:1025D8000FDA10BC704703F2FF73DDE702F6FF72F3
:1025E800E1E702F57F523F32E4E7FF30EAE70448CB
:1025F800EFE742F23410ECE7815EF0FF803421000F
:1026080060F0FFFF10B44C6AA4F596348268B1F903
:102618001E000005B1F92030C0EB823004FB130323
:1026280013F5804341D4D81391F9222004FB02F218
:10263800002A3EDB92120B7F04FB03F4002C3BDBE9
:10264800E41204F5004402FB04F2002A37DB93127B
:1026580003F50013B1F91A2003FB02F313F5005335
:1026680030D49B1303FB00F31A46002B2EDBD21346
:1026780002FB02F2002A2DDBD211097E02FB01F2D5
:10268800002A29DBA3EB221323EAE373B3F1C85F23
:10269800A8BF4FF0C8531A46002B1FDB1313184668
:1026A800B3F5C83F1DD810BC704703F5FF437F330F
:1026B800B9E702F2FF32BDE704F2FF74C0E702F2A5
:1026C800FF32C4E703F57F533F33CAE703F5FF4200
:1026D8007F32CCE77F32CFE70F32D3E703F6FF72C2
:1026E800DCE74FF4C830DEE710B590B024220021B3
:1026F80007A800F06BFD002401940294039404944D
:1027080005940223069301230A9310230B9306A82A
:10271800FEF724FD0F230193029403940494059477
:10272800214601A8FEF740FF10B010BD70B5B8B043
:10273800FDF744FEFFF7D8FF374DAB6943F00803B8
:10274800AB61AB6903F008030493049B0024219454
:10275800C0231F9312232093032322932F4E1FA9D4
:102768003046FDF7B9FE012240213046FDF7CBFF88
:10277800012280213046FDF7C6FFEB6943F40013C0
:10278800EB61EB6903F400130593059B244B23933A
:10279800244B24934FF4804325932694279328941D
:1027A80029942A942B9423A8FEF7C8F920213046AF
:1027B800FDF7A2FF01461C48FFF706F8EC2223A903
:1027C8000CA8FFF76BFB0CA8FFF7C0FB21464C1CBD
:1027D8001648FEF7F9FF0023069307930893099319
:1027E8000A930B9318220DEB02010CA8FFF716FBB6
:1027F800DDE90A23CDE90223DDE90823CDE9002339
:10280800DDE906230A48FEF7DFFF4FF47A70FDF78B
:10281800F3FD2146DBE700BF00100240000C014039
:1028280000540040A08601007C72000894720008E1
:10283800A47200080FB400B5B5B036AA52F8041B4C
:10284800019202A802F04EFA02A90448FEF7BCFF62
:1028580035B05DF804EB04B0704700BFC8720008DB
:1028680082B00A4B9A6942F001029A619A6902F0B1
:1028780001020092009ADA6942F08052DA61DB695B
:1028880003F080530193019B02B07047001002408F
:102898007047FEE7FEE7FEE7FEE7704770477047C0
:1028A80008B5FDF797FD08BD81F0004102E000BFC3
:1028B80083F0004330B54FEA41044FEA430594EAF8
:1028C800050F08BF90EA020F1FBF54EA000C55EA33
:1028D800020C7FEA645C7FEA655C00F0E2804FEA04
:1028E8005454D4EB5555B8BF6D420CDD2C4480EAE6
:1028F800020281EA030382EA000083EA010180EA16
:10290800020281EA0303362D88BF30BD11F0004F63
:102918004FEA01314FF4801C4CEA113102D0404299
:1029280061EB410113F0004F4FEA03334CEA1333D4
:1029380002D0524263EB430394EA050F00F0A780EC
:10294800A4F10104D5F1200E0DDB02FA0EFC22FAE7
:1029580005F2801841F1000103FA0EF2801843FADB
:1029680005F359410EE0A5F120050EF1200E012ACC
:1029780003FA0EFC28BF4CF0020C43FA05F3C0180A
:1029880051EBE37101F0004507D54FF0000EDCF183
:10299800000C7EEB00006EEB0101B1F5801F1BD32C
:1029A800B1F5001F0CD349085FEA30004FEA3C0C30
:1029B80004F101044FEA445212F5800F80F09A8026
:1029C800BCF1004F08BF5FEA500C50F1000041EB2A
:1029D800045141EA050130BD5FEA4C0C404141EB2E
:1029E8000101013C28BFB1F5801FE9D291F0000F29
:1029F80004BF01460020B1FA81F308BF2033A3F1D8
:102A08000B03B3F120020CDA0C3208DD02F1140CCE
:102A1800C2F10C0201FA0CF021FA02F10CE002F109
:102A28001402D8BFC2F1200C01FA02F120FA0CFC02
:102A3800DCBF41EA0C019040E41AA2BF01EB04514B
:102A4800294330BD6FEA04041F3C1CDA0C340EDC49
:102A580004F11404C4F1200220FA04F001FA02F38C
:102A680040EA030021FA04F345EA030130BDC4F14A
:102A78000C04C4F1200220FA02F001FA04F340EA3F
:102A88000300294630BD21FA04F0294630BD94F0F0
:102A9800000F83F4801306BF81F480110134013DD7
:102AA8004EE77FEA645C18BF7FEA655C29D094EA48
:102AB800050F08BF90EA020F05D054EA000C04BFC6
:102AC8001946104630BD91EA030F1EBF00210020B1
:102AD80030BD5FEA545C05D14000494128BF41F050
:102AE800004130BD14F580043CBF01F5801130BDB4
:102AF80001F0004545F0FE4141F470014FF000003F
:102B080030BD7FEA645C1ABF194610467FEA655CEF
:102B18001CBF0B46024650EA013406BF52EA033591
:102B280091EA030F41F4002130BD00BF90F0000F7F
:102B380004BF0021704730B54FF4806404F13204BB
:102B48004FF000054FF0000150E700BF90F0000F74
:102B580004BF0021704730B54FF4806404F132049B
:102B680010F0004548BF40424FF000013EE700BF6B
:102B780042004FEAE2014FEA31014FEA02701FBFFB
:102B880012F07F4393F07F4F81F06051704732F02D
:102B98007F4208BF704793F07F4F04BF41F4002184
:102BA800704730B54FF4607401F0004521F00041E2
:102BB8001CE700BF50EA010208BF704730B54FF06C
:102BC80000050AE050EA010208BF704730B511F06D
:102BD800004502D5404261EB41014FF4806404F1A5
:102BE80032045FEA915C3FF4D8AE4FF003025FEA2B
:102BF800DC0C18BF03325FEADC0C18BF033202EBAF
:102C0800DC02C2F1200300FA03FC20FA02F001FA08
:102C180003FE40EA0E0021FA02F11444BDE600BFAB
:102C280070B54FF0FF0C4CF4E06C1CEA11541DBF5A
:102C38001CEA135594EA0C0F95EA0C0F00F0DEF825
:102C48002C4481EA030621EA4C5123EA4C5350EA0A
:102C5800013518BF52EA033541F4801143F480135B
:102C680038D0A0FB02CE4FF00005E1FB02E506F0EC
:102C78000042E0FB03E54FF00006E1FB03569CF041
:102C8800000F18BF4EF0010EA4F1FF04B6F5007F47
:102C980064F5407404D25FEA4E0E6D4146EB0606B9
:102CA80042EAC62141EA55514FEAC52040EA5E5042
:102CB8004FEACE2EB4F1FD0C88BFBCF5E06F1ED8EC
:102CC800BEF1004F08BF5FEA500E50F1000041EB23
:102CD800045170BD06F0004646EA010140EA0200D0
:102CE80081EA0301B4EB5C04C2BFD4EB0C0541EAF2
:102CF800045170BD41F480114FF0000E013C00F307
:102D0800AB8014F1360FDEBF002001F0004170BD2A
:102D1800C4F10004203C35DA0C341BDC04F1140443
:102D2800C4F1200500FA05F320FA04F001FA05F2CF
:102D380040EA020001F0004221F0004110EBD3709C
:102D480021FA04F642EB06015EEA430E08BF20EAC8
:102D5800D37070BDC4F10C04C4F1200500FA04F36B
:102D680020FA05F001FA04F240EA020001F00041FD
:102D780010EBD37041F100015EEA430E08BF20EA70
:102D8800D37070BDC4F1200500FA05F24EEA020EB8
:102D980020FA04F301FA05F243EA020321FA04F0E7
:102DA80001F0004121FA04F220EA020000EBD3709E
:102DB8005EEA430E08BF20EAD37070BD94F0000F9E
:102DC8000FD101F00046400041EB010111F4801FD2
:102DD80008BF013CF7D041EA060195F0000F18BF83
:102DE800704703F00046520043EB030313F4801FBF
:102DF80008BF013DF7D043EA0603704794EA0C0F79
:102E08000CEA135518BF95EA0C0F0CD050EA41068E
:102E180018BF52EA4306D1D181EA030101F000410B
:102E28004FF0000070BD50EA410606BF1046194633
:102E380052EA430619D094EA0C0F02D150EA01363F
:102E480013D195EA0C0F05D152EA03361CBF104680
:102E580019460AD181EA030101F0004141F0FE411F
:102E680041F470014FF0000070BD41F0FE4141F4A3
:102E7800780170BD70B54FF0FF0C4CF4E06C1CEAA3
:102E880011541DBF1CEA135594EA0C0F95EA0C0F58
:102E980000F0A7F8A4EB050481EA030E52EA033513
:102EA8004FEA013100F088804FEA03334FF0805534
:102EB80045EA131343EA12634FEA022245EA111561
:102EC80045EA10654FEA00260EF000419D4208BF12
:102ED800964244F1FD0404F5407402D25B084FEABF
:102EE8003202B61A65EB03055B084FEA32024FF46B
:102EF80080104FF4002CB6EB020E75EB030E22BFC8
:102F0800B61A754640EA0C005B084FEA3202B6EB87
:102F1800020E75EB030E22BFB61A754640EA5C0036
:102F28005B084FEA3202B6EB020E75EB030E22BFC6
:102F3800B61A754640EA9C005B084FEA3202B6EBC7
:102F4800020E75EB030E22BFB61A754640EADC0086
:102F580055EA060E18D04FEA051545EA16754FEAE8
:102F680006164FEAC30343EA52734FEAC2025FEA06
:102F78001C1CC0D111F4801F0BD141EA00014FF095
:102F880000004FF0004CB6E711F4801F04BF014366
:102F98000020B4F1FD0C88BFBCF5E06F3FF6AFAE82
:102FA800B5EB030C04BFB6EB020C5FEA500C50F112
:102FB800000041EB045170BD0EF0004E4EEA113195
:102FC80014EB5C04C2BFD4EB0C0541EA045170BD9C
:102FD80041F480114FF0000E013C90E645EA060EE0
:102FE8008DE60CEA135594EA0C0F08BF95EA0C0F0E
:102FF8003FF43BAF94EA0C0F0AD150EA01347FF456
:1030080034AF95EA0C0F7FF425AF104619462CE72C
:1030180095EA0C0F06D152EA03353FF4FDAE10468F
:10302800194622E750EA410618BF52EA43067FF4E0
:10303800C5AE50EA41047FF40DAF52EA43057FF470
:10304800EBAE12E74FF0FF3C06E000BF4FF0010C7B
:1030580002E000BF4FF0010C4DF804CD4FEA410CDF
:103068007FEA6C5C4FEA430C18BF7FEA6C5C1BD0AC
:1030780001B050EA410C0CBF52EA430C91EA030F2D
:1030880002BF90EA020F0020704710F1000F91EA8A
:10309800030F58BF994208BF90422CBFD8176FEA58
:1030A800E37040F0010070474FEA410C7FEA6C5C26
:1030B80002D150EA013C07D14FEA430C7FEA6C5C2D
:1030C800D6D152EA033CD3D05DF8040B704700BF59
:1030D8008446104662468C461946634600E000BFA7
:1030E80001B5FFF7B7FF002848BF10F1000F01BD79
:1030F8004DF808EDFFF7F4FF0CBF012000205DF844
:1031080008FB00BF4DF808EDFFF7EAFF34BF0120C8
:1031180000205DF808FB00BF4DF808EDFFF7E0FF61
:1031280094BF012000205DF808FB00BF4DF808EDB2
:10313800FFF7CEFF94BF012000205DF808FB00BF19
:103148004DF808EDFFF7C4FF34BF012000205DF8FB
:1031580008FB00BF4FEA410212F5001215D211D543
:103168006FF47873B3EB625212D94FEAC12343F07C
:10317800004343EA505311F0004F23FA02F018BFFE
:10318800404270474FF00000704750EA013005D1C7
:1031980011F0004008BF6FF0004070474FF000008A
:1031A800704700BF014B1868704700BF1800002027
:1031B8000A44914200F1FF3300D1704710B511F86D
:1031C800014B914203F8014FF9D110BD0346024467
:1031D800934200D1704703F8011BF9E7002B2DE952
:1031E800F0471F46BBBF03F100431F4600232D23B2
:1031F80088B01446129A109D1370149BDDF84CA0E9
:1032080023F02008B8F1460F05D0B8F1450F00D1DA
:103218000135022300E0032307AA049206AACDE998
:1032280002A2CDE9003522463B4601F0F5FDB8F192
:10323800470F064602D1119BDB0722D5B8F1460F8E
:1032480006EB050910D13378302B0AD10022002370
:1032580020463946FFF74CFF18B9C5F10105CAF8F1
:103268000050DAF8003099440022002320463946FD
:10327800FFF73EFF08B1CDF81C903022079B4B4565
:1032880007D33046079B159A9B1B136008B0BDE80F
:10329800F087591C07911A70F0E70346F7B5002923
:1032A80003F8022BB6BF2D222B224942092942706E
:1032B8002BDD0DF10704A4460A2791FBF7F60A4611
:1032C800A64607FB1615632A05F13005314604F1B9
:1032D800FF340EF8015CF0DC3031AEF1020504F881
:1032E800011C2946441C61450AD30DF10902A2EBD1
:1032F8000E02654588BF00221344181A03B0F0BDBA
:1033080011F8012B04F8012FEDE7302330318370D9
:10331800C170031DF1E700002DE9F04F91B00C4694
:10332800DDF8688016461F46054602F09BFE0368D6
:103338001846099300F0E8FD00230E93D8F80030F2
:103348000A90073323F0070303F1080294F8189052
:10335800D4F800B0C8F80020D3E90023C4E9122348
:10336800D4E9128A2AF000430B934FF0FF3240460B
:103378009C4B0B9903F078FD70BB4FF0FF32404631
:10338800984B0B99FFF7C8FE30BB0022002340463C
:103398005146FFF7B7FE10B12D2384F84330924B06
:1033A8009248B9F1470F94BF9846804603234FF0DF
:1033B800000A23612BF00403236033462146284684
:1033C80000970FAA00F0D4F9013040F090804FF038
:1033D800FF3011B0BDE8F08F424653464046514693
:1033E80003F042FD48B1BAF1000FB8BF2D23804861
:1033F800B8BF84F843307F4BD3E7636809F0DF0137
:103408005A1C42D106236360002206920EAACDE917
:1034180004920DAA4BF4806303920DF13302CDE9B7
:1034280001322360636842460093284653460B9155
:10343800FFF7D4FE0B99804647290D9908D1C81C7F
:1034480002DB6368994240DDA9F102095FFA89F954
:10345800B9F1650F1FD84A46013904F150000D91A2
:10346800FFF71BFF0E9A82461318012A236102DC1C
:103478002268D20701D5013323619DF83330002B30
:103488009BD02D2384F8433097E74729BCD1002BE4
:10349800BAD10123B7E7B9F1660F18D100296368DB
:1034A8000BDD216113B92268D00702D501330B4423
:1034B80023614FF0000AA165DFE713B92268D2073C
:1034C80001D50233F4E70123F2E74FF067090E9BB9
:1034D800994205DB23682161D807EAD54B1CE7E749
:1034E8000029CCBF0122C1F102021344E0E723689E
:1034F8005A0507D42369424631462846B847013061
:103508002BD164E7B9F1650F40F2DD80D4E91201EF
:1035180000220023FFF7ECFD002833D001233146B9
:103528002846354AB84701303FF451AFDDE90D234D
:103538009A4202DB2368D8070FD5DDE90923314613
:103548002846B84701303FF442AF4FF0000804F175
:103558001A090E9B013B434509DC23689B0700F1D0
:103568000281E0680F9B9842B8BF184631E70123F3
:103578004A4631462846B84701303FF428AF08F19B
:103588000108E6E70D9B002B38DC0123314628466D
:10359800194AB84701303FF41AAFDDE90D23134348
:1035A80002D12368D907D8D5DDE909233146284651
:1035B800B84701303FF40BAF4FF0000904F11A0A85
:1035C8000D9B5B424B4501DC0E9B94E70123524661
:1035D80031462846B84701303FF4F9AE09F10109F0
:1035E800EEE700BFFFFFEF7FCB720008CF72000845
:1035F800D7720008D3720008DB7200080E9AA36D18
:103608009A42A8BF1A46002A914637DC4FF0000BB1
:1036180029EAE97904F11A02D4F858A0AAEB0903B7
:103628005B4533DCDDE90D239A423BDB2368DA078F
:1036380038D40E9A0D99A2EB0A03A2EB0109994519
:10364800A8BF9946B9F1000F34DC4FF0000829EA09
:10365800E97904F11A0ADDE90D239B1AA3EB0903A2
:1036680043457FF77AAF0123524631462846B8478B
:1036780001303FF4ACAE08F10108ECE713463146DF
:1036880042462846B8470130C0D1A0E6012331465A
:1036980028460B92B84701303FF499AE0B9A0BF1CC
:1036A800010BB9E73146DDE909232846B84701305F
:1036B800BFD18CE64B463146284608EB0A02B8478C
:1036C8000130C2D183E60E9A012A01DCDB0737D527
:1036D8000123424631462846B84701303FF477AEC9
:1036E800DDE9092331462846B84701303FF46FAE7B
:1036F800D4E9120100220023FFF7FAFCD8B90E9B87
:1037080008F10102013B31462846B84701300ED185
:103718005DE601234A4631462846B84701303FF462
:1037280056AE08F101080E9B013B4345F1DC5346B8
:1037380004F15002E0E64FF0000804F11A09F2E73C
:1037480001234246DFE701234A4631462846B84767
:1037580001303FF43CAE08F10108E3680F995B1AA9
:103768004345F0DCFDE64FF0000804F11909F4E7E1
:103778002DE9F047164699468A680B690746934231
:10378800B8BF1346336091F843200C46DDF820801B
:103798000AB1013333602368990642BF33680233A4
:1037A8003360256815F0060506D104F1190AE368A7
:1037B80032689B1AAB4228DC94F84320131E226817
:1037C80018BF012392062DD44946384604F1430216
:1037D800C047013020D02368E56803F00603042BB6
:1037E80018BF002532684FF00006A36808BFAD1A5D
:1037F800226908BF25EAE5759342C4BF9B1AED18F4
:103808001A34B5421AD1002008E00123524649462D
:103818003846C047013003D14FF0FF30BDE8F0878C
:103828000135C4E73020E11881F843005A1C94F8A8
:1038380045102244023382F84310C5E7012322468B
:1038480049463846C0470130E6D00136D9E700007E
:103858002DE9FF470C46277E9146782F80469A46E9
:103868000C9904F1430207D8622F0AD8002F00F000
:10387800D980582F00F0A48004F1420684F84270E1
:103888003AE0A7F16303152BF6D801A050F823F00E
:10389800F138000805390008813800088138000827
:1038A8008138000881380008053900088138000887
:1038B800813800088138000881380008133A000868
:1038C80035390008F53900088138000881380008C2
:1038D800353A000881380008353900088138000871
:1038E80081380008FD3900080B6804F142061A1DEA
:1038F8001B680A6084F842300123A4E02568086840
:103908002E0600F104030AD505680B60002D03DAC2
:103918002D236D4284F843300A235E4819E015F0E0
:10392800400F05680B6018BF2DB2EFE70B682568DC
:10393800181D0860280601D51D6802E06906FBD538
:103948001D886F2F0CBF08230A235248002184F8D2
:1039580043106668002EA8BF2168A660A4BF21F0A6
:10396800040121600DB9002E4DD01646B5FBF3F1C8
:1039780003FB1157C75D06F8017D2F46BB420D4674
:10398800F4D9082B0BD12368DF0708D523696168B0
:103998009942DEBF302306F8013C06F1FF36921B40
:1039A80022614B4621464046CDF800A003AAFFF706
:1039B800DFFE01304CD14FF0FF3004B0BDE8F08796
:1039C800344884F845700E68236856F8045B1F066F
:1039D8000E6014D5D90744BF43F0200323601DB9F6
:1039E800236823F0200323601023AFE7236843F004
:1039F800200323607823284884F84530E3E75E06EF
:103A080048BFADB2E6E71646BBE70B6826681D1D42
:103A180060690D6035061B6801D5186002E0710603
:103A2800FBD51880002316462361BAE70B681A1DD8
:103A38000A601E6800213046626802F031FB08B156
:103A4800801B606063682361002384F84330A8E723
:103A58003246494640462369D0470130ABD02368F7
:103A68009B0713D4E068039B9842B8BF1846A4E7A5
:103A78000123324649464046D04701309BD00135A4
:103A8800E36803995B1AAB42F2DCEBE7002504F12B
:103A98001906F5E7DD720008EE7200082DE9F04F0F
:103AA80087B003938B6817465A1EB2F5AE7F85BF61
:103AB8006FF4AE755B190023029388BF40F25D1363
:103AC8008B464FF000058CBF8B6002930B688046D5
:103AD80043F4F0634BF81C3B0C465E46AA46A946E5
:103AE800CDE904550195A26852B13B681B784E2B6D
:103AF80064D8402B3CD8A3F12B01C8B20E283AD980
:103B0800B9F1000F03D0236823F4807323600AF10E
:103B1800FF3ABAF1010F00F213815E4500F2058108
:103B28000125284607B0BDE8F08FA3F161020D2AF0
:103B3800E6D801A151F822F07F3C0008093B0008B3
:103B4800093B0008093B0008DF3C0008B73C0008B7
:103B5800093B0008093B00088D3C0008093B0008A8
:103B6800093B0008093B0008093B0008453C0008E0
:103B7800A3F14102DBE70E29C2D801A050F821F0D9
:103B8800373C0008093B0008373C0008CB3C0008DC
:103B9800093B0008E53B0008213C0008213C0008DF
:103BA800213C0008213C0008213C0008213C000879
:103BB800213C0008213C0008213C00086E2B09D854
:103BC800602BB2D8542B77D0592B99D1072D97D188
:103BD800082529E0742B6FD0792BF6E72168C805F2
:103BE8001AD5029B21F08001216009F101091BB15E
:103BF800013B01320293A260A368013BA3602369E1
:103C0800013323617B68013B002B7B6040F3848098
:103C18003B6801333B6066E71AEB050F7FF470AF32
:103C2800226822F4C072226006F8013BE4E72268A9
:103C380010067FF565AF22F08002F4E7BAF1000FB5
:103C48000ED1B9F1000F0ED1226802F4E061B1F58E
:103C5800E06F08D122F4F0624FF0010A2260E3E736
:103C6800BAF1020F55D0012D02D0042D7FF448AFD0
:103C78000135EDB2D8E7BAF1010F7FF441AF4FF04B
:103C8800020AD1E77DB9B9F1000F7FF43CAF226891
:103C980002F4E061B1F5E06F7FF439AF22F4F0622D
:103CA80001252260C0E7032DE2D0052DDEE7022DB5
:103CB8007FF426AF0325B7E7062D7FF421AF07254C
:103CC800B2E7226891057FF51BAF22F420722260CB
:103CD800CDF80490A8E7226802F4A061B1F5806FDE
:103CE80006D050057FF50CAFB9F1000F3FF40FAFC8
:103CF800910558BF019922F4F06258BFA9EB010160
:103D080042F4C0724FF0000958BFCDE90416226092
:103D18008AE74FF0030A87E739464046D4F88031EE
:103D2800984700283FF4DFAEEAE6D4F87C313A46FB
:103D3800404616F8011D98472369013B2361ECE6CC
:103D48006B1E062B25D8022D36D85E457FF6E8AEC9
:103D5800D4F87C313A46404616F8011D9847236945
:103D6800013B2361F1E70298D4F87C3110F8011D7A
:103D78003A460290404698472369013B23610AF17D
:103D8800FF3A5FFA8AFABAF1020FECD1033DEDB2BD
:103D9800761B2368DA052FD55B0510D55E457FF6BF
:103DA800BFAED4F87C313A46404616F8011D984714
:103DB8002369013B2361F1E7AA460296DFE716F87B
:103DC800011C2369652903F1FF3306F1FF352361DF
:103DD8000CD045290AD0D4F87C313A464046984759
:103DE800236916F8021C013BB51E23613A4640467A
:103DF800D4F87C3198472E46256815F0100559D11E
:103E08003570236803F4C063B3F5806F1CD1019B40
:103E18004B45A3EB090224D100225946404600F045
:103E28008FFED4F800C0039B1CF0020F06460F4615
:103E38001B6821D003991A1D0A601B68C3E9006733
:103E4800E3680133E3606CE6049B002BE4D005993A
:103E58000A232A464046013100F0F2FE049B059EE3
:103E6800C21A04F26F139E4228BF04F5B776304693
:103E7800114900F029F8CFE71CF0040F03F1040EF4
:103E880003D00399C1F800E0D7E7039AC2F800E02D
:103E9800D3F8008002460B4602F0E6FF28B1074837
:103EA80000F00EF8C8F80000CAE73046394603F0BB
:103EB80011F8F7E7002534E6FF720008817500085D
:103EC800004870470000C07F0EB46FF0004100B595
:103ED8009CB01DAB029006900791049108480949CF
:103EE80053F8042B0591006802A9019302F030FEF3
:103EF8000022029B1A701CB05DF804EB03B07047F7
:103F0800180000200802FFFF034613F8012B002ABF
:103F1800FBD1181A013870472DE9F0410F46904639
:103F280002F0CAFB04460D46B8F1000F11D0C7F3E2
:103F38000A53C3F16B03002B0BDD00241B0503F1AF
:103F48007F5505F5401522462B46FEF769FE0446C7
:103F58000D4620462946BDE8F0810000000000001B
:103F68002DE9F04F9B460023A1B01C939E4B82463F
:103F78001F680E4638461792FFF7C6FF4FF0000835
:103F880004464FF000091B961B9B1A782B2A4CD02D
:103F98003AD80D2A33D8082A33D8002A3DD000232E
:103FA8000C931B9D2B78302B40F0A9806B7803F085
:103FB800DF03582B66D10C9B504601931CAB009332
:103FC8008A4ACDF808B01DAB1BA901F05FFD10F0BF
:103FD8000706044605D0062E29D1002301351B9576
:103FE8000C93179B002B40F092850C9BD3B1424653
:103FF80009F100431046194621B0BDE8F08F202A88
:10400800CDD101331B93BFE72D2AC8D101220C92D1
:104018005A1C1B925B78002BC3D1179B1B96002B55
:1040280040F0738542464B46E4E70022EFE71C9ACE
:104038003AB135211EA802F036FC50461C9902F010
:1040480071F8013E042E06D8DFE806F00A031417BB
:104058000A00DDE91E892107C3D549F00049C0E7F8
:104068001D9ADDE91E8302F2334223F4801343EAEA
:104078000259F0E7DFF87891EDE76FF000494FF06B
:10408800FF38E8E71B9B5A1C1B925B78302BF9D052
:10409800002BA6D0012307931B9B0A220893002319
:1040A8009B46CDE905331B980578A5F13003D9B2B5
:1040B800092926D92246394602F060FE002832D066
:1040C80000202B465C4602460490652B01D0452B08
:1040D80013D11CB9079B03439FD000241B9E731C5C
:1040E8001B9373782B2B78D02D2B7BD00027A3F133
:1040F8003001092940F282801B9600259EE00023AA
:10410800C9E7BBF1080FD5BF0699059902FB013332
:1041180002FB013300F10100D4BF069305930BF1B4
:10412800010B1B90BFE71B9B1A191B921B5DBBF170
:10413800000F36D05C460490A3F13002092A12D948
:104148000122C2E71B9B01305A1C1B925B78302B63
:10415800F8D0A3F13102082A00F2DE84049000208E
:1041680004461B9A0892303B00F1010213D00499CF
:1041780005191144049122460A21954213D12218A7
:10418800082A04F1010404441BDC0A22069902FBF4
:104198000133069300221B9B1046591C1B915B7828
:1041A800CAE75846D3E7082A04DC069F4F43069718
:1041B8000132E2E7571C102FDEBF059F4F430597DA
:1041C800F6E7102CDFBF0A22059902FB013305939D
:1041D800E0E70023012204937CE70027B31C1B932C
:1041E800B37884E70127F9E76874000804730008C6
:1041F8000000F07F1B9B591C1B915B78302BF9D07A
:10420800A3F1310108293FF678AF4FF00A0EA3F168
:10421800300C1B9B09931B9B591C1B915B78A3F1CA
:104228003005092D35D9099D491B082944F61F6514
:1042380002DC6545A8BF654607B16D42002C4CD12C
:10424800079901437FF4CDAE002A7FF4E6AE692BCF
:1042580026D023DC492B23D04E2B7FF4DEAE9C499D
:104268001BA801F04FFE00283FF4D7AE1B9B1B781C
:10427800282B2CD197491EAA1BA801F057FE052808
:1042880025D11F9BDDF8788043F0FF4949F4E00908
:10429800A7E60EFB0C3CACF1300CBCE76E2BDCE760
:1042A8008D491BA801F02EFE00283FF4B6AE1B9BDB
:1042B8008A49013B1BA81B9301F024FE10B91B9BE4
:1042C80001331B934FF00008DFF8209289E68448F9
:1042D80002F04EFD8046894683E6049BBBF1000F41
:1042E80008BFA346EB1A102C069826460793A8BFCA
:1042F8001026FEF71BFC092C8046894613DD794BF6
:1043080003EBC60353E91223FEF78AFC804605989F
:104318008946FEF70BFC02460B4640464946FEF727
:10432800C9FA804689460F2C36DC079B002B3FF4E0
:1043380058AE22DD162B09DC6A4C424604EBC30456
:104348004B46D4E90001FEF76BFCC3E7079AC4F1BA
:104358002503934220DB634DC4F10F0405EBC40130
:104368004246D1E900014B46FEF75AFC079B1C1B4D
:1043780005EBC405D5E90023E5E7079B16330BDBFE
:10438800049B584A5D1B02EBC5054046D5E900234E
:104398004946FEF76FFD9DE7079BA61B1E44002EAE
:1043A80071DD16F00F030AD04E49424601EBC301F6
:1043B800D1E900014B46FEF733FC8046894636F0CA
:1043C8000F0650D0B6F59A7F27DD4FF0000BCDF8D9
:1043D80010B0CDF820B0CDF818B022234FF0000867
:1043E800DFF80891CAF80030089B002B3FF4F9ADBC
:1043F80050461C9901F096FE5046069901F092FE2F
:104408005046049901F08EFE5046089901F08AFE44
:104418005946504601F086FEE3E5002340464946EA
:104428001F463611012E21DC0BB1804689462E4BE2
:10443800A9F1547903EBC7074246D7E900014B4677
:10444800FEF7EEFB294B0A460B40294980468B4272
:10445800BBD8A1F580118B4286BF4FF0FF38DFF83B
:10446800949002F15479002305937EE0F20707D572
:104478001D4B03EBC703D3E90023FEF7D1FB012350
:1044880001377610CEE7EED0764216F00F020AD04A
:10449800144B404603EBC2034946D3E90023FEF719
:1044A800E9FC804689463611DDD01F2E24DD4FF009
:1044B800000BCDF810B0CDF820B0CDF818B02223FD
:1044C8004FF000084FF00009CAF800308CE700BF31
:1044D800D872000818730008D07200085C740008CD
:1044E80081750008A8740008807400080000F07F37
:1044F8000000A07CFFFFEF7F16F0100318BF6A23AF
:104508004046059349460023B24FF20704D5D7E940
:104518000023FEF785FB0123761007F10807F4D185
:104528000BB180468946059BBBB1C9F30A53C3F159
:104538006B03002B494610DD1F2B40F32B81342BD6
:10454800D8BF4FF0FF324FF00008CFBF4FF05C7973
:10455800203B02FA03F303EA010900220023404644
:104568004946FEF7C5FD0028A1D1069B5A4600938F
:1045780050462346089901F02AFE089000283FF487
:1045880024AF049B4FF0000B5D1B079BCDF810B0C8
:10459800002BB4BF2B4600230E93079B23EAE3733B
:1045A8001693089B5046596801F088FD069000282C
:1045B8003FF413AF089B0C301A6903F10C01023267
:1045C8009200FEF7F5FD1EAB01931DAB009342462A
:1045D8004B465046CDE90A8902F0E8F81C900028BD
:1045E8003FF4FBAE0121504601F07DFE03460490E6
:1045F80000283FF4F2AE1D9D1E9A002DABBF0E9B06
:10460800169BEE185C1B059BA8BF169CA5EB030523
:104618001544714B05F1FF35B8BF0E9E9D42C2F19E
:10462800360280F2C9805B1B1F2B4FF00107A2EBFB
:10463800030200F3B680002507FA03F30F93B718B7
:10464800059BBE4214441C443346A8BF3B46A342C4
:10465800A8BF2346002BC2BFFF1AE41AF61A0E9B06
:10466800002B17DD1A465046049901F0E1FE04902C
:1046780000283FF4B2AE01461C9A504601F03CFEB9
:10468800099000283FF4A9AE50461C9901F04AFD54
:10469800099B1C93002F00F39380079B002B08DDD8
:1046A8005046169A069901F0C3FE069000283FF47A
:1046B80094AE002C08DD22465046069901F006FF0C
:1046C800069000283FF489AE002E08DD3246504699
:1046D800049901F0FBFE049000283FF47EAE50469A
:1046E800069A1C9901F06CFF834600283FF475AECA
:1046F8000024C3680499C4600D9301F046FFA042EA
:1047080070DA0D9B53EA080340F09680C9F313034F
:10471800002B40F0918029F000431B0D1B05B3F1DD
:10472800D66F40F28980DBF8143023B9DBF81030FB
:10473800012B40F3818059460122504601F0C6FE04
:104748000499834601F021FF002875DD05994B4641
:10475800224A002900F0918002EA0901B1F1D66FDE
:1047680000F38B80B1F15C7F7FF7A9AE00231C4A70
:104778004046CDE914324946DDE91423FEF750FAE4
:104788000B46034308BF22238046894608BFCAF860
:1047980000302DE64FF0FF3202FA03F303EA08086F
:1047A800DBE6C5F17F4505F57F0505F57B45E23577
:1047B80007FA05F50F9742E7012300250F933EE717
:1047C8003A4650461C9901F081FE1C9000287FF45F
:1047D80064AF02E63073000802FCFFFF0000F07FC0
:1047E80000005039CDF8249066D10D9AC9F313030F
:1047F8005AB39D4A93422CD1059B404603B34B467E
:104808009A4A4FF0FF311A40B2F1D46F1BD8120DFB
:10481800C2F16B0301FA03F398421AD1944B099A37
:104828009A4202D101303FF4D8AD4FF000088F4BC7
:10483800099A1A4002F58019059B002B96D1D7E5F5
:104848004FF0FF33E8E70B46E6E753EA08033FF487
:104858007DAFE5B1099B1D42EED00D9B4046494610
:10486800059AC3B1FFF758FB02460B46DDE90A017A
:10487800FEF720F880468946DEE71340A3F580134B
:104888006FEA13594FF0FF386FEA0959D4E70F9BC5
:1048980013EA080FE0E7FFF73FFB02460B46DDE9A6
:1048A8000A01FEF705F80022002380468946FEF734
:1048B8001FFC0028C0D002E65846049901F0C5FF45
:1048C80000224FF0804306460F46FEF725FC0028DD
:1048D80075D00D9B002B47D00026664F654D099B70
:1048E80023F000431B0D1B050F930F9A624B9A424E
:1048F80040F0CA80DDE90A23CDE91423099B40462C
:10490800A3F15479494601F0D7FE02460B463046DA
:104918003946FEF785F942464B46FDF7CBFF0B4675
:104928005249564A1940914280465ED90B9B02F182
:104938005472934203D10A9B01333FF44EAD4FF0BA
:10494800FF38DFF82C9150461C9901F0EBFB5046DC
:10495800069901F0E7FB5046049901F0E3FB59463C
:10496800504601F0DFFB1CE6B8F1000F19D1099B96
:10497800C3F31303E3B90022304639463D4BFEF733
:10498800C1FBC8B90022304639463D4BFEF748F90D
:1049980004460D4605F1004318941993DDE918679C
:1049A8009DE7B8F1010F03D1099B002B3FF487ADB8
:1049B80000260024334F91E70D9C314DEAE7304B38
:1049C800002230463946FEF72BF90D9B04460D466A
:1049D80033B901F1004310901193DDE910677EE7C8
:1049E80002460B46CDE91023F7E703F15479059BFE
:1049F800002BA8D129F000430F9A1B0D1B059A42E2
:104A0800A1D12046294602F0B5FAFEF7DBF80246A6
:104A18000B4620462946FDF74BFF0D9AC9F31303B1
:104A280043EA0803134304460D4668D00AA3D3E9B2
:104A38000023FEF767FB00287FF4DAAC08A3D3E96C
:104A4800002320462946FEF77BFB00283FF47BAF76
:104A5800CEE400BFAFF300809535A094FFFFDF3FA1
:104A680035E5AF350000E03FFFFF0F000000F07FA5
:104A7800FFFFEF7F0000F03F0000E07FFFFF9F7C1B
:104A88000000E03F0000F0BF059B13B30F9BB3F19C
:104A9800D46F1ED826A3D3E9002320462946FEF763
:104AA8003BFB90B12946204602F0F4F9012838BFB3
:104AB8000120FEF73BF80D9B04460D46D3B901F1E2
:104AC800004312901393DDE912670F9A07F1D6633A
:104AD8009F1ADDE90A0101F0EFFD02460B46304658
:104AE8003946FEF79DF8DDE90A23FDF7E3FE804627
:104AF80089467CE702460B46CDE91223E3E70EA37D
:104B0800D3E90023FEF7FEFA9FE700230C931B9BD3
:104B1800179A1360FFF769BA652B3FF45AAB452B18
:104B28003FF457AB0122FFF78BBB00BFAFF3008008
:104B38000000C0FFFFFFDF419535A094FFFFCF3F86
:104B4800014BFFF70DBA00BF800000202DE9F047A8
:104B58008C468646394E60461CF8014BA55D15F01B
:104B68000805F8D12D2C33D14FF001089CF80040EE
:104B780000F1020C002B5CD0102B0CD1302C0AD188
:104B88009CF8000000F0DF0058284DD110239CF855
:104B980001400CF1020C002608F10047013FB7FB69
:104BA800F3F9304603FB197AA4F13005092D18D81A
:104BB8002C46A34224DD751C07D081451DD301D1A5
:104BC800A2451ADB012600FB03401CF8014BEBE76A
:104BD8002B2C08BF9CF80040A84608BF00F1020C27
:104BE800C8E7A4F14105192D01D8373CE1E7A4F144
:104BF8006105192D04D8573CDBE74FF0FF36E4E791
:104C0800731C06D122233846CEF8003042B9BDE8DD
:104C1800F087B8F1000F00D04042002AF7D00EB15B
:104C28000CF1FF311160F2E73024002BB3D10823D7
:104C3800B1E7302CA4D00A23ADE700BF59730008B0
:104C4800FFF784BF30B5141E05469BB0184605DA39
:104C58008B234FF0FF302B601BB030BD4FF4027335
:104C6800ADF80C300CBF234604F1FF3302930593D3
:104C78004FF6FF73024600910491ADF80E30694675
:104C88001E9B284601F064FF431CBCBF8B232B608E
:104C9800002CE1D00022009B1A70DDE707B50093D5
:104CA80013460A46014603480068FFF7CBFF03B0E6
:104CB8005DF804FB1800002000B59BB0009104913A
:104CC8006FF000410591029105490391694601F091
:104CD8003FFF0022009B1A701BB05DF804FB00BF69
:104CE8000802FFFF13460A46014602480068FFF71C
:104CF800E3BF00BF180000202DE9F74F03690C69D6
:104D08000746A342C0F28380013C00F1140501F17B
:104D1800140805EB8403019358F8243055F824202F
:104D280001339A42B2FBF3F64FEA840B08EB84098D
:104D380032D34FF0000E4046AC46F24650F8042BF2
:104D480093B206FB03E3120C4FEA134E06FB02E292
:104D58009BB2AAEB0303DCF800A04FEA124E1FFA3D
:104D68008AFA53441FFA82FADCF800208145CAEB1C
:104D7800124202EB23429BB243EA02434FEA224A21
:104D88004CF8043BDAD255F80B302BB9019B043BA5
:104D98009D421A462FD33C61384601F0F6FB0028A5
:104DA80025DB28464FF0000C013658F8041BD0F8D4
:104DB80000E08BB2ACEB03031FFA8EF213440A0C2B
:104DC800C2EB1E4202EB23429BB243EA0243C145B7
:104DD8004FEA224C40F8043BE7D255F8242005EB73
:104DE800840322B9043B9D421A460AD33C613046EB
:104DF80003B0BDE8F08F1268043B002ACBD1013C18
:104E0800C6E71268043B002AF0D1013CEBE700201A
:104E1800EEE70000000000002DE9F04F16461F469F
:104E2800446A99B00546CDE90467DDF894803CB939
:104E3800102001F01BF9C0E9014468620460C460F5
:104E48006B6A196851B15A68012393404A608B60B4
:104E5800284601F067F900226B6A1A603B1EAFBF53
:104E68000023012223F000430593A8BFC8F80030AF
:104E7800DDF81490AC4BB8BFC8F8002033EA09033A
:104E880019D142F20F73249A1360C9F31303334301
:104E980000F06C85269B53B9A44B23E0A44B0393E5
:104EA8000833269A1360039819B0BDE8F08F9F4B1A
:104EB80003930333F5E7DDE90434CDE90C34DDE988
:104EC8000C0100220023FEF713F9804660B101238C
:104ED800249A1360269B002B00F04585954B269A53
:104EE8001360013B0393DEE716AB019317AB009306
:104EF8002846DDE90C2301F059FCC9F30A5483461E
:104F0800002C7FD0DDE90C010D9BA4F2FF34C3F324
:104F1800130343F07F5141F44011CDF84C80002237
:104F2800854BFDF7C5FC7AA3D3E90023FDF778FE8E
:104F380079A3D3E90023FDF7BDFC064620460F46BA
:104F4800FDF704FE76A3D3E90023FDF769FE0246C8
:104F58000B4630463946FDF7ADFC06460F46FEF7D0
:104F6800F9F800228246002330463946FEF7CAF88F
:104F780048B15046FDF7EAFD32463B46FEF7B8F821
:104F880008B90AF1FF3ABAF1160F58D8DDE90C0151
:104F98006A4B03EBCA03D3E90023FEF7B3F80028F2
:104FA8004FD000230AF1FF3A0F93169B1C1B631E78
:104FB800099349BFC4F1010300230693002354BF9A
:104FC80006930993BAF1000F3DDB099BCDF838A091
:104FD8005344099300230A93229B092B00F2B480BF
:104FE800052BC4BF043B2293229BC8BF0024A3F116
:104FF8000203D8BF0124032B00F2B280DFE803F0DC
:105008002D7C7AA2DDE916431C4404F23243202B9E
:10501800C3BFC3F1400304F2124009FA03F3C3F11A
:105028002003C6BF26FA00F0184306FA03F0FDF77E
:105038007DFD0123A1F1F871013C13936FE7012372
:10504800B2E70F90B1E7069BA3EB0A030693CAF1F8
:1050580000030A9300230E93BEE700230B93239BC0
:10506800002B00F380804FF001094B46CDF82090CB
:10507800CDF88C9000226E6A7260042202F114004E
:105088009842716875D9284601F018F86B6A306043
:105098001B680393089B0E2B00F2EC80002C00F099
:1050A800E980BAF1000F78DD244A0AF00F0302EB19
:1050B800C3031AF4807FD3E90034CDE910344FEAF2
:1050C8002A145AD0DDE90C011D4B0327D3E9082324
:1050D800FDF7D0FECDE9040104F00F04184E002CB2
:1050E8004DD1DDE91023DDE90401FDF7C3FECDE96B
:1050F80004016CE00123B1E700230B93239B0AEB27
:10510800030909F10103012B0893B8BF0123B1E793
:1051180061436F63A787D23FB3C8608B288AC63FB5
:10512800FB799F501344D33F0000F07F627400085E
:1051380059740008DC7200080000F83FA8740008E1
:10514800807400080123D8E7012400230B942293DC
:105158004FF0FF3900221223CDF82090239289E7DF
:1051680001230B93F4E7DDF88C904B46CDF82090A3
:1051780080E701317160520080E70227AEE7E1075E
:1051880008D5DDE91001D6E90023FDF749FDCDE991
:105198001001013764100836A1E700F0A580DDE9A9
:1051A8000C01CAF10004A34B04F00F0203EBC20385
:1051B800D3E90023FDF734FD02270023CDE90401DC
:1051C8009D4E2411002C40F08480002B8FD10F9B22
:1051D800002B00F08B80DDE90434CDE91034DDE9E3
:1051E80010010022954BFDF78DFF00287ED0089B0B
:1051F800002B7BD0B9F1000F38DDDDE9100100226A
:105208008F4BFDF70DFD4C46CDE904010AF1FF383F
:1052180001373846FDF79AFCDDE90423FDF700FD68
:105228000022884BFDF746FBA1F15076CDE910012D
:105238001196002C5DD1DDE904010022824BFDF7B7
:1052480037FB02460B46CDE904233346109AFDF797
:1052580077FF002840F09782DDE90401109A06F1F3
:105268000043FDF74FFF002840F08B82DDE90C3446
:10527800CDE90434179B002BC0F25181BAF10E0F0F
:1052880000F34D816B4B03EBCA03D3E90034CDE93E
:105298000634239B002B80F2DB80089B002B00F355
:1052A800D78040F06D82DDE906010022664BFDF7EC
:1052B800B7FCDDE90423FDF739FF089C26460028E2
:1052C80040F043823123039F0AF1010A07F8013BAA
:1052D8003FE2E20705D5D6E90023FDF7A1FC01234B
:1052E8000137641008366DE7022770E7D046089C3E
:1052F8008FE703994F4B214412910B9903EBC40399
:10530800DDE9106753E90223002946D000204F4900
:10531800FDF7B0FD3B463246FDF7CAFACDE910016C
:10532800039FDDE90401FDF715FF0446FDF70EFCB8
:1053380002460B46DDE90401FDF7BAFA02460B46C0
:105348003034CDE90423DDE9102307F8014BFDF7DC
:10535800D9FE002865D1DDE9042300203749FDF78F
:10536800A7FADDE91023FDF7CDFE002840F0B6804E
:10537800129B9F423FF47AAFDDE910010022304BC7
:10538800FDF74EFC0022CDE91001DDE904012C4BAC
:10539800FDF746FCCDE90401C3E730463946FDF781
:1053A8003FFC129BCDE91001039C1493DDE9040135
:1053B800FDF7D0FE1590FDF7C9FB02460B46DDE967
:1053C8000401FDF775FA159B0646303304F8013BD6
:1053D800129B0F469C424FF0000224D1DDE91001D8
:1053E8001A4BFDF767FA02460B4630463946FDF779
:1053F800A7FE002871D1DDE9102300201349FDF72D
:1054080057FA02460B4630463946FDF77BFE002820
:105418003FF42CAF149F7B1E149317F8013C302BDC
:10542800F8D0C24649E0064BFDF7FAFBCDE9040186
:10543800BCE700BFA8740008807400080000F03FB3
:105448000000244000001C40000014400000E03F21
:10545800039FDDE90489DDE9062340464946FDF757
:1054680009FDFDF777FE0446FDF770FBDDE906232D
:10547800FDF7D6FB04F130060B4602464946404686
:10548800FDF716FA07F8016B039E089BBE1BB34293
:1054980038D102460B46FDF70DFADDE906238046B2
:1054A8008946FDF74DFE58BBDDE9062340464946CF
:1054B800FDF71EFE08B1E10722D42846594600F040
:1054C80031FE00233B70249B0AF101001860269BE3
:1054D800002B3FF4E8AC1F60E5E427463B461F4637
:1054E80013F8012D392A07D1039A9A42F7D13022AD
:1054F800039908F101080A701A7801321A7090E7C6
:10550800D046EBE70022A14BFDF78AFB00220023DF
:1055180080468946FDF7ECFD00289CD0CDE70B9A24
:10552800002A00F0CD80229A012A00F3AF80139A56
:10553800002A00F0A78003F233430A9C069F069ACC
:1055480001211A440692099A28461A44099200F041
:10555800CAFE0646002F0CDD099B002B09DDBB4265
:10556800A8BF3B46069AFF1AD21A0692099AD31A7E
:1055780009930A9BF3B10B9B002B00F0A580002C2C
:1055880010DD31462246284600F052FF5A460146B1
:105598000646284600F0B0FE80465946284600F0E8
:1055A800C1FDC3460A9B1A1B04D05946284600F081
:1055B8003FFF83460121284600F095FE0E9B0446D6
:1055C800002B40F383801A460146284600F030FF3E
:1055D800229B0446012B7CDD4FF00008236904EB75
:1055E8008303186900F031FEC0F12000099B1844BC
:1055F80010F01F0000F08E80C0F12003042B40F350
:105608008780C0F11C00069B074403440693099B4E
:1056180003440993069B002B05DD59461A46284684
:1056280000F054FF8346099B002B05DD21461A46EE
:10563800284600F04BFF04460F9B002B6CD02146F8
:10564800584600F0A2FF002866DA002359460A22CD
:10565800284600F07EFD0B9B83460AF1FF3A002B9B
:1056680000F08B81314600230A22284600F071FDA4
:10567800B9F1000F064600F39180229B022B40F3FC
:105688008D8051E0169BC3F1360356E7089B5C1EDC
:105698000A9BA342B7BF0A9B1C1BE21A0E9BBEBF04
:1056A8000A949B180E93089BB8BF0024002BBBBF1D
:1056B800069B089A069F9F1AACBF089B00233EE7EB
:1056C8000A9C069F0B9E45E70A9A6EE7229B012BD0
:1056D80019DC049BBBB9059BC3F313039BB9059B5A
:1056E80023F000431B0D1B0583B14FF00108069BF7
:1056F80001330693099B013309930E9B002B7FF41A
:105708006DAF012072E74FF00008F6E79846F4E71E
:1057180080D018461C3076E7089B002B38DC229B8B
:10572800022B35DDDDF82090B9F1000F0DD12146AF
:105738004B460522284600F00CFD01460446584613
:1057480000F023FF00283FF7BDAD239B039F6FEABE
:10575800030A4FF000082146284600F0E3FC002E1B
:105768003FF4ABAEB8F1000F05D0B04503D04146C9
:10577800284600F0D7FC3146284600F0D3FC9CE6CA
:1057880000242646E1E7C24626469BE50000244061
:105798000B9BDDF82090002B00F0F680002F05DD34
:1057A80031463A46284600F091FE0646B8F1000F09
:1057B80055D07168284600F081FC0746326906F129
:1057C8000C01023292000C30FDF7F2FC012239463E
:1057D800284600F07BFEB0460646039B013308933B
:1057E800039B4B440A93049B03F001030993089B12
:1057F8002146013B58460493FFF77EFA034641468B
:105808003033069058460B9300F0BFFE324681466F
:105818002146284600F0D4FEC26807460B9B02BB0F
:105828000146584600F0B1FE02460B9B3946284611
:10583800CDE90B3200F076FC229B0C9A089F43EAD4
:105848000201099B0B430B9B0DD1392B29D0B9F1D0
:10585800000F01DD069B3133049A13707BE7304655
:10586800B9E70122E2E7B9F1000F06DB229941EA24
:105878000909099959EA010120D1002AECDD5946A4
:1058880001222846089300F021FE2146834600F0B5
:105898007CFE0028089B02DCDED1DA07DCD5392B38
:1058A800D8D13923049A13703B461F4617F8012CA8
:1058B800013B392A50D001321A704CE7002A03DD27
:1058C800392BEED00133C7E7089A0A9902F8013C50
:1058D8008A422AD0594600230A22284600F039FC79
:1058E800B04583464FF000034FF00A024146284670
:1058F80007D100F02EFC80460646089B013308932A
:1059080075E700F026FC3146804600230A22284627
:1059180000F01FFC0646F0E7B9F1000FCCBF4F4678
:1059280001274FF00008039A1744594601222846D8
:10593800089300F0CBFD2146834600F026FE0028A0
:10594800B2DC02D1089BDB07AED43B461F4613F8F6
:10595800012D302AFAD0FEE6039A9A42A5D13123C6
:105968000AF1010A79E7134BFFF7BCBA269B002B13
:105978007FF494AA104BFFF7B5BAB9F1000F03DC16
:10598800229B022B3FF7D0AE039F21465846FFF7D4
:10599800B3F9039A00F1300307F8013BBA1A9145AD
:1059A800BADD594600230A22284600F0D2FB834676
:1059B800EBE700BFDB7200085974000803692DE9A2
:1059C800F043B3EB611F00F114044FEA611246DDA6
:1059D80011F01F0104EB830604EB82050CD1294664
:1059E80000F11007B14235D39B1A9B00EA1E96427C
:1059F80038BF0023234415E0A14654F82270C1F1B2
:105A08002008CF4005F1040E7645F44616D89B1AB7
:105A18009A00043A0135AE4238BF0022A318A750B5
:105A280007B10433A342A3EB040208BF00234FEAE3
:105A3800A202026108BF4361BDE8F083DCF800C040
:105A48000CFA08FC4CEA070749F8047B5EF8047B6B
:105A5800CF40D9E751F804CB47F804CFC2E7234633
:105A6800E0E7A0F13003092B02D82038C0B2704714
:105A7800A0F16103052B01D84738F7E7A0F14103EE
:105A8800052B01D82738F1E7002070472DE9F04FA2
:105A98008BB00693BA4B02901B688B46184690460B
:105AA8000393FEF731FA8246039BDBF80020034498
:105AB80013F8013C0793931CC2F1FF2202F57F0201
:105AC800FE32D1181F4613F8010B01913028F8D087
